{
  "_format": "hh-sol-artifact-1",
  "contractName": "OnchainNFT",
  "sourceName": "contracts/OnchainNFT.sol",
  "abi": [
    {
      "inputs": [
        {
          "internalType": "string",
          "name": "_owner",
          "type": "string"
        },
        {
          "internalType": "string",
          "name": "_token0",
          "type": "string"
        },
        {
          "internalType": "string",
          "name": "_token1",
          "type": "string"
        },
        {
          "internalType": "string",
          "name": "_fee",
          "type": "string"
        },
        {
          "internalType": "string",
          "name": "_tickLower",
          "type": "string"
        },
        {
          "internalType": "string",
          "name": "_tickUpper",
          "type": "string"
        },
        {
          "internalType": "string",
          "name": "_amount",
          "type": "string"
        },
        {
          "internalType": "bytes32",
          "name": "_poolID",
          "type": "bytes32"
        }
      ],
      "name": "drawSVG",
      "outputs": [
        {
          "internalType": "string",
          "name": "",
          "type": "string"
        }
      ],
      "stateMutability": "pure",
      "type": "function"
    },
    {
      "inputs": [
        {
          "internalType": "bytes32",
          "name": "data",
          "type": "bytes32"
        }
      ],
      "name": "toHex",
      "outputs": [
        {
          "internalType": "string",
          "name": "",
          "type": "string"
        }
      ],
      "stateMutability": "pure",
      "type": "function"
    }
  ],
  "bytecode": "0x608060405234801561001057600080fd5b506113bb806100206000396000f3fe608060405234801561001057600080fd5b50600436106100365760003560e01c806344b893af1461003b57806349e894d81461006b575b600080fd5b6100556004803603810190610050919061044f565b61009b565b6040516100629190610a61565b60405180910390f35b61008560048036038101906100809190610426565b61010a565b6040516100929190610a61565b60405180910390f35b6060600088886100aa8561010a565b8c8989898f8f8f6040516020016100ca9a999897969594939291906108a0565b6040516020818303038152906040529050806040516020016100ec9190610a34565b60405160208183030381529060405291505098975050505050505050565b606061011582610149565b610122608084901b610149565b6040516020016101339291906109fd565b6040516020818303038152906040529050919050565b6000604077ffffffffffffffff0000000000000000000000000000000060001b836fffffffffffffffffffffffffffffffff191616901c7fffffffffffffffff00000000000000000000000000000000000000000000000060001b836fffffffffffffffffffffffffffffffff19161617905060207bffffffff000000000000000000000000ffffffff000000000000000060001b8216901c7fffffffff000000000000000000000000ffffffff00000000000000000000000060001b821617905060107dffff000000000000ffff000000000000ffff000000000000ffff0000000060001b8216901c7fffff000000000000ffff000000000000ffff000000000000ffff00000000000060001b821617905060087eff000000ff000000ff000000ff000000ff000000ff000000ff000000ff000060001b8216901c7fff000000ff000000ff000000ff000000ff000000ff000000ff000000ff00000060001b821617905060087f0f000f000f000f000f000f000f000f000f000f000f000f000f000f000f000f0060001b8216901c60047ff000f000f000f000f000f000f000f000f000f000f000f000f000f000f000f00060001b8316901c17905060077f0f0f0f0f0f0f0f0f0f0f0f0f0f0f0f0f0f0f0f0f0f0f0f0f0f0f0f0f0f0f0f0f60047f06060606060606060606060606060606060606060606060606060606060606068460001c6103599190610b00565b901c166103669190610b56565b8160001c7f30303030303030303030303030303030303030303030303030303030303030306103959190610b00565b61039f9190610b00565b60001b9050919050565b60006103bc6103b784610aa8565b610a83565b9050828152602081018484840111156103d457600080fd5b6103df848285610bc4565b509392505050565b6000813590506103f68161136e565b92915050565b600082601f83011261040d57600080fd5b813561041d8482602086016103a9565b91505092915050565b60006020828403121561043857600080fd5b6000610446848285016103e7565b91505092915050565b600080600080600080600080610100898b03121561046c57600080fd5b600089013567ffffffffffffffff81111561048657600080fd5b6104928b828c016103fc565b985050602089013567ffffffffffffffff8111156104af57600080fd5b6104bb8b828c016103fc565b975050604089013567ffffffffffffffff8111156104d857600080fd5b6104e48b828c016103fc565b965050606089013567ffffffffffffffff81111561050157600080fd5b61050d8b828c016103fc565b955050608089013567ffffffffffffffff81111561052a57600080fd5b6105368b828c016103fc565b94505060a089013567ffffffffffffffff81111561055357600080fd5b61055f8b828c016103fc565b93505060c089013567ffffffffffffffff81111561057c57600080fd5b6105888b828c016103fc565b92505060e06105998b828c016103e7565b9150509295985092959890939650565b6105ba6105b582610bb0565b610c37565b82525050565b60006105cb82610ad9565b6105d58185610ae4565b93506105e5818560208601610bd3565b6105ee81610c9f565b840191505092915050565b600061060482610ad9565b61060e8185610af5565b935061061e818560208601610bd3565b80840191505092915050565b6000610637603e83610af5565b915061064282610cb0565b603e82019050919050565b600061065a600f83610af5565b915061066582610cff565b600f82019050919050565b600061067d601c83610af5565b915061068882610d28565b601c82019050919050565b60006106a0605c83610af5565b91506106ab82610d51565b605c82019050919050565b60006106c360b883610af5565b91506106ce82610dc6565b60b882019050919050565b60006106e6600283610af5565b91506106f182610ead565b600282019050919050565b6000610709605b83610af5565b915061071482610ed6565b605b82019050919050565b600061072c60ba83610af5565b915061073782610f4b565b60ba82019050919050565b600061074f601c83610af5565b915061075a82611032565b601c82019050919050565b6000610772605c83610af5565b915061077d8261105b565b605c82019050919050565b6000610795601383610af5565b91506107a0826110d0565b601382019050919050565b60006107b8603f83610af5565b91506107c3826110f9565b603f82019050919050565b60006107db601383610af5565b91506107e682611148565b601382019050919050565b60006107fe609983610af5565b915061080982611171565b609982019050919050565b6000610821605c83610af5565b915061082c82611232565b605c82019050919050565b6000610844600683610af5565b915061084f826112a7565b600682019050919050565b6000610867600183610af5565b9150610872826112d0565b600182019050919050565b600061088a605a83610af5565b9150610895826112f9565b605a82019050919050565b60006108ab8261062a565b91506108b6826107ab565b91506108c1826106fc565b91506108cd828d6105f9565b91506108d88261085a565b91506108e4828c6105f9565b91506108ef8261064d565b91506108fa8261087d565b9150610906828b6105f9565b91506109118261064d565b915061091c82610765565b9150610928828a6105f9565b91506109338261064d565b915061093e826106b6565b915061094982610814565b915061095582896105f9565b915061096082610670565b915061096c82886105f9565b915061097782610742565b915061098382876105f9565b915061098e82610788565b91506109998261071f565b91506109a482610693565b91506109b082866105f9565b91506109bb82610670565b91506109c782856105f9565b91506109d282610742565b91506109de82846105f9565b91506109e9826107ce565b91508190509b9a5050505050505050505050565b6000610a08826106d9565b9150610a1482856105a9565b602082019150610a2482846105a9565b6020820191508190509392505050565b6000610a3f826107f1565b9150610a4b82846105f9565b9150610a5682610837565b915081905092915050565b60006020820190508181036000830152610a7b81846105c0565b905092915050565b6000610a8d610a9e565b9050610a998282610c06565b919050565b6000604051905090565b600067ffffffffffffffff821115610ac357610ac2610c70565b5b610acc82610c9f565b9050602081019050919050565b600081519050919050565b600082825260208201905092915050565b600081905092915050565b6000610b0b82610bba565b9150610b1683610bba565b9250827fffffffffffffffffffffffffffffffffffffffffffffffffffffffffffffffff03821115610b4b57610b4a610c41565b5b828201905092915050565b6000610b6182610bba565b9150610b6c83610bba565b9250817fffffffffffffffffffffffffffffffffffffffffffffffffffffffffffffffff0483118215151615610ba557610ba4610c41565b5b828202905092915050565b6000819050919050565b6000819050919050565b82818337600083830152505050565b60005b83811015610bf1578082015181840152602081019050610bd6565b83811115610c00576000848401525b50505050565b610c0f82610c9f565b810181811067ffffffffffffffff82111715610c2e57610c2d610c70565b5b80604052505050565b6000819050919050565b7f4e487b7100000000000000000000000000000000000000000000000000000000600052601160045260246000fd5b7f4e487b7100000000000000000000000000000000000000000000000000000000600052604160045260246000fd5b6000601f19601f8301169050919050565b7f3c7376672076696577426f783d2230203020333030203530302220786d6c6e7360008201527f3d22687474703a2f2f7777772e77332e6f72672f323030302f737667223e0000602082015250565b7f3c2f747370616e3e3c2f746578743e0000000000000000000000000000000000600082015250565b7f3c2f747370616e3e3c747370616e20783d22302220793d223230223e00000000600082015250565b7f3c74657874207472616e73666f726d3d227472616e736c61746528313835203260008201527f343629222066696c6c3d22236666662220666f6e742d66616d696c793d22526f60208201527f626f746f2220666f6e742d73697a653d223230223e3c747370616e3e00000000604082015250565b7f3c74657874207472616e73666f726d3d227472616e736c61746528353020313160008201527f3629222066696c6c3d22236666662220666f6e742d66616d696c793d22526f6260208201527f6f746f2220666f6e742d73697a653d223230223e3c747370616e3e4d696e207460408201527f69636b3c2f747370616e3e3c747370616e20783d22302220793d223230223e4d60608201527f6178207469636b3c2f747370616e3e3c747370616e20783d22302220793d223460808201527f30223e416d6f756e743c2f747370616e3e3c2f746578743e000000000000000060a082015250565b7f3078000000000000000000000000000000000000000000000000000000000000600082015250565b7f3c74657874207472616e73666f726d3d227472616e736c61746528353620343760008201527f3029222066696c6c3d22236666662220666f6e742d66616d696c793d22526f6260208201527f6f746f2220666f6e742d73697a653d223435223e3c747370616e3e0000000000604082015250565b7f3c74657874207472616e73666f726d3d227472616e736c61746528353020323460008201527f3629222066696c6c3d22236666662220666f6e742d66616d696c793d22526f6260208201527f6f746f2220666f6e742d73697a653d223230223e3c747370616e3e422e20746f60408201527f6b656e3c2f747370616e3e3c747370616e20783d22302220793d223230223e5160608201527f2e20746f6b656e3c2f747370616e3e3c747370616e20783d22302220793d223460808201527f30223e46656520746965723c2f747370616e3e3c2f746578743e00000000000060a082015250565b7f3c2f747370616e3e3c747370616e20783d22302220793d223430223e00000000600082015250565b7f3c74657874207472616e73666f726d3d22726f74617465282d3930203334352060008201527f363029222066696c6c3d22236666662220666f6e742d66616d696c793d22526f60208201527f626f746f2220666f6e742d73697a653d223138223e3c747370616e3e00000000604082015250565b7f204554483c2f747370616e3e3c2f746578743e00000000000000000000000000600082015250565b7f3c726563742077696474683d2233303022206865696768743d2235303022207260008201527f783d223430222072793d223430222066696c6c3d2223313232333437222f3e00602082015250565b7f2070706d3c2f747370616e3e3c2f746578743e00000000000000000000000000600082015250565b7f3c7376672069643d224e4654222077696474683d22313030252220686569676860008201527f743d2231303025222076657273696f6e3d22312e31222076696577426f783d2260208201527f3020302036342036342220786d6c6e733d22687474703a2f2f7777772e77332e60408201527f6f72672f323030302f7376672220786d6c6e733a786c696e6b3d22687474703a60608201527f2f2f7777772e77332e6f72672f313939392f786c696e6b223e00000000000000608082015250565b7f3c74657874207472616e73666f726d3d227472616e736c61746528313835203160008201527f313629222066696c6c3d22236666662220666f6e742d66616d696c793d22526f60208201527f626f746f2220666f6e742d73697a653d223230223e3c747370616e3e00000000604082015250565b7f3c2f7376673e0000000000000000000000000000000000000000000000000000600082015250565b7f2f00000000000000000000000000000000000000000000000000000000000000600082015250565b7f3c74657874207472616e73666f726d3d22726f74617465283930202d3120313860008201527f29222066696c6c3d22236666662220666f6e742d66616d696c793d22526f626f60208201527f746f2220666f6e742d73697a653d223132223e3c747370616e3e000000000000604082015250565b61137781610bb0565b811461138257600080fd5b5056fea264697066735822122090b160bdab5465fc0e7c33c8897bda8b10315d0006cc122155867513731d872c64736f6c63430008040033",
  "linkReferences": {},
  "deployedLinkReferences": {}
}