{
    "contractName": "Position",
    "abi": [
        {
            "inputs": [
                {
                    "internalType": "int24",
                    "name": "_tickLower",
                    "type": "int24"
                },
                {
                    "internalType": "int24",
                    "name": "_tickUpper",
                    "type": "int24"
                },
                {
                    "internalType": "string",
                    "name": "_token0",
                    "type": "string"
                },
                {
                    "internalType": "string",
                    "name": "_token1",
                    "type": "string"
                },
                {
                    "internalType": "uint24",
                    "name": "_fee",
                    "type": "uint24"
                }
            ],
            "stateMutability": "nonpayable",
            "type": "constructor"
        },
        {
            "inputs": [
                {
                    "internalType": "string",
                    "name": "token0",
                    "type": "string"
                },
                {
                    "internalType": "string",
                    "name": "token1",
                    "type": "string"
                },
                {
                    "internalType": "uint24",
                    "name": "fee",
                    "type": "uint24"
                }
            ],
            "name": "addPool",
            "outputs": [],
            "stateMutability": "nonpayable",
            "type": "function"
        },
        {
            "inputs": [
                {
                    "internalType": "string",
                    "name": "token0",
                    "type": "string"
                },
                {
                    "internalType": "string",
                    "name": "token1",
                    "type": "string"
                },
                {
                    "internalType": "uint24",
                    "name": "fee",
                    "type": "uint24"
                }
            ],
            "name": "getPoolId",
            "outputs": [
                {
                    "internalType": "string",
                    "name": "",
                    "type": "string"
                }
            ],
            "stateMutability": "pure",
            "type": "function"
        },
        {
            "inputs": [],
            "name": "getPoolId",
            "outputs": [
                {
                    "internalType": "string",
                    "name": "",
                    "type": "string"
                }
            ],
            "stateMutability": "view",
            "type": "function"
        },
        {
            "inputs": [
                {
                    "internalType": "string",
                    "name": "_poolId",
                    "type": "string"
                }
            ],
            "name": "getPoolInfo",
            "outputs": [
                {
                    "internalType": "string",
                    "name": "",
                    "type": "string"
                },
                {
                    "internalType": "string",
                    "name": "",
                    "type": "string"
                },
                {
                    "internalType": "uint24",
                    "name": "",
                    "type": "uint24"
                }
            ],
            "stateMutability": "view",
            "type": "function"
        },
        {
            "inputs": [],
            "name": "getPoolInfo",
            "outputs": [
                {
                    "internalType": "string",
                    "name": "",
                    "type": "string"
                },
                {
                    "internalType": "string",
                    "name": "",
                    "type": "string"
                },
                {
                    "internalType": "uint24",
                    "name": "",
                    "type": "uint24"
                }
            ],
            "stateMutability": "view",
            "type": "function"
        },
        {
            "inputs": [
                {
                    "internalType": "string",
                    "name": "",
                    "type": "string"
                }
            ],
            "name": "pools",
            "outputs": [
                {
                    "internalType": "string",
                    "name": "token0",
                    "type": "string"
                },
                {
                    "internalType": "string",
                    "name": "token1",
                    "type": "string"
                },
                {
                    "internalType": "uint24",
                    "name": "fee",
                    "type": "uint24"
                }
            ],
            "stateMutability": "view",
            "type": "function"
        },
        {
            "inputs": [],
            "name": "positionInfo",
            "outputs": [
                {
                    "internalType": "int24",
                    "name": "",
                    "type": "int24"
                },
                {
                    "internalType": "int24",
                    "name": "",
                    "type": "int24"
                }
            ],
            "stateMutability": "view",
            "type": "function"
        }
    ],
    "bytecode": "60806040523480156200001157600080fd5b50604051620010e5380380620010e58339810160408190526200003491620002b5565b6001805462ffffff86811663010000000265ffffffffffff1990921690881617179055604051839083906200008090849060200160e89190911b6001600160e81b031916815260030190565b60408051601f1981840301815290829052620000a193929160200162000363565b60405160208183030381529060405260029081620000c0919062000460565b50620000ce838383620000d9565b50505050506200054a565b60405180606001604052808481526020018381526020018262ffffff1681525060006200010e8585856200017a60201b60201c565b6040516200011d91906200052c565b908152604051908190036020019020815181906200013c908262000460565b506020820151600182019062000153908262000460565b50604091909101516002909101805462ffffff191662ffffff909216919091179055505050565b6040805160e883901b6001600160e81b03191660208201528151600381830301815260238201909252606091620001b8918691869160430162000363565b60405160208183030381529060405290509392505050565b8051600281900b8114620001e357600080fd5b919050565b634e487b7160e01b600052604160045260246000fd5b60005b838110156200021b57818101518382015260200162000201565b50506000910152565b600082601f8301126200023657600080fd5b81516001600160401b0380821115620002535762000253620001e8565b604051601f8301601f19908116603f011681019082821181831017156200027e576200027e620001e8565b816040528381528660208588010111156200029857600080fd5b620002ab846020830160208901620001fe565b9695505050505050565b600080600080600060a08688031215620002ce57600080fd5b620002d986620001d0565b9450620002e960208701620001d0565b60408701519094506001600160401b03808211156200030757600080fd5b6200031589838a0162000224565b945060608801519150808211156200032c57600080fd5b506200033b8882890162000224565b925050608086015162ffffff811681146200035557600080fd5b809150509295509295909350565b6000845162000377818460208901620001fe565b8083019050602d60f81b808252855162000399816001850160208a01620001fe565b60019201918201528351620003b6816002840160208801620001fe565b602f60f81b6002929091019182015260030195945050505050565b600181811c90821680620003e657607f821691505b6020821081036200040757634e487b7160e01b600052602260045260246000fd5b50919050565b601f8211156200045b57600081815260208120601f850160051c81016020861015620004365750805b601f850160051c820191505b81811015620004575782815560010162000442565b5050505b505050565b81516001600160401b038111156200047c576200047c620001e8565b62000494816200048d8454620003d1565b846200040d565b602080601f831160018114620004cc5760008415620004b35750858301515b600019600386901b1c1916600185901b17855562000457565b600085815260208120601f198616915b82811015620004fd57888601518255948401946001909101908401620004dc565b50858210156200051c5787850151600019600388901b60f8161c191681555b5050505050600190811b01905550565b6000825162000540818460208701620001fe565b9190910192915050565b610b8b806200055a6000396000f3fe608060405234801561001057600080fd5b506004361061007d5760003560e01c806338fff2d01161005b57806338fff2d0146100e257806360246c88146100ea5780637b05fe62146100f25780639d6f17a81461011657600080fd5b80631b66ec0e146100825780632f6e3b6e146100ad57806332b14479146100c2575b600080fd5b6100956100903660046107b0565b610129565b6040516100a49392919061083d565b60405180910390f35b6100c06100bb366004610878565b6102bd565b005b6100d56100d0366004610878565b610350565b6040516100a491906108f8565b6100d56103a4565b610095610436565b60015460408051600283810b8252630100000090930490920b6020830152016100a4565b6100956101243660046107b0565b6105cb565b6060806000808460405161013d9190610912565b9081526040519081900360200181209060009061015b908790610912565b908152602001604051809103902060010160008660405161017c9190610912565b90815260405190819003602001902060020154825462ffffff9091169083906101a49061092e565b80601f01602080910402602001604051908101604052809291908181526020018280546101d09061092e565b801561021d5780601f106101f25761010080835404028352916020019161021d565b820191906000526020600020905b81548152906001019060200180831161020057829003601f168201915b505050505092508180546102309061092e565b80601f016020809104026020016040519081016040528092919081815260200182805461025c9061092e565b80156102a95780601f1061027e576101008083540402835291602001916102a9565b820191906000526020600020905b81548152906001019060200180831161028c57829003601f168201915b505050505091509250925092509193909250565b60405180606001604052808481526020018381526020018262ffffff1681525060006102ea858585610350565b6040516102f79190610912565b9081526040519081900360200190208151819061031490826109b7565b506020820151600182019061032990826109b7565b50604091909101516002909101805462ffffff191662ffffff909216919091179055505050565b6040805160e883901b6001600160e81b0319166020820152815160038183030181526023820190925260609161038c9186918691604301610a77565b60405160208183030381529060405290509392505050565b6060600280546103b39061092e565b80601f01602080910402602001604051908101604052809291908181526020018280546103df9061092e565b801561042c5780601f106104015761010080835404028352916020019161042c565b820191906000526020600020905b81548152906001019060200180831161040f57829003601f168201915b5050505050905090565b606080600080600260405161044b9190610adf565b9081526040519081900360200181209060009061046a90600290610adf565b90815260200160405180910390206001016000600260405161048c9190610adf565b90815260405190819003602001902060020154825462ffffff9091169083906104b49061092e565b80601f01602080910402602001604051908101604052809291908181526020018280546104e09061092e565b801561052d5780601f106105025761010080835404028352916020019161052d565b820191906000526020600020905b81548152906001019060200180831161051057829003601f168201915b505050505092508180546105409061092e565b80601f016020809104026020016040519081016040528092919081815260200182805461056c9061092e565b80156105b95780601f1061058e576101008083540402835291602001916105b9565b820191906000526020600020905b81548152906001019060200180831161059c57829003601f168201915b50505050509150925092509250909192565b80516020818301810180516000825292820191909301209152805481906105f19061092e565b80601f016020809104026020016040519081016040528092919081815260200182805461061d9061092e565b801561066a5780601f1061063f5761010080835404028352916020019161066a565b820191906000526020600020905b81548152906001019060200180831161064d57829003601f168201915b50505050509080600101805461067f9061092e565b80601f01602080910402602001604051908101604052809291908181526020018280546106ab9061092e565b80156106f85780601f106106cd576101008083540402835291602001916106f8565b820191906000526020600020905b8154815290600101906020018083116106db57829003601f168201915b5050506002909301549192505062ffffff1683565b634e487b7160e01b600052604160045260246000fd5b600082601f83011261073457600080fd5b813567ffffffffffffffff8082111561074f5761074f61070d565b604051601f8301601f19908116603f011681019082821181831017156107775761077761070d565b8160405283815286602085880101111561079057600080fd5b836020870160208301376000602085830101528094505050505092915050565b6000602082840312156107c257600080fd5b813567ffffffffffffffff8111156107d957600080fd5b6107e584828501610723565b949350505050565b60005b838110156108085781810151838201526020016107f0565b50506000910152565b600081518084526108298160208601602086016107ed565b601f01601f19169290920160200192915050565b6060815260006108506060830186610811565b82810360208401526108628186610811565b91505062ffffff83166040830152949350505050565b60008060006060848603121561088d57600080fd5b833567ffffffffffffffff808211156108a557600080fd5b6108b187838801610723565b945060208601359150808211156108c757600080fd5b506108d486828701610723565b925050604084013562ffffff811681146108ed57600080fd5b809150509250925092565b60208152600061090b6020830184610811565b9392505050565b600082516109248184602087016107ed565b9190910192915050565b600181811c9082168061094257607f821691505b60208210810361096257634e487b7160e01b600052602260045260246000fd5b50919050565b601f8211156109b257600081815260208120601f850160051c8101602086101561098f5750805b601f850160051c820191505b818110156109ae5782815560010161099b565b5050505b505050565b815167ffffffffffffffff8111156109d1576109d161070d565b6109e5816109df845461092e565b84610968565b602080601f831160018114610a1a5760008415610a025750858301515b600019600386901b1c1916600185901b1785556109ae565b600085815260208120601f198616915b82811015610a4957888601518255948401946001909101908401610a2a565b5085821015610a675787850151600019600388901b60f8161c191681555b5050505050600190811b01905550565b60008451610a898184602089016107ed565b8083019050602d60f81b8082528551610aa9816001850160208a016107ed565b60019201918201528351610ac48160028401602088016107ed565b602f60f81b6002929091019182015260030195945050505050565b6000808354610aed8161092e565b60018281168015610b055760018114610b1a57610b49565b60ff1984168752821515830287019450610b49565b8760005260208060002060005b85811015610b405781548a820152908401908201610b27565b50505082870194505b5092969550505050505056fea2646970667358221220ee8e139fff31d001dec7dd3c396d23348a473c7a0cf2755d223b4e042f41cfd164736f6c63430008110033",
    "sourcePath": "/media/linux/Files/code rides me/NFTPosition/contracts/Position.sol",
    "compiler": {
        "name": "solc",
        "version": "0.8.17+commit.8df45f5f"
    },
    "functionHashes": {
        "addPool(string,string,uint24)": "2f6e3b6e",
        "getPoolId()": "38fff2d0",
        "getPoolId(string,string,uint24)": "32b14479",
        "getPoolInfo()": "60246c88",
        "getPoolInfo(string)": "1b66ec0e",
        "pools(string)": "9d6f17a8",
        "positionInfo()": "7b05fe62"
    },
    "gasEstimates": {
        "creation": {
            "codeDepositCost": "591000",
            "executionCost": "infinite",
            "totalCost": "infinite"
        },
        "external": {
            "addPool(string,string,uint24)": "infinite",
            "getPoolId()": "infinite",
            "getPoolId(string,string,uint24)": "infinite",
            "getPoolInfo()": "infinite",
            "getPoolInfo(string)": "infinite",
            "pools(string)": "infinite",
            "positionInfo()": "2375"
        }
    }
}