{
  "_format": "hh-sol-artifact-1",
  "contractName": "Position",
  "sourceName": "contracts/Position.sol",
  "abi": [
    {
      "inputs": [
        {
          "internalType": "bytes32",
          "name": "_poolId",
          "type": "bytes32"
        },
        {
          "internalType": "uint256",
          "name": "_tickLower",
          "type": "uint256"
        },
        {
          "internalType": "uint256",
          "name": "_tickUpper",
          "type": "uint256"
        },
        {
          "internalType": "uint24",
          "name": "_price",
          "type": "uint24"
        }
      ],
      "stateMutability": "nonpayable",
      "type": "constructor"
    },
    {
      "inputs": [],
      "name": "positionInfo",
      "outputs": [
        {
          "internalType": "bytes32",
          "name": "",
          "type": "bytes32"
        },
        {
          "internalType": "uint256",
          "name": "",
          "type": "uint256"
        },
        {
          "internalType": "uint256",
          "name": "",
          "type": "uint256"
        },
        {
          "internalType": "uint24",
          "name": "",
          "type": "uint24"
        }
      ],
      "stateMutability": "view",
      "type": "function"
    }
  ],
  "bytecode": "0x608060405234801561001057600080fd5b506040516102d33803806102d3833981810160405281019061003291906100ae565b82600181905550816002819055508360008190555080600360006101000a81548162ffffff021916908362ffffff16021790555050505050610179565b60008151905061007e81610134565b92915050565b6000815190506100938161014b565b92915050565b6000815190506100a881610162565b92915050565b600080600080608085870312156100c457600080fd5b60006100d28782880161006f565b94505060206100e387828801610099565b93505060406100f487828801610099565b925050606061010587828801610084565b91505092959194509250565b6000819050919050565b600062ffffff82169050919050565b6000819050919050565b61013d81610111565b811461014857600080fd5b50565b6101548161011b565b811461015f57600080fd5b50565b61016b8161012a565b811461017657600080fd5b50565b61014b806101886000396000f3fe608060405234801561001057600080fd5b506004361061002b5760003560e01c80637b05fe6214610030575b600080fd5b610038610051565b60405161004894939291906100ad565b60405180910390f35b600080600080600054600154600254600360009054906101000a900462ffffff16935093509350935090919293565b610089816100f2565b82525050565b610098816100fc565b82525050565b6100a78161010b565b82525050565b60006080820190506100c26000830187610080565b6100cf602083018661009e565b6100dc604083018561009e565b6100e9606083018461008f565b95945050505050565b6000819050919050565b600062ffffff82169050919050565b600081905091905056fea26469706673582212203ea054a9809e4ca735138ecc2afd58b2cd4672c789e9f4e78a416501ec8b6d8864736f6c63430008040033",
  "linkReferences": {},
  "deployedLinkReferences": {}
}