{
  "_format": "hh-sol-artifact-1",
  "contractName": "Position",
  "sourceName": "contracts/Position.sol",
  "abi": [
    {
      "inputs": [
        {
          "internalType": "address",
          "name": "_pool",
          "type": "address"
        },
        {
          "internalType": "address",
          "name": "_owner",
          "type": "address"
        },
        {
          "internalType": "int24",
          "name": "_tickLower",
          "type": "int24"
        },
        {
          "internalType": "int24",
          "name": "_tickUpper",
          "type": "int24"
        },
        {
          "internalType": "uint24",
          "name": "_fee",
          "type": "uint24"
        }
      ],
      "stateMutability": "nonpayable",
      "type": "constructor"
    },
    {
      "inputs": [],
      "name": "info",
      "outputs": [
        {
          "internalType": "address",
          "name": "",
          "type": "address"
        },
        {
          "internalType": "address",
          "name": "",
          "type": "address"
        },
        {
          "internalType": "int24",
          "name": "",
          "type": "int24"
        },
        {
          "internalType": "int24",
          "name": "",
          "type": "int24"
        },
        {
          "internalType": "uint24",
          "name": "",
          "type": "uint24"
        }
      ],
      "stateMutability": "view",
      "type": "function"
    }
  ],
  "bytecode": "0x608060405234801561001057600080fd5b5060405161045e38038061045e8339818101604052810190610032919061015f565b846000806101000a81548173ffffffffffffffffffffffffffffffffffffffff021916908373ffffffffffffffffffffffffffffffffffffffff16021790555083600160006101000a81548173ffffffffffffffffffffffffffffffffffffffff021916908373ffffffffffffffffffffffffffffffffffffffff16021790555082600160146101000a81548162ffffff021916908360020b62ffffff16021790555081600160176101000a81548162ffffff021916908360020b62ffffff160217905550806001601a6101000a81548162ffffff021916908362ffffff1602179055505050505050610269565b60008151905061012f81610224565b92915050565b6000815190506101448161023b565b92915050565b60008151905061015981610252565b92915050565b600080600080600060a0868803121561017757600080fd5b600061018588828901610120565b955050602061019688828901610120565b94505060406101a788828901610135565b93505060606101b888828901610135565b92505060806101c98882890161014a565b9150509295509295909350565b60006101e1826101f5565b9050919050565b60008160020b9050919050565b600073ffffffffffffffffffffffffffffffffffffffff82169050919050565b600062ffffff82169050919050565b61022d816101d6565b811461023857600080fd5b50565b610244816101e8565b811461024f57600080fd5b50565b61025b81610215565b811461026657600080fd5b50565b6101e6806102786000396000f3fe608060405234801561001057600080fd5b506004361061002b5760003560e01c8063370158ea14610030575b600080fd5b610038610052565b60405161004995949392919061010f565b60405180910390f35b60008060008060008060009054906101000a900473ffffffffffffffffffffffffffffffffffffffff16600160009054906101000a900473ffffffffffffffffffffffffffffffffffffffff16600160149054906101000a900460020b600160179054906101000a900460020b6001601a9054906101000a900462ffffff16945094509450945094509091929394565b6100eb81610162565b82525050565b6100fa81610174565b82525050565b610109816101a1565b82525050565b600060a08201905061012460008301886100e2565b61013160208301876100e2565b61013e60408301866100f1565b61014b60608301856100f1565b6101586080830184610100565b9695505050505050565b600061016d82610181565b9050919050565b60008160020b9050919050565b600073ffffffffffffffffffffffffffffffffffffffff82169050919050565b600062ffffff8216905091905056fea2646970667358221220e05c05f1c5bce8fdca25ddddc6747a776e94a80da2f9bd3ff35b49620096b55264736f6c63430008040033",
  "linkReferences": {},
  "deployedLinkReferences": {}
}