{
  "_format": "hh-sol-artifact-1",
  "contractName": "MoodTracker",
  "sourceName": "contracts/MoodTracker.sol",
  "abi": [
    {
      "inputs": [],
      "stateMutability": "nonpayable",
      "type": "constructor"
    },
    {
      "inputs": [
        {
          "internalType": "uint256",
          "name": "_day",
          "type": "uint256"
        },
        {
          "internalType": "uint8",
          "name": "_emotionNumber",
          "type": "uint8"
        },
        {
          "internalType": "string[]",
          "name": "_emotion",
          "type": "string[]"
        },
        {
          "internalType": "string[]",
          "name": "_category",
          "type": "string[]"
        },
        {
          "internalType": "uint8",
          "name": "_activityNumber",
          "type": "uint8"
        },
        {
          "internalType": "string[]",
          "name": "_activity",
          "type": "string[]"
        },
        {
          "internalType": "uint8",
          "name": "_sleepNumber",
          "type": "uint8"
        },
        {
          "internalType": "uint8",
          "name": "_hour",
          "type": "uint8"
        },
        {
          "internalType": "uint8",
          "name": "_weatherNumber",
          "type": "uint8"
        },
        {
          "internalType": "string[]",
          "name": "_weather",
          "type": "string[]"
        },
        {
          "internalType": "string",
          "name": "_journal",
          "type": "string"
        }
      ],
      "name": "addMood",
      "outputs": [],
      "stateMutability": "nonpayable",
      "type": "function"
    },
    {
      "inputs": [
        {
          "internalType": "address",
          "name": "",
          "type": "address"
        }
      ],
      "name": "users",
      "outputs": [
        {
          "internalType": "uint256",
          "name": "day",
          "type": "uint256"
        }
      ],
      "stateMutability": "view",
      "type": "function"
    },
    {
      "inputs": [
        {
          "internalType": "uint256",
          "name": "_day",
          "type": "uint256"
        }
      ],
      "name": "viewMood",
      "outputs": [
        {
          "components": [
            {
              "internalType": "uint8",
              "name": "emotionNumber",
              "type": "uint8"
            },
            {
              "components": [
                {
                  "internalType": "string",
                  "name": "emotion",
                  "type": "string"
                },
                {
                  "internalType": "string",
                  "name": "category",
                  "type": "string"
                }
              ],
              "internalType": "struct MoodTracker.Emotion[]",
              "name": "emotion",
              "type": "tuple[]"
            },
            {
              "internalType": "uint8",
              "name": "activityNumber",
              "type": "uint8"
            },
            {
              "components": [
                {
                  "internalType": "string",
                  "name": "activity",
                  "type": "string"
                }
              ],
              "internalType": "struct MoodTracker.Activity[]",
              "name": "activity",
              "type": "tuple[]"
            },
            {
              "internalType": "uint8",
              "name": "sleepNumber",
              "type": "uint8"
            },
            {
              "components": [
                {
                  "internalType": "uint8",
                  "name": "hour",
                  "type": "uint8"
                }
              ],
              "internalType": "struct MoodTracker.Sleep[]",
              "name": "sleep",
              "type": "tuple[]"
            },
            {
              "internalType": "uint8",
              "name": "weatherNumber",
              "type": "uint8"
            },
            {
              "components": [
                {
                  "internalType": "string",
                  "name": "weather",
                  "type": "string"
                }
              ],
              "internalType": "struct MoodTracker.Weather[]",
              "name": "weather",
              "type": "tuple[]"
            },
            {
              "internalType": "string",
              "name": "journal",
              "type": "string"
            }
          ],
          "internalType": "struct MoodTracker.Mood",
          "name": "",
          "type": "tuple"
        }
      ],
      "stateMutability": "view",
      "type": "function"
    }
  ],
  "bytecode": "0x608060405234801561001057600080fd5b50336000806101000a81548173ffffffffffffffffffffffffffffffffffffffff021916908373ffffffffffffffffffffffffffffffffffffffff1602179055506118f9806100606000396000f3fe608060405234801561001057600080fd5b50600436106100415760003560e01c80632e61a32d14610046578063a87430ba14610062578063d05c840614610092575b600080fd5b610060600480360381019061005b9190610fa4565b6100c2565b005b61007c60048036038101906100779190610f52565b610764565b604051610089919061152b565b60405180910390f35b6100ac60048036038101906100a79190610f7b565b610782565b6040516100b99190611509565b60405180910390f35b6000600160003373ffffffffffffffffffffffffffffffffffffffff1673ffffffffffffffffffffffffffffffffffffffff16815260200190815260200160002090508b81600001819055508a816001018d8154811061014b577f4e487b7100000000000000000000000000000000000000000000000000000000600052603260045260246000fd5b906000526020600020906009020160000160006101000a81548160ff021916908360ff16021790555087816001018d815481106101b1577f4e487b7100000000000000000000000000000000000000000000000000000000600052603260045260246000fd5b906000526020600020906009020160020160006101000a81548160ff021916908360ff16021790555085816001018d81548110610217577f4e487b7100000000000000000000000000000000000000000000000000000000600052603260045260246000fd5b906000526020600020906009020160040160006101000a81548160ff021916908360ff16021790555083816001018d8154811061027d577f4e487b7100000000000000000000000000000000000000000000000000000000600052603260045260246000fd5b906000526020600020906009020160060160006101000a81548160ff021916908360ff16021790555060005b8b60ff168160ff16101561041757816001018d815481106102f3577f4e487b7100000000000000000000000000000000000000000000000000000000600052603260045260246000fd5b906000526020600020906009020160010160405180604001604052808d8460ff168151811061034b577f4e487b7100000000000000000000000000000000000000000000000000000000600052603260045260246000fd5b602002602001015181526020018c8460ff1681518110610394577f4e487b7100000000000000000000000000000000000000000000000000000000600052603260045260246000fd5b6020026020010151815250908060018154018082558091505060019003906000526020600020906002020160009091909190915060008201518160000190805190602001906103e4929190610d00565b506020820151816001019080519060200190610401929190610d00565b505050808061040f906117b6565b9150506102a9565b5060005b8860ff168160ff16101561051f57816001018d81548110610465577f4e487b7100000000000000000000000000000000000000000000000000000000600052603260045260246000fd5b906000526020600020906009020160030160405180602001604052808a8460ff16815181106104bd577f4e487b7100000000000000000000000000000000000000000000000000000000600052603260045260246000fd5b6020026020010151815250908060018154018082558091505060019003906000526020600020016000909190919091506000820151816000019080519060200190610509929190610d00565b5050508080610517906117b6565b91505061041b565b5060005b8660ff168160ff1610156105eb57816001018d8154811061056d577f4e487b7100000000000000000000000000000000000000000000000000000000600052603260045260246000fd5b906000526020600020906009020160050160405180602001604052808860ff168152509080600181540180825580915050600190039060005260206000200160009091909190915060008201518160000160006101000a81548160ff021916908360ff160217905550505080806105e3906117b6565b915050610523565b5060005b8460ff168160ff1610156106f357816001018d81548110610639577f4e487b7100000000000000000000000000000000000000000000000000000000600052603260045260246000fd5b90600052602060002090600902016007016040518060200160405280868460ff1681518110610691577f4e487b7100000000000000000000000000000000000000000000000000000000600052603260045260246000fd5b60200260200101518152509080600181540180825580915050600190039060005260206000200160009091909190915060008201518160000190805190602001906106dd929190610d00565b50505080806106eb906117b6565b9150506105ef565b5081816001018d81548110610731577f4e487b7100000000000000000000000000000000000000000000000000000000600052603260045260246000fd5b90600052602060002090600902016008019080519060200190610755929190610d00565b50505050505050505050505050565b60016020528060005260406000206000915090508060000154905081565b61078a610d86565b600160003373ffffffffffffffffffffffffffffffffffffffff1673ffffffffffffffffffffffffffffffffffffffff1681526020019081526020016000206001018281548110610804577f4e487b7100000000000000000000000000000000000000000000000000000000600052603260045260246000fd5b9060005260206000209060090201604051806101200160405290816000820160009054906101000a900460ff1660ff1660ff16815260200160018201805480602002602001604051908101604052809291908181526020016000905b828210156109b6578382906000526020600020906002020160405180604001604052908160008201805461089390611753565b80601f01602080910402602001604051908101604052809291908181526020018280546108bf90611753565b801561090c5780601f106108e15761010080835404028352916020019161090c565b820191906000526020600020905b8154815290600101906020018083116108ef57829003601f168201915b5050505050815260200160018201805461092590611753565b80601f016020809104026020016040519081016040528092919081815260200182805461095190611753565b801561099e5780601f106109735761010080835404028352916020019161099e565b820191906000526020600020905b81548152906001019060200180831161098157829003601f168201915b50505050508152505081526020019060010190610860565b5050505081526020016002820160009054906101000a900460ff1660ff1660ff16815260200160038201805480602002602001604051908101604052809291908181526020016000905b82821015610ac057838290600052602060002001604051806020016040529081600082018054610a2f90611753565b80601f0160208091040260200160405190810160405280929190818152602001828054610a5b90611753565b8015610aa85780601f10610a7d57610100808354040283529160200191610aa8565b820191906000526020600020905b815481529060010190602001808311610a8b57829003601f168201915b50505050508152505081526020019060010190610a00565b5050505081526020016004820160009054906101000a900460ff1660ff1660ff16815260200160058201805480602002602001604051908101604052809291908181526020016000905b82821015610b55578382906000526020600020016040518060200160405290816000820160009054906101000a900460ff1660ff1660ff168152505081526020019060010190610b0a565b5050505081526020016006820160009054906101000a900460ff1660ff1660ff16815260200160078201805480602002602001604051908101604052809291908181526020016000905b82821015610c5f57838290600052602060002001604051806020016040529081600082018054610bce90611753565b80601f0160208091040260200160405190810160405280929190818152602001828054610bfa90611753565b8015610c475780601f10610c1c57610100808354040283529160200191610c47565b820191906000526020600020905b815481529060010190602001808311610c2a57829003601f168201915b50505050508152505081526020019060010190610b9f565b505050508152602001600882018054610c7790611753565b80601f0160208091040260200160405190810160405280929190818152602001828054610ca390611753565b8015610cf05780601f10610cc557610100808354040283529160200191610cf0565b820191906000526020600020905b815481529060010190602001808311610cd357829003601f168201915b5050505050815250509050919050565b828054610d0c90611753565b90600052602060002090601f016020900481019282610d2e5760008555610d75565b82601f10610d4757805160ff1916838001178555610d75565b82800160010185558215610d75579182015b82811115610d74578251825591602001919060010190610d59565b5b509050610d829190610dde565b5090565b604051806101200160405280600060ff16815260200160608152602001600060ff16815260200160608152602001600060ff16815260200160608152602001600060ff16815260200160608152602001606081525090565b5b80821115610df7576000816000905550600101610ddf565b5090565b6000610e0e610e098461156b565b611546565b90508083825260208201905082856020860282011115610e2d57600080fd5b60005b85811015610e7757813567ffffffffffffffff811115610e4f57600080fd5b808601610e5c8982610efe565b85526020850194506020840193505050600181019050610e30565b5050509392505050565b6000610e94610e8f84611597565b611546565b905082815260208101848484011115610eac57600080fd5b610eb7848285611711565b509392505050565b600081359050610ece8161187e565b92915050565b600082601f830112610ee557600080fd5b8135610ef5848260208601610dfb565b91505092915050565b600082601f830112610f0f57600080fd5b8135610f1f848260208601610e81565b91505092915050565b600081359050610f3781611895565b92915050565b600081359050610f4c816118ac565b92915050565b600060208284031215610f6457600080fd5b6000610f7284828501610ebf565b91505092915050565b600060208284031215610f8d57600080fd5b6000610f9b84828501610f28565b91505092915050565b60008060008060008060008060008060006101608c8e031215610fc657600080fd5b6000610fd48e828f01610f28565b9b50506020610fe58e828f01610f3d565b9a505060408c013567ffffffffffffffff81111561100257600080fd5b61100e8e828f01610ed4565b99505060608c013567ffffffffffffffff81111561102b57600080fd5b6110378e828f01610ed4565b98505060806110488e828f01610f3d565b97505060a08c013567ffffffffffffffff81111561106557600080fd5b6110718e828f01610ed4565b96505060c06110828e828f01610f3d565b95505060e06110938e828f01610f3d565b9450506101006110a58e828f01610f3d565b9350506101208c013567ffffffffffffffff8111156110c357600080fd5b6110cf8e828f01610ed4565b9250506101408c013567ffffffffffffffff8111156110ed57600080fd5b6110f98e828f01610efe565b9150509295989b509295989b9093969950565b60006111188383611356565b905092915050565b600061112c8383611380565b905092915050565b600061114083836114a5565b60208301905092915050565b600061115883836114c1565b905092915050565b600061116b82611608565b6111758185611673565b935083602082028501611187856115c8565b8060005b858110156111c357848403895281516111a4858261110c565b94506111af8361163f565b925060208a0199505060018101905061118b565b50829750879550505050505092915050565b60006111e082611613565b6111ea8185611684565b9350836020820285016111fc856115d8565b8060005b8581101561123857848403895281516112198582611120565b94506112248361164c565b925060208a01995050600181019050611200565b50829750879550505050505092915050565b60006112558261161e565b61125f8185611695565b935061126a836115e8565b8060005b8381101561129b5781516112828882611134565b975061128d83611659565b92505060018101905061126e565b5085935050505092915050565b60006112b382611629565b6112bd81856116a6565b9350836020820285016112cf856115f8565b8060005b8581101561130b57848403895281516112ec858261114c565b94506112f783611666565b925060208a019950506001810190506112d3565b50829750879550505050505092915050565b600061132882611634565b61133281856116b7565b9350611342818560208601611720565b61134b8161186d565b840191505092915050565b60006020830160008301518482036000860152611373828261131d565b9150508091505092915050565b6000604083016000830151848203600086015261139d828261131d565b915050602083015184820360208601526113b7828261131d565b9150508091505092915050565b6000610120830160008301516113dd60008601826114fa565b50602083015184820360208601526113f582826111d5565b915050604083015161140a60408601826114fa565b50606083015184820360608601526114228282611160565b915050608083015161143760808601826114fa565b5060a083015184820360a086015261144f828261124a565b91505060c083015161146460c08601826114fa565b5060e083015184820360e086015261147c82826112a8565b915050610100830151848203610100860152611498828261131d565b9150508091505092915050565b6020820160008201516114bb60008501826114fa565b50505050565b600060208301600083015184820360008601526114de828261131d565b9150508091505092915050565b6114f4816116fa565b82525050565b61150381611704565b82525050565b6000602082019050818103600083015261152381846113c4565b905092915050565b600060208201905061154060008301846114eb565b92915050565b6000611550611561565b905061155c8282611785565b919050565b6000604051905090565b600067ffffffffffffffff8211156115865761158561183e565b5b602082029050602081019050919050565b600067ffffffffffffffff8211156115b2576115b161183e565b5b6115bb8261186d565b9050602081019050919050565b6000819050602082019050919050565b6000819050602082019050919050565b6000819050602082019050919050565b6000819050602082019050919050565b600081519050919050565b600081519050919050565b600081519050919050565b600081519050919050565b600081519050919050565b6000602082019050919050565b6000602082019050919050565b6000602082019050919050565b6000602082019050919050565b600082825260208201905092915050565b600082825260208201905092915050565b600082825260208201905092915050565b600082825260208201905092915050565b600082825260208201905092915050565b60006116d3826116da565b9050919050565b600073ffffffffffffffffffffffffffffffffffffffff82169050919050565b6000819050919050565b600060ff82169050919050565b82818337600083830152505050565b60005b8381101561173e578082015181840152602081019050611723565b8381111561174d576000848401525b50505050565b6000600282049050600182168061176b57607f821691505b6020821081141561177f5761177e61180f565b5b50919050565b61178e8261186d565b810181811067ffffffffffffffff821117156117ad576117ac61183e565b5b80604052505050565b60006117c182611704565b915060ff8214156117d5576117d46117e0565b5b600182019050919050565b7f4e487b7100000000000000000000000000000000000000000000000000000000600052601160045260246000fd5b7f4e487b7100000000000000000000000000000000000000000000000000000000600052602260045260246000fd5b7f4e487b7100000000000000000000000000000000000000000000000000000000600052604160045260246000fd5b6000601f19601f8301169050919050565b611887816116c8565b811461189257600080fd5b50565b61189e816116fa565b81146118a957600080fd5b50565b6118b581611704565b81146118c057600080fd5b5056fea2646970667358221220a1ca11e026e35c4e9186250e8927fac284eb6901a55fc665c65146355aae74a464736f6c63430008040033",
  "linkReferences": {},
  "deployedLinkReferences": {}
}