{
  "_format": "hh-sol-artifact-1",
  "contractName": "Position",
  "sourceName": "contracts/Position.sol",
  "abi": [
    {
      "inputs": [
        {
          "internalType": "bytes32",
          "name": "_poolID",
          "type": "bytes32"
        },
        {
          "internalType": "uint256",
          "name": "_tickLower",
          "type": "uint256"
        },
        {
          "internalType": "uint256",
          "name": "_tickUpper",
          "type": "uint256"
        },
        {
          "internalType": "uint24",
          "name": "_amount",
          "type": "uint24"
        }
      ],
      "stateMutability": "nonpayable",
      "type": "constructor"
    },
    {
      "inputs": [
        {
          "internalType": "uint256",
          "name": "tokenID",
          "type": "uint256"
        },
        {
          "internalType": "address",
          "name": "_owner",
          "type": "address"
        },
        {
          "internalType": "string",
          "name": "token0",
          "type": "string"
        },
        {
          "internalType": "string",
          "name": "token1",
          "type": "string"
        },
        {
          "internalType": "uint24",
          "name": "fee",
          "type": "uint24"
        }
      ],
      "name": "generateOnchainNFT",
      "outputs": [
        {
          "internalType": "string",
          "name": "",
          "type": "string"
        }
      ],
      "stateMutability": "view",
      "type": "function"
    },
    {
      "inputs": [],
      "name": "positionInfo",
      "outputs": [
        {
          "internalType": "bytes32",
          "name": "",
          "type": "bytes32"
        },
        {
          "internalType": "uint256",
          "name": "",
          "type": "uint256"
        },
        {
          "internalType": "uint256",
          "name": "",
          "type": "uint256"
        },
        {
          "internalType": "uint24",
          "name": "",
          "type": "uint24"
        }
      ],
      "stateMutability": "view",
      "type": "function"
    }
  ],
  "bytecode": "0x60806040523480156200001157600080fd5b5060405162001fd438038062001fd4833981810160405281019062000037919062000130565b83600081905550826001819055508160028190555080600360006101000a81548162ffffff021916908362ffffff16021790555050505050620001a2565b600080fd5b6000819050919050565b6200008f816200007a565b81146200009b57600080fd5b50565b600081519050620000af8162000084565b92915050565b6000819050919050565b620000ca81620000b5565b8114620000d657600080fd5b50565b600081519050620000ea81620000bf565b92915050565b600062ffffff82169050919050565b6200010a81620000f0565b81146200011657600080fd5b50565b6000815190506200012a81620000ff565b92915050565b600080600080608085870312156200014d576200014c62000075565b5b60006200015d878288016200009e565b94505060206200017087828801620000d9565b93505060406200018387828801620000d9565b9250506060620001968782880162000119565b91505092959194509250565b611e2280620001b26000396000f3fe608060405234801561001057600080fd5b50600436106100365760003560e01c806345d7e2bb1461003b5780637b05fe621461006b575b600080fd5b61005560048036038101906100509190610c9e565b61008c565b6040516100629190610dd9565b60405180910390f35b61007361011d565b6040516100839493929190610e32565b60405180910390f35b60606100f384846100a18562ffffff1661014c565b6100c26100ad8a61021a565b89896100bd8a62ffffff1661014c565b610247565b6100cb8b61014c565b6040516020016100df959493929190611113565b6040516020818303038152906040526102c3565b6040516020016101039190611202565b604051602081830303815290604052905095945050505050565b600080600080600054600154600254600360009054906101000a900462ffffff16935093509350935090919293565b60606000600161015b84610447565b01905060008167ffffffffffffffff81111561017a57610179610b38565b5b6040519080825280601f01601f1916602001820160405280156101ac5781602001600182028036833780820191505090505b509050600082602001820190505b60011561020f578080600190039150507f3031323334353637383961626364656600000000000000000000000000000000600a86061a8153600a858161020357610202611224565b5b049450600085036101ba575b819350505050919050565b60606102408273ffffffffffffffffffffffffffffffffffffffff16601460ff1661059a565b9050919050565b606083836102566000546107d6565b8761026260015461014c565b61026d60025461014c565b61028c600360009054906101000a900462ffffff1662ffffff1661014c565b8a8b8b8b6040516020016102aa9b9a999897969594939291906119bf565b6040516020818303038152906040529050949350505050565b606060008251036102e557604051806020016040528060008152509050610442565b6000604051806060016040528060408152602001611dad60409139905060006003600285516103149190611b63565b61031e9190611bb9565b600461032a9190611bea565b9050600060208261033b9190611b63565b67ffffffffffffffff81111561035457610353610b38565b5b6040519080825280601f01601f1916602001820160405280156103865781602001600182028036833780820191505090505b509050818152600183018586518101602084015b81831015610401576003830192508251603f8160121c1685015160f81b8252600182019150603f81600c1c1685015160f81b8252600182019150603f8160061c1685015160f81b8252600182019150603f811685015160f81b82526001820191505061039a565b60038951066001811461041b576002811461042b57610436565b613d3d60f01b6002830352610436565b603d60f81b60018303525b50505050508093505050505b919050565b600080600090507a184f03e93ff9f4daa797ed6e38ed64bf6a1f01000000000000000083106104a5577a184f03e93ff9f4daa797ed6e38ed64bf6a1f010000000000000000838161049b5761049a611224565b5b0492506040810190505b6d04ee2d6d415b85acef810000000083106104e2576d04ee2d6d415b85acef810000000083816104d8576104d7611224565b5b0492506020810190505b662386f26fc10000831061051157662386f26fc10000838161050757610506611224565b5b0492506010810190505b6305f5e100831061053a576305f5e10083816105305761052f611224565b5b0492506008810190505b612710831061055f57612710838161055557610554611224565b5b0492506004810190505b60648310610582576064838161057857610577611224565b5b0492506002810190505b600a8310610591576001810190505b80915050919050565b6060600060028360026105ad9190611bea565b6105b79190611b63565b67ffffffffffffffff8111156105d0576105cf610b38565b5b6040519080825280601f01601f1916602001820160405280156106025781602001600182028036833780820191505090505b5090507f30000000000000000000000000000000000000000000000000000000000000008160008151811061063a57610639611c44565b5b60200101907effffffffffffffffffffffffffffffffffffffffffffffffffffffffffffff1916908160001a9053507f78000000000000000000000000000000000000000000000000000000000000008160018151811061069e5761069d611c44565b5b60200101907effffffffffffffffffffffffffffffffffffffffffffffffffffffffffffff1916908160001a905350600060018460026106de9190611bea565b6106e89190611b63565b90505b6001811115610788577f3031323334353637383961626364656600000000000000000000000000000000600f86166010811061072a57610729611c44565b5b1a60f81b82828151811061074157610740611c44565b5b60200101907effffffffffffffffffffffffffffffffffffffffffffffffffffffffffffff1916908160001a905350600485901c94508061078190611c73565b90506106eb565b50600084146107cc576040517f08c379a00000000000000000000000000000000000000000000000000000000081526004016107c390611ce8565b60405180910390fd5b8091505092915050565b60606107e182610815565b6107ee608084901b610815565b6040516020016107ff929190611d75565b6040516020818303038152906040529050919050565b6000604077ffffffffffffffff0000000000000000000000000000000060001b836fffffffffffffffffffffffffffffffff191616901c7fffffffffffffffff00000000000000000000000000000000000000000000000060001b836fffffffffffffffffffffffffffffffff19161617905060207bffffffff000000000000000000000000ffffffff000000000000000060001b8216901c7fffffffff000000000000000000000000ffffffff00000000000000000000000060001b821617905060107dffff000000000000ffff000000000000ffff000000000000ffff0000000060001b8216901c7fffff000000000000ffff000000000000ffff000000000000ffff00000000000060001b821617905060087eff000000ff000000ff000000ff000000ff000000ff000000ff000000ff000060001b8216901c7fff000000ff000000ff000000ff000000ff000000ff000000ff000000ff00000060001b821617905060087f0f000f000f000f000f000f000f000f000f000f000f000f000f000f000f000f0060001b8216901c60047ff000f000f000f000f000f000f000f000f000f000f000f000f000f000f000f00060001b8316901c17905060077f0f0f0f0f0f0f0f0f0f0f0f0f0f0f0f0f0f0f0f0f0f0f0f0f0f0f0f0f0f0f0f0f60047f06060606060606060606060606060606060606060606060606060606060606068460001c610a259190611b63565b901c16610a329190611bea565b8160001c7f3030303030303030303030303030303030303030303030303030303030303030610a619190611b63565b610a6b9190611b63565b60001b9050919050565b6000604051905090565b600080fd5b600080fd5b6000819050919050565b610a9c81610a89565b8114610aa757600080fd5b50565b600081359050610ab981610a93565b92915050565b600073ffffffffffffffffffffffffffffffffffffffff82169050919050565b6000610aea82610abf565b9050919050565b610afa81610adf565b8114610b0557600080fd5b50565b600081359050610b1781610af1565b92915050565b600080fd5b600080fd5b6000601f19601f8301169050919050565b7f4e487b7100000000000000000000000000000000000000000000000000000000600052604160045260246000fd5b610b7082610b27565b810181811067ffffffffffffffff82111715610b8f57610b8e610b38565b5b80604052505050565b6000610ba2610a75565b9050610bae8282610b67565b919050565b600067ffffffffffffffff821115610bce57610bcd610b38565b5b610bd782610b27565b9050602081019050919050565b82818337600083830152505050565b6000610c06610c0184610bb3565b610b98565b905082815260208101848484011115610c2257610c21610b22565b5b610c2d848285610be4565b509392505050565b600082601f830112610c4a57610c49610b1d565b5b8135610c5a848260208601610bf3565b91505092915050565b600062ffffff82169050919050565b610c7b81610c63565b8114610c8657600080fd5b50565b600081359050610c9881610c72565b92915050565b600080600080600060a08688031215610cba57610cb9610a7f565b5b6000610cc888828901610aaa565b9550506020610cd988828901610b08565b945050604086013567ffffffffffffffff811115610cfa57610cf9610a84565b5b610d0688828901610c35565b935050606086013567ffffffffffffffff811115610d2757610d26610a84565b5b610d3388828901610c35565b9250506080610d4488828901610c89565b9150509295509295909350565b600081519050919050565b600082825260208201905092915050565b60005b83811015610d8b578082015181840152602081019050610d70565b83811115610d9a576000848401525b50505050565b6000610dab82610d51565b610db58185610d5c565b9350610dc5818560208601610d6d565b610dce81610b27565b840191505092915050565b60006020820190508181036000830152610df38184610da0565b905092915050565b6000819050919050565b610e0e81610dfb565b82525050565b610e1d81610a89565b82525050565b610e2c81610c63565b82525050565b6000608082019050610e476000830187610e05565b610e546020830186610e14565b610e616040830185610e14565b610e6e6060830184610e23565b95945050505050565b600081905092915050565b7f7b226e616d65223a220000000000000000000000000000000000000000000000600082015250565b6000610eb8600983610e77565b9150610ec382610e82565b600982019050919050565b6000610ed982610d51565b610ee38185610e77565b9350610ef3818560208601610d6d565b80840191505092915050565b7f2f00000000000000000000000000000000000000000000000000000000000000600082015250565b6000610f35600183610e77565b9150610f4082610eff565b600182019050919050565b7f202d200000000000000000000000000000000000000000000000000000000000600082015250565b6000610f81600383610e77565b9150610f8c82610f4b565b600382019050919050565b7f2070706d222c0000000000000000000000000000000000000000000000000000600082015250565b6000610fcd600683610e77565b9150610fd882610f97565b600682019050919050565b7f22696d6167655f64617461223a22000000000000000000000000000000000000600082015250565b6000611019600e83610e77565b915061102482610fe3565b600e82019050919050565b7f222c000000000000000000000000000000000000000000000000000000000000600082015250565b6000611065600283610e77565b91506110708261102f565b600282019050919050565b7f226465736372697074696f6e223a22506f736974696f6e204e46542023000000600082015250565b60006110b1601d83610e77565b91506110bc8261107b565b601d82019050919050565b7f227d000000000000000000000000000000000000000000000000000000000000600082015250565b60006110fd600283610e77565b9150611108826110c7565b600282019050919050565b600061111e82610eab565b915061112a8288610ece565b915061113582610f28565b91506111418287610ece565b915061114c82610f74565b91506111588286610ece565b915061116382610fc0565b915061116e8261100c565b915061117a8285610ece565b915061118582611058565b9150611190826110a4565b915061119c8284610ece565b91506111a7826110f0565b91508190509695505050505050565b7f646174613a6170706c69636174696f6e2f6a736f6e3b6261736536342c000000600082015250565b60006111ec601d83610e77565b91506111f7826111b6565b601d82019050919050565b600061120d826111df565b91506112198284610ece565b915081905092915050565b7f4e487b7100000000000000000000000000000000000000000000000000000000600052601260045260246000fd5b7f3c7376672076696577426f783d2730203020333030203530302720786d6c6e7360008201527f3d27687474703a2f2f7777772e77332e6f72672f323030302f737667273e0000602082015250565b60006112af603e83610e77565b91506112ba82611253565b603e82019050919050565b7f3c726563742077696474683d2733303027206865696768743d2735303027207260008201527f783d273430272072793d273430272066696c6c3d2723313232333437272f3e00602082015250565b6000611321603f83610e77565b915061132c826112c5565b603f82019050919050565b7f3c74657874207472616e73666f726d3d277472616e736c61746528353620343760008201527f3029272066696c6c3d27236666662720666f6e742d66616d696c793d27526f6260208201527f6f746f2720666f6e742d73697a653d273435273e3c747370616e3e0000000000604082015250565b60006113b9605b83610e77565b91506113c482611337565b605b82019050919050565b7f3c2f747370616e3e3c2f746578743e0000000000000000000000000000000000600082015250565b6000611405600f83610e77565b9150611410826113cf565b600f82019050919050565b7f3c74657874207472616e73666f726d3d27726f74617465283930202d3120313860008201527f29272066696c6c3d27236666662720666f6e742d66616d696c793d27526f626f60208201527f746f2720666f6e742d73697a653d273132273e3c747370616e3e000000000000604082015250565b600061149d605a83610e77565b91506114a88261141b565b605a82019050919050565b7f3c74657874207472616e73666f726d3d27726f74617465282d3930203334352060008201527f363029272066696c6c3d27236666662720666f6e742d66616d696c793d27526f60208201527f626f746f2720666f6e742d73697a653d273138273e3c747370616e3e00000000604082015250565b6000611535605c83610e77565b9150611540826114b3565b605c82019050919050565b7f3c74657874207472616e73666f726d3d277472616e736c61746528353020313160008201527f3629272066696c6c3d27236666662720666f6e742d66616d696c793d27526f6260208201527f6f746f2720666f6e742d73697a653d273230273e3c747370616e3e4d696e207460408201527f69636b3c2f747370616e3e3c747370616e20783d27302720793d273230273e4d60608201527f6178207469636b3c2f747370616e3e3c747370616e20783d27302720793d273460808201527f30273e416d6f756e743c2f747370616e3e3c2f746578743e000000000000000060a082015250565b600061163f60b883610e77565b915061164a8261154b565b60b882019050919050565b7f3c74657874207472616e73666f726d3d277472616e736c61746528313835203160008201527f313629272066696c6c3d27236666662720666f6e742d66616d696c793d27526f60208201527f626f746f2720666f6e742d73697a653d273230273e3c747370616e3e00000000604082015250565b60006116d7605c83610e77565b91506116e282611655565b605c82019050919050565b7f3c2f747370616e3e3c747370616e20783d27302720793d273230273e00000000600082015250565b6000611723601c83610e77565b915061172e826116ed565b601c82019050919050565b7f3c2f747370616e3e3c747370616e20783d27302720793d273430273e00000000600082015250565b600061176f601c83610e77565b915061177a82611739565b601c82019050919050565b7f2000000000000000000000000000000000000000000000000000000000000000600082015250565b60006117bb600183610e77565b91506117c682611785565b600182019050919050565b7f3c74657874207472616e73666f726d3d277472616e736c61746528353020323460008201527f3629272066696c6c3d27236666662720666f6e742d66616d696c793d27526f6260208201527f6f746f2720666f6e742d73697a653d273230273e3c747370616e3e422e20746f60408201527f6b656e3c2f747370616e3e3c747370616e20783d27302720793d273230273e5160608201527f2e20746f6b656e3c2f747370616e3e3c747370616e20783d27302720793d273460808201527f30273e46656520746965723c2f747370616e3e3c2f746578743e00000000000060a082015250565b60006118c560ba83610e77565b91506118d0826117d1565b60ba82019050919050565b7f3c74657874207472616e73666f726d3d277472616e736c61746528313835203260008201527f343629272066696c6c3d27236666662720666f6e742d66616d696c793d27526f60208201527f626f746f2720666f6e742d73697a653d273230273e3c747370616e3e00000000604082015250565b600061195d605c83610e77565b9150611968826118db565b605c82019050919050565b7f2070706d3c2f747370616e3e3c2f746578743e3c2f7376673e00000000000000600082015250565b60006119a9601983610e77565b91506119b482611973565b601982019050919050565b60006119ca826112a2565b91506119d582611314565b91506119e0826113ac565b91506119ec828e610ece565b91506119f782610f28565b9150611a03828d610ece565b9150611a0e826113f8565b9150611a1982611490565b9150611a25828c610ece565b9150611a30826113f8565b9150611a3b82611528565b9150611a47828b610ece565b9150611a52826113f8565b9150611a5d82611632565b9150611a68826116ca565b9150611a74828a610ece565b9150611a7f82611716565b9150611a8b8289610ece565b9150611a9682611762565b9150611aa28288610ece565b9150611aad826117ae565b9150611ab98287610ece565b9150611ac4826113f8565b9150611acf826118b8565b9150611ada82611950565b9150611ae68286610ece565b9150611af182611716565b9150611afd8285610ece565b9150611b0882611762565b9150611b148284610ece565b9150611b1f8261199c565b91508190509c9b505050505050505050505050565b7f4e487b7100000000000000000000000000000000000000000000000000000000600052601160045260246000fd5b6000611b6e82610a89565b9150611b7983610a89565b9250827fffffffffffffffffffffffffffffffffffffffffffffffffffffffffffffffff03821115611bae57611bad611b34565b5b828201905092915050565b6000611bc482610a89565b9150611bcf83610a89565b925082611bdf57611bde611224565b5b828204905092915050565b6000611bf582610a89565b9150611c0083610a89565b9250817fffffffffffffffffffffffffffffffffffffffffffffffffffffffffffffffff0483118215151615611c3957611c38611b34565b5b828202905092915050565b7f4e487b7100000000000000000000000000000000000000000000000000000000600052603260045260246000fd5b6000611c7e82610a89565b915060008203611c9157611c90611b34565b5b600182039050919050565b7f537472696e67733a20686578206c656e67746820696e73756666696369656e74600082015250565b6000611cd2602083610d5c565b9150611cdd82611c9c565b602082019050919050565b60006020820190508181036000830152611d0181611cc5565b9050919050565b7f3078000000000000000000000000000000000000000000000000000000000000600082015250565b6000611d3e600283610e77565b9150611d4982611d08565b600282019050919050565b6000819050919050565b611d6f611d6a82610dfb565b611d54565b82525050565b6000611d8082611d31565b9150611d8c8285611d5e565b602082019150611d9c8284611d5e565b602082019150819050939250505056fe4142434445464748494a4b4c4d4e4f505152535455565758595a6162636465666768696a6b6c6d6e6f707172737475767778797a303132333435363738392b2fa2646970667358221220c4b6d4f7cc1cbb52e7d35db238fde6a45594ca5187c86c66adcbfa325af7520664736f6c634300080d0033",
  "linkReferences": {},
  "deployedLinkReferences": {}
}