{
  "_format": "hh-sol-artifact-1",
  "contractName": "Position",
  "sourceName": "contracts/Position.sol",
  "abi": [
    {
      "inputs": [
        {
          "internalType": "bytes32",
          "name": "_poolId",
          "type": "bytes32"
        },
        {
          "internalType": "int24",
          "name": "_tickLower",
          "type": "int24"
        },
        {
          "internalType": "int24",
          "name": "_tickUpper",
          "type": "int24"
        },
        {
          "internalType": "uint24",
          "name": "_price",
          "type": "uint24"
        }
      ],
      "stateMutability": "nonpayable",
      "type": "constructor"
    },
    {
      "inputs": [],
      "name": "positionInfo",
      "outputs": [
        {
          "internalType": "bytes32",
          "name": "",
          "type": "bytes32"
        },
        {
          "internalType": "int24",
          "name": "",
          "type": "int24"
        },
        {
          "internalType": "int24",
          "name": "",
          "type": "int24"
        },
        {
          "internalType": "uint24",
          "name": "",
          "type": "uint24"
        }
      ],
      "stateMutability": "view",
      "type": "function"
    }
  ],
  "bytecode": "0x608060405234801561001057600080fd5b50604051610329380380610329833981810160405281019061003291906100e4565b82600160006101000a81548162ffffff021916908360020b62ffffff16021790555081600160036101000a81548162ffffff021916908360020b62ffffff1602179055508360008190555080600160066101000a81548162ffffff021916908362ffffff160217905550505050506101b2565b6000815190506100b48161016d565b92915050565b6000815190506100c981610184565b92915050565b6000815190506100de8161019b565b92915050565b600080600080608085870312156100fa57600080fd5b6000610108878288016100a5565b9450506020610119878288016100ba565b935050604061012a878288016100ba565b925050606061013b878288016100cf565b91505092959194509250565b6000819050919050565b60008160020b9050919050565b600062ffffff82169050919050565b61017681610147565b811461018157600080fd5b50565b61018d81610151565b811461019857600080fd5b50565b6101a48161015e565b81146101af57600080fd5b50565b610168806101c16000396000f3fe608060405234801561001057600080fd5b506004361061002b5760003560e01c80637b05fe6214610030575b600080fd5b610038610051565b60405161004894939291906100c7565b60405180910390f35b600080600080600054600160009054906101000a900460020b600160039054906101000a900460020b600160069054906101000a900462ffffff16935093509350935090919293565b6100a38161010c565b82525050565b6100b281610116565b82525050565b6100c181610123565b82525050565b60006080820190506100dc600083018761009a565b6100e960208301866100a9565b6100f660408301856100a9565b61010360608301846100b8565b95945050505050565b6000819050919050565b60008160020b9050919050565b600062ffffff8216905091905056fea2646970667358221220cc14c65858692338853edfe6828064c91e73a16780166cf59428ad804b1a61cc64736f6c63430008040033",
  "linkReferences": {},
  "deployedLinkReferences": {}
}