{
  "_format": "hh-sol-artifact-1",
  "contractName": "PositionNFT",
  "sourceName": "contracts/PositionNFT.sol",
  "abi": [
    {
      "inputs": [],
      "stateMutability": "nonpayable",
      "type": "constructor"
    },
    {
      "anonymous": false,
      "inputs": [
        {
          "indexed": true,
          "internalType": "address",
          "name": "owner",
          "type": "address"
        },
        {
          "indexed": true,
          "internalType": "address",
          "name": "approved",
          "type": "address"
        },
        {
          "indexed": true,
          "internalType": "uint256",
          "name": "tokenId",
          "type": "uint256"
        }
      ],
      "name": "Approval",
      "type": "event"
    },
    {
      "anonymous": false,
      "inputs": [
        {
          "indexed": true,
          "internalType": "address",
          "name": "owner",
          "type": "address"
        },
        {
          "indexed": true,
          "internalType": "address",
          "name": "operator",
          "type": "address"
        },
        {
          "indexed": false,
          "internalType": "bool",
          "name": "approved",
          "type": "bool"
        }
      ],
      "name": "ApprovalForAll",
      "type": "event"
    },
    {
      "anonymous": false,
      "inputs": [
        {
          "indexed": true,
          "internalType": "address",
          "name": "from",
          "type": "address"
        },
        {
          "indexed": true,
          "internalType": "address",
          "name": "to",
          "type": "address"
        },
        {
          "indexed": true,
          "internalType": "uint256",
          "name": "tokenId",
          "type": "uint256"
        }
      ],
      "name": "Transfer",
      "type": "event"
    },
    {
      "inputs": [
        {
          "internalType": "address",
          "name": "to",
          "type": "address"
        },
        {
          "internalType": "uint256",
          "name": "tokenId",
          "type": "uint256"
        }
      ],
      "name": "approve",
      "outputs": [],
      "stateMutability": "nonpayable",
      "type": "function"
    },
    {
      "inputs": [
        {
          "internalType": "address",
          "name": "owner",
          "type": "address"
        }
      ],
      "name": "balanceOf",
      "outputs": [
        {
          "internalType": "uint256",
          "name": "",
          "type": "uint256"
        }
      ],
      "stateMutability": "view",
      "type": "function"
    },
    {
      "inputs": [
        {
          "internalType": "uint256",
          "name": "tokenId",
          "type": "uint256"
        }
      ],
      "name": "getApproved",
      "outputs": [
        {
          "internalType": "address",
          "name": "",
          "type": "address"
        }
      ],
      "stateMutability": "view",
      "type": "function"
    },
    {
      "inputs": [
        {
          "internalType": "address",
          "name": "owner",
          "type": "address"
        },
        {
          "internalType": "address",
          "name": "operator",
          "type": "address"
        }
      ],
      "name": "isApprovedForAll",
      "outputs": [
        {
          "internalType": "bool",
          "name": "",
          "type": "bool"
        }
      ],
      "stateMutability": "view",
      "type": "function"
    },
    {
      "inputs": [
        {
          "internalType": "address",
          "name": "_pool",
          "type": "address"
        },
        {
          "internalType": "address",
          "name": "_owner",
          "type": "address"
        },
        {
          "internalType": "int24",
          "name": "_tickLower",
          "type": "int24"
        },
        {
          "internalType": "int24",
          "name": "_tickUpper",
          "type": "int24"
        },
        {
          "internalType": "uint24",
          "name": "_fee",
          "type": "uint24"
        }
      ],
      "name": "mint",
      "outputs": [
        {
          "internalType": "uint256",
          "name": "",
          "type": "uint256"
        }
      ],
      "stateMutability": "nonpayable",
      "type": "function"
    },
    {
      "inputs": [],
      "name": "name",
      "outputs": [
        {
          "internalType": "string",
          "name": "",
          "type": "string"
        }
      ],
      "stateMutability": "view",
      "type": "function"
    },
    {
      "inputs": [],
      "name": "nextTokenId",
      "outputs": [
        {
          "internalType": "uint256",
          "name": "",
          "type": "uint256"
        }
      ],
      "stateMutability": "view",
      "type": "function"
    },
    {
      "inputs": [
        {
          "internalType": "uint256",
          "name": "tokenId",
          "type": "uint256"
        }
      ],
      "name": "ownerOf",
      "outputs": [
        {
          "internalType": "address",
          "name": "",
          "type": "address"
        }
      ],
      "stateMutability": "view",
      "type": "function"
    },
    {
      "inputs": [
        {
          "internalType": "uint256",
          "name": "tokenId",
          "type": "uint256"
        }
      ],
      "name": "positionInfo",
      "outputs": [
        {
          "internalType": "address",
          "name": "",
          "type": "address"
        },
        {
          "internalType": "address",
          "name": "",
          "type": "address"
        },
        {
          "internalType": "int24",
          "name": "",
          "type": "int24"
        },
        {
          "internalType": "int24",
          "name": "",
          "type": "int24"
        },
        {
          "internalType": "uint24",
          "name": "",
          "type": "uint24"
        }
      ],
      "stateMutability": "view",
      "type": "function"
    },
    {
      "inputs": [
        {
          "internalType": "uint256",
          "name": "",
          "type": "uint256"
        }
      ],
      "name": "positions",
      "outputs": [
        {
          "internalType": "contract Position",
          "name": "",
          "type": "address"
        }
      ],
      "stateMutability": "view",
      "type": "function"
    },
    {
      "inputs": [
        {
          "internalType": "address",
          "name": "from",
          "type": "address"
        },
        {
          "internalType": "address",
          "name": "to",
          "type": "address"
        },
        {
          "internalType": "uint256",
          "name": "tokenId",
          "type": "uint256"
        }
      ],
      "name": "safeTransferFrom",
      "outputs": [],
      "stateMutability": "nonpayable",
      "type": "function"
    },
    {
      "inputs": [
        {
          "internalType": "address",
          "name": "from",
          "type": "address"
        },
        {
          "internalType": "address",
          "name": "to",
          "type": "address"
        },
        {
          "internalType": "uint256",
          "name": "tokenId",
          "type": "uint256"
        },
        {
          "internalType": "bytes",
          "name": "data",
          "type": "bytes"
        }
      ],
      "name": "safeTransferFrom",
      "outputs": [],
      "stateMutability": "nonpayable",
      "type": "function"
    },
    {
      "inputs": [
        {
          "internalType": "address",
          "name": "operator",
          "type": "address"
        },
        {
          "internalType": "bool",
          "name": "approved",
          "type": "bool"
        }
      ],
      "name": "setApprovalForAll",
      "outputs": [],
      "stateMutability": "nonpayable",
      "type": "function"
    },
    {
      "inputs": [
        {
          "internalType": "bytes4",
          "name": "interfaceId",
          "type": "bytes4"
        }
      ],
      "name": "supportsInterface",
      "outputs": [
        {
          "internalType": "bool",
          "name": "",
          "type": "bool"
        }
      ],
      "stateMutability": "view",
      "type": "function"
    },
    {
      "inputs": [],
      "name": "symbol",
      "outputs": [
        {
          "internalType": "string",
          "name": "",
          "type": "string"
        }
      ],
      "stateMutability": "view",
      "type": "function"
    },
    {
      "inputs": [
        {
          "internalType": "uint256",
          "name": "tokenId",
          "type": "uint256"
        }
      ],
      "name": "tokenURI",
      "outputs": [
        {
          "internalType": "string",
          "name": "",
          "type": "string"
        }
      ],
      "stateMutability": "pure",
      "type": "function"
    },
    {
      "inputs": [
        {
          "internalType": "address",
          "name": "from",
          "type": "address"
        },
        {
          "internalType": "address",
          "name": "to",
          "type": "address"
        },
        {
          "internalType": "uint256",
          "name": "tokenId",
          "type": "uint256"
        }
      ],
      "name": "transferFrom",
      "outputs": [],
      "stateMutability": "nonpayable",
      "type": "function"
    }
  ],
  "bytecode": "0x608060405260006007553480156200001657600080fd5b506040518060400160405280600b81526020017f506f736974696f6e4e46540000000000000000000000000000000000000000008152506040518060400160405280600481526020017f504e46540000000000000000000000000000000000000000000000000000000081525081600090805190602001906200009b929190620000bd565b508060019080519060200190620000b4929190620000bd565b505050620001d2565b828054620000cb906200016d565b90600052602060002090601f016020900481019282620000ef57600085556200013b565b82601f106200010a57805160ff19168380011785556200013b565b828001600101855582156200013b579182015b828111156200013a5782518255916020019190600101906200011d565b5b5090506200014a91906200014e565b5090565b5b80821115620001695760008160009055506001016200014f565b5090565b600060028204905060018216806200018657607f821691505b602082108114156200019d576200019c620001a3565b5b50919050565b7f4e487b7100000000000000000000000000000000000000000000000000000000600052602260045260246000fd5b612feb80620001e26000396000f3fe60806040523480156200001157600080fd5b5060043610620001245760003560e01c806370a0823111620000b157806399fbab88116200007b57806399fbab881462000337578063a22cb465146200036d578063b88d4fde146200038d578063c87b56dd14620003ad578063e985e9c514620003e35762000124565b806370a08231146200028357806375794a3c14620002b957806389097a6a14620002db57806395d89b4114620003155762000124565b806323b872dd11620000f357806323b872dd14620001d757806336fb432f14620001f757806342842e0e146200022d5780636352211e146200024d5762000124565b806301ffc9a7146200012957806306fdde03146200015f578063081812fc1462000181578063095ea7b314620001b7575b600080fd5b62000147600480360381019062000141919062001e17565b62000419565b6040516200015691906200227c565b60405180910390f35b62000169620004ff565b604051620001789190620022b6565b60405180910390f35b6200019f600480360381019062000199919062001e6f565b62000599565b604051620001ae9190620021ae565b60405180910390f35b620001d56004803603810190620001cf919062001dd6565b620005e1565b005b620001f56004803603810190620001ef919062001cba565b6200070a565b005b6200021560048036038101906200020f919062001bb6565b62000773565b60405162000224919062002450565b60405180910390f35b6200024b600480360381019062000245919062001cba565b6200083d565b005b6200026b600480360381019062000265919062001e6f565b6200085f565b6040516200027a9190620021ae565b60405180910390f35b620002a160048036038101906200029b919062001b49565b620008eb565b604051620002b0919062002450565b60405180910390f35b620002c3620009a6565b604051620002d2919062002450565b60405180910390f35b620002f96004803603810190620002f3919062001e6f565b620009ac565b6040516200030c959493929190620021cb565b60405180910390f35b6200031f62000a7c565b6040516200032e9190620022b6565b60405180910390f35b6200035560048036038101906200034f919062001e6f565b62000b16565b60405162000364919062002299565b60405180910390f35b6200038b600480360381019062000385919062001d95565b62000b49565b005b620003ab6004803603810190620003a5919062001d10565b62000b63565b005b620003cb6004803603810190620003c5919062001e6f565b62000bce565b604051620003da9190620022b6565b60405180910390f35b620004016004803603810190620003fb919062001b75565b62000c04565b6040516200041091906200227c565b60405180910390f35b60007f80ac58cd000000000000000000000000000000000000000000000000000000007bffffffffffffffffffffffffffffffffffffffffffffffffffffffff1916827bffffffffffffffffffffffffffffffffffffffffffffffffffffffff19161480620004e557507f5b5e139f000000000000000000000000000000000000000000000000000000007bffffffffffffffffffffffffffffffffffffffffffffffffffffffff1916827bffffffffffffffffffffffffffffffffffffffffffffffffffffffff1916145b80620004f85750620004f78262000c98565b5b9050919050565b6060600080546200051090620026a6565b80601f01602080910402602001604051908101604052809291908181526020018280546200053e90620026a6565b80156200058f5780601f1062000563576101008083540402835291602001916200058f565b820191906000526020600020905b8154815290600101906020018083116200057157829003601f168201915b5050505050905090565b6000620005a68262000d02565b6004600083815260200190815260200160002060009054906101000a900473ffffffffffffffffffffffffffffffffffffffff169050919050565b6000620005ee826200085f565b90508073ffffffffffffffffffffffffffffffffffffffff168373ffffffffffffffffffffffffffffffffffffffff16141562000662576040517f08c379a000000000000000000000000000000000000000000000000000000000815260040162000659906200240c565b60405180910390fd5b8073ffffffffffffffffffffffffffffffffffffffff166200068362000d52565b73ffffffffffffffffffffffffffffffffffffffff161480620006b75750620006b681620006b062000d52565b62000c04565b5b620006f9576040517f08c379a0000000000000000000000000000000000000000000000000000000008152600401620006f0906200242e565b60405180910390fd5b62000705838362000d5a565b505050565b6200071f6200071862000d52565b8262000e15565b62000761576040517f08c379a00000000000000000000000000000000000000000000000000000000081526004016200075890620022da565b60405180910390fd5b6200076e83838362000eb2565b505050565b600080600754905060016007546200078c91906200250f565b6007819055506200079e8682620011bd565b8686868686604051620007b190620019e3565b620007c1959493929190620021cb565b604051809103906000f080158015620007de573d6000803e3d6000fd5b506008600083815260200190815260200160002060006101000a81548173ffffffffffffffffffffffffffffffffffffffff021916908373ffffffffffffffffffffffffffffffffffffffff1602179055508091505095945050505050565b6200085a8383836040518060200160405280600081525062000b63565b505050565b6000806200086d83620011dd565b9050600073ffffffffffffffffffffffffffffffffffffffff168173ffffffffffffffffffffffffffffffffffffffff161415620008e2576040517f08c379a0000000000000000000000000000000000000000000000000000000008152600401620008d990620023ea565b60405180910390fd5b80915050919050565b60008073ffffffffffffffffffffffffffffffffffffffff168273ffffffffffffffffffffffffffffffffffffffff1614156200095f576040517f08c379a00000000000000000000000000000000000000000000000000000000081526004016200095690620023a6565b60405180910390fd5b600360008373ffffffffffffffffffffffffffffffffffffffff1673ffffffffffffffffffffffffffffffffffffffff168152602001908152602001600020549050919050565b60075481565b60008060008060006008600087815260200190815260200160002060009054906101000a900473ffffffffffffffffffffffffffffffffffffffff1673ffffffffffffffffffffffffffffffffffffffff1663370158ea6040518163ffffffff1660e01b815260040160a06040518083038186803b15801562000a2e57600080fd5b505afa15801562000a43573d6000803e3d6000fd5b505050506040513d601f19601f8201168201806040525081019062000a69919062001c38565b9450945094509450945091939590929450565b60606001805462000a8d90620026a6565b80601f016020809104026020016040519081016040528092919081815260200182805462000abb90620026a6565b801562000b0c5780601f1062000ae05761010080835404028352916020019162000b0c565b820191906000526020600020905b81548152906001019060200180831162000aee57829003601f168201915b5050505050905090565b60086020528060005260406000206000915054906101000a900473ffffffffffffffffffffffffffffffffffffffff1681565b62000b5f62000b5762000d52565b83836200121a565b5050565b62000b7862000b7162000d52565b8362000e15565b62000bba576040517f08c379a000000000000000000000000000000000000000000000000000000000815260040162000bb190620022da565b60405180910390fd5b62000bc8848484846200138c565b50505050565b606062000bda620013ef565b8260405160200162000bee92919062002182565b6040516020818303038152906040529050919050565b6000600560008473ffffffffffffffffffffffffffffffffffffffff1673ffffffffffffffffffffffffffffffffffffffff16815260200190815260200160002060008373ffffffffffffffffffffffffffffffffffffffff1673ffffffffffffffffffffffffffffffffffffffff16815260200190815260200160002060009054906101000a900460ff16905092915050565b60007f01ffc9a7000000000000000000000000000000000000000000000000000000007bffffffffffffffffffffffffffffffffffffffffffffffffffffffff1916827bffffffffffffffffffffffffffffffffffffffffffffffffffffffff1916149050919050565b62000d0d8162001410565b62000d4f576040517f08c379a000000000000000000000000000000000000000000000000000000000815260040162000d4690620023ea565b60405180910390fd5b50565b600033905090565b816004600083815260200190815260200160002060006101000a81548173ffffffffffffffffffffffffffffffffffffffff021916908373ffffffffffffffffffffffffffffffffffffffff160217905550808273ffffffffffffffffffffffffffffffffffffffff1662000dcf836200085f565b73ffffffffffffffffffffffffffffffffffffffff167f8c5be1e5ebec7d5bd14f71427d1e84f3dd0314c0f7b2291e5b200ac8c7c3b92560405160405180910390a45050565b60008062000e23836200085f565b90508073ffffffffffffffffffffffffffffffffffffffff168473ffffffffffffffffffffffffffffffffffffffff16148062000e68575062000e67818562000c04565b5b8062000ea957508373ffffffffffffffffffffffffffffffffffffffff1662000e918462000599565b73ffffffffffffffffffffffffffffffffffffffff16145b91505092915050565b8273ffffffffffffffffffffffffffffffffffffffff1662000ed4826200085f565b73ffffffffffffffffffffffffffffffffffffffff161462000f2d576040517f08c379a000000000000000000000000000000000000000000000000000000000815260040162000f24906200231e565b60405180910390fd5b600073ffffffffffffffffffffffffffffffffffffffff168273ffffffffffffffffffffffffffffffffffffffff16141562000fa0576040517f08c379a000000000000000000000000000000000000000000000000000000000815260040162000f979062002362565b60405180910390fd5b62000faf838383600162001453565b8273ffffffffffffffffffffffffffffffffffffffff1662000fd1826200085f565b73ffffffffffffffffffffffffffffffffffffffff16146200102a576040517f08c379a000000000000000000000000000000000000000000000000000000000815260040162001021906200231e565b60405180910390fd5b6004600082815260200190815260200160002060006101000a81549073ffffffffffffffffffffffffffffffffffffffff02191690556001600360008573ffffffffffffffffffffffffffffffffffffffff1673ffffffffffffffffffffffffffffffffffffffff168152602001908152602001600020600082825403925050819055506001600360008473ffffffffffffffffffffffffffffffffffffffff1673ffffffffffffffffffffffffffffffffffffffff16815260200190815260200160002060008282540192505081905550816002600083815260200190815260200160002060006101000a81548173ffffffffffffffffffffffffffffffffffffffff021916908373ffffffffffffffffffffffffffffffffffffffff160217905550808273ffffffffffffffffffffffffffffffffffffffff168473ffffffffffffffffffffffffffffffffffffffff167fddf252ad1be2c89b69c2b068fc378daa952ba7f163c4a11628f55a4df523b3ef60405160405180910390a4620011b8838383600162001580565b505050565b620011d982826040518060200160405280600081525062001586565b5050565b60006002600083815260200190815260200160002060009054906101000a900473ffffffffffffffffffffffffffffffffffffffff169050919050565b8173ffffffffffffffffffffffffffffffffffffffff168373ffffffffffffffffffffffffffffffffffffffff1614156200128c576040517f08c379a0000000000000000000000000000000000000000000000000000000008152600401620012839062002384565b60405180910390fd5b80600560008573ffffffffffffffffffffffffffffffffffffffff1673ffffffffffffffffffffffffffffffffffffffff16815260200190815260200160002060008473ffffffffffffffffffffffffffffffffffffffff1673ffffffffffffffffffffffffffffffffffffffff16815260200190815260200160002060006101000a81548160ff0219169083151502179055508173ffffffffffffffffffffffffffffffffffffffff168373ffffffffffffffffffffffffffffffffffffffff167f17307eab39ab6107e8899845ad3d59bd9653f200f220920489ca2b5937696c31836040516200137f91906200227c565b60405180910390a3505050565b6200139984848462000eb2565b620013a784848484620015e8565b620013e9576040517f08c379a0000000000000000000000000000000000000000000000000000000008152600401620013e090620022fc565b60405180910390fd5b50505050565b606060405180606001604052806034815260200162002f8260349139905090565b60008073ffffffffffffffffffffffffffffffffffffffff166200143483620011dd565b73ffffffffffffffffffffffffffffffffffffffff1614159050919050565b60018111156200157a57600073ffffffffffffffffffffffffffffffffffffffff168473ffffffffffffffffffffffffffffffffffffffff1614620014eb5780600360008673ffffffffffffffffffffffffffffffffffffffff1673ffffffffffffffffffffffffffffffffffffffff1681526020019081526020016000206000828254620014e391906200256c565b925050819055505b600073ffffffffffffffffffffffffffffffffffffffff168373ffffffffffffffffffffffffffffffffffffffff1614620015795780600360008573ffffffffffffffffffffffffffffffffffffffff1673ffffffffffffffffffffffffffffffffffffffff16815260200190815260200160002060008282546200157191906200250f565b925050819055505b5b50505050565b50505050565b62001592838362001791565b620015a16000848484620015e8565b620015e3576040517f08c379a0000000000000000000000000000000000000000000000000000000008152600401620015da90620022fc565b60405180910390fd5b505050565b60006200160b8473ffffffffffffffffffffffffffffffffffffffff16620019c0565b1562001784578373ffffffffffffffffffffffffffffffffffffffff1663150b7a026200163762000d52565b8786866040518563ffffffff1660e01b81526004016200165b949392919062002228565b602060405180830381600087803b1580156200167657600080fd5b505af1925050508015620016aa57506040513d601f19601f82011682018060405250810190620016a7919062001e43565b60015b62001733573d8060008114620016dd576040519150601f19603f3d011682016040523d82523d6000602084013e620016e2565b606091505b506000815114156200172b576040517f08c379a00000000000000000000000000000000000000000000000000000000081526004016200172290620022fc565b60405180910390fd5b805181602001fd5b63150b7a0260e01b7bffffffffffffffffffffffffffffffffffffffffffffffffffffffff1916817bffffffffffffffffffffffffffffffffffffffffffffffffffffffff19161491505062001789565b600190505b949350505050565b600073ffffffffffffffffffffffffffffffffffffffff168273ffffffffffffffffffffffffffffffffffffffff16141562001804576040517f08c379a0000000000000000000000000000000000000000000000000000000008152600401620017fb90620023c8565b60405180910390fd5b6200180f8162001410565b1562001852576040517f08c379a0000000000000000000000000000000000000000000000000000000008152600401620018499062002340565b60405180910390fd5b6200186260008383600162001453565b6200186d8162001410565b15620018b0576040517f08c379a0000000000000000000000000000000000000000000000000000000008152600401620018a79062002340565b60405180910390fd5b6001600360008473ffffffffffffffffffffffffffffffffffffffff1673ffffffffffffffffffffffffffffffffffffffff16815260200190815260200160002060008282540192505081905550816002600083815260200190815260200160002060006101000a81548173ffffffffffffffffffffffffffffffffffffffff021916908373ffffffffffffffffffffffffffffffffffffffff160217905550808273ffffffffffffffffffffffffffffffffffffffff16600073ffffffffffffffffffffffffffffffffffffffff167fddf252ad1be2c89b69c2b068fc378daa952ba7f163c4a11628f55a4df523b3ef60405160405180910390a4620019bc60008383600162001580565b5050565b6000808273ffffffffffffffffffffffffffffffffffffffff163b119050919050565b61045e8062002b2483390190565b600062001a0862001a028462002496565b6200246d565b90508281526020810184848401111562001a2157600080fd5b62001a2e84828562002661565b509392505050565b60008135905062001a478162002a87565b92915050565b60008151905062001a5e8162002a87565b92915050565b60008135905062001a758162002aa1565b92915050565b60008135905062001a8c8162002abb565b92915050565b60008151905062001aa38162002abb565b92915050565b600082601f83011262001abb57600080fd5b813562001acd848260208601620019f1565b91505092915050565b60008135905062001ae78162002ad5565b92915050565b60008151905062001afe8162002ad5565b92915050565b60008135905062001b158162002aef565b92915050565b60008151905062001b2c8162002aef565b92915050565b60008135905062001b438162002b09565b92915050565b60006020828403121562001b5c57600080fd5b600062001b6c8482850162001a36565b91505092915050565b6000806040838503121562001b8957600080fd5b600062001b998582860162001a36565b925050602062001bac8582860162001a36565b9150509250929050565b600080600080600060a0868803121562001bcf57600080fd5b600062001bdf8882890162001a36565b955050602062001bf28882890162001a36565b945050604062001c058882890162001ad6565b935050606062001c188882890162001ad6565b925050608062001c2b8882890162001b04565b9150509295509295909350565b600080600080600060a0868803121562001c5157600080fd5b600062001c618882890162001a4d565b955050602062001c748882890162001a4d565b945050604062001c878882890162001aed565b935050606062001c9a8882890162001aed565b925050608062001cad8882890162001b1b565b9150509295509295909350565b60008060006060848603121562001cd057600080fd5b600062001ce08682870162001a36565b935050602062001cf38682870162001a36565b925050604062001d068682870162001b32565b9150509250925092565b6000806000806080858703121562001d2757600080fd5b600062001d378782880162001a36565b945050602062001d4a8782880162001a36565b935050604062001d5d8782880162001b32565b925050606085013567ffffffffffffffff81111562001d7b57600080fd5b62001d898782880162001aa9565b91505092959194509250565b6000806040838503121562001da957600080fd5b600062001db98582860162001a36565b925050602062001dcc8582860162001a64565b9150509250929050565b6000806040838503121562001dea57600080fd5b600062001dfa8582860162001a36565b925050602062001e0d8582860162001b32565b9150509250929050565b60006020828403121562001e2a57600080fd5b600062001e3a8482850162001a7b565b91505092915050565b60006020828403121562001e5657600080fd5b600062001e668482850162001a92565b91505092915050565b60006020828403121562001e8257600080fd5b600062001e928482850162001b32565b91505092915050565b62001ea681620025a7565b82525050565b62001eb781620025bb565b82525050565b600062001eca82620024cc565b62001ed68185620024e2565b935062001ee881856020860162002670565b62001ef381620027a9565b840191505092915050565b62001f098162002639565b82525050565b62001f1a81620025f3565b82525050565b600062001f2d82620024d7565b62001f398185620024f3565b935062001f4b81856020860162002670565b62001f5681620027a9565b840191505092915050565b600062001f6e82620024d7565b62001f7a818562002504565b935062001f8c81856020860162002670565b80840191505092915050565b600062001fa7602d83620024f3565b915062001fb482620027ba565b604082019050919050565b600062001fce603283620024f3565b915062001fdb8262002809565b604082019050919050565b600062001ff5602583620024f3565b9150620020028262002858565b604082019050919050565b60006200201c601c83620024f3565b91506200202982620028a7565b602082019050919050565b600062002043602483620024f3565b91506200205082620028d0565b604082019050919050565b60006200206a601983620024f3565b915062002077826200291f565b602082019050919050565b600062002091602983620024f3565b91506200209e8262002948565b604082019050919050565b6000620020b8602083620024f3565b9150620020c58262002997565b602082019050919050565b6000620020df601883620024f3565b9150620020ec82620029c0565b602082019050919050565b600062002106602183620024f3565b91506200211382620029e9565b604082019050919050565b60006200212d603d83620024f3565b91506200213a8262002a38565b604082019050919050565b620021508162002620565b82525050565b62002161816200262f565b82525050565b6200217c62002176826200262f565b62002712565b82525050565b600062002190828562001f61565b91506200219e828462002167565b6020820191508190509392505050565b6000602082019050620021c5600083018462001e9b565b92915050565b600060a082019050620021e2600083018862001e9b565b620021f1602083018762001e9b565b62002200604083018662001f0f565b6200220f606083018562001f0f565b6200221e608083018462002145565b9695505050505050565b60006080820190506200223f600083018762001e9b565b6200224e602083018662001e9b565b6200225d604083018562002156565b818103606083015262002271818462001ebd565b905095945050505050565b600060208201905062002293600083018462001eac565b92915050565b6000602082019050620022b0600083018462001efe565b92915050565b60006020820190508181036000830152620022d2818462001f20565b905092915050565b60006020820190508181036000830152620022f58162001f98565b9050919050565b60006020820190508181036000830152620023178162001fbf565b9050919050565b60006020820190508181036000830152620023398162001fe6565b9050919050565b600060208201905081810360008301526200235b816200200d565b9050919050565b600060208201905081810360008301526200237d8162002034565b9050919050565b600060208201905081810360008301526200239f816200205b565b9050919050565b60006020820190508181036000830152620023c18162002082565b9050919050565b60006020820190508181036000830152620023e381620020a9565b9050919050565b600060208201905081810360008301526200240581620020d0565b9050919050565b600060208201905081810360008301526200242781620020f7565b9050919050565b6000602082019050818103600083015262002449816200211e565b9050919050565b600060208201905062002467600083018462002156565b92915050565b6000620024796200248c565b9050620024878282620026dc565b919050565b6000604051905090565b600067ffffffffffffffff821115620024b457620024b36200277a565b5b620024bf82620027a9565b9050602081019050919050565b600081519050919050565b600081519050919050565b600082825260208201905092915050565b600082825260208201905092915050565b600081905092915050565b60006200251c826200262f565b915062002529836200262f565b9250827fffffffffffffffffffffffffffffffffffffffffffffffffffffffffffffffff038211156200256157620025606200271c565b5b828201905092915050565b600062002579826200262f565b915062002586836200262f565b9250828210156200259c576200259b6200271c565b5b828203905092915050565b6000620025b48262002600565b9050919050565b60008115159050919050565b60007fffffffff0000000000000000000000000000000000000000000000000000000082169050919050565b60008160020b9050919050565b600073ffffffffffffffffffffffffffffffffffffffff82169050919050565b600062ffffff82169050919050565b6000819050919050565b600062002646826200264d565b9050919050565b60006200265a8262002600565b9050919050565b82818337600083830152505050565b60005b838110156200269057808201518184015260208101905062002673565b83811115620026a0576000848401525b50505050565b60006002820490506001821680620026bf57607f821691505b60208210811415620026d657620026d56200274b565b5b50919050565b620026e782620027a9565b810181811067ffffffffffffffff821117156200270957620027086200277a565b5b80604052505050565b6000819050919050565b7f4e487b7100000000000000000000000000000000000000000000000000000000600052601160045260246000fd5b7f4e487b7100000000000000000000000000000000000000000000000000000000600052602260045260246000fd5b7f4e487b7100000000000000000000000000000000000000000000000000000000600052604160045260246000fd5b6000601f19601f8301169050919050565b7f4552433732313a2063616c6c6572206973206e6f7420746f6b656e206f776e6560008201527f72206f7220617070726f76656400000000000000000000000000000000000000602082015250565b7f4552433732313a207472616e7366657220746f206e6f6e20455243373231526560008201527f63656976657220696d706c656d656e7465720000000000000000000000000000602082015250565b7f4552433732313a207472616e736665722066726f6d20696e636f72726563742060008201527f6f776e6572000000000000000000000000000000000000000000000000000000602082015250565b7f4552433732313a20746f6b656e20616c7265616479206d696e74656400000000600082015250565b7f4552433732313a207472616e7366657220746f20746865207a65726f2061646460008201527f7265737300000000000000000000000000000000000000000000000000000000602082015250565b7f4552433732313a20617070726f766520746f2063616c6c657200000000000000600082015250565b7f4552433732313a2061646472657373207a65726f206973206e6f74206120766160008201527f6c6964206f776e65720000000000000000000000000000000000000000000000602082015250565b7f4552433732313a206d696e7420746f20746865207a65726f2061646472657373600082015250565b7f4552433732313a20696e76616c696420746f6b656e2049440000000000000000600082015250565b7f4552433732313a20617070726f76616c20746f2063757272656e74206f776e6560008201527f7200000000000000000000000000000000000000000000000000000000000000602082015250565b7f4552433732313a20617070726f76652063616c6c6572206973206e6f7420746f60008201527f6b656e206f776e6572206f7220617070726f76656420666f7220616c6c000000602082015250565b62002a9281620025a7565b811462002a9e57600080fd5b50565b62002aac81620025bb565b811462002ab857600080fd5b50565b62002ac681620025c7565b811462002ad257600080fd5b50565b62002ae081620025f3565b811462002aec57600080fd5b50565b62002afa8162002620565b811462002b0657600080fd5b50565b62002b14816200262f565b811462002b2057600080fd5b5056fe608060405234801561001057600080fd5b5060405161045e38038061045e8339818101604052810190610032919061015f565b846000806101000a81548173ffffffffffffffffffffffffffffffffffffffff021916908373ffffffffffffffffffffffffffffffffffffffff16021790555083600160006101000a81548173ffffffffffffffffffffffffffffffffffffffff021916908373ffffffffffffffffffffffffffffffffffffffff16021790555082600160146101000a81548162ffffff021916908360020b62ffffff16021790555081600160176101000a81548162ffffff021916908360020b62ffffff160217905550806001601a6101000a81548162ffffff021916908362ffffff1602179055505050505050610269565b60008151905061012f81610224565b92915050565b6000815190506101448161023b565b92915050565b60008151905061015981610252565b92915050565b600080600080600060a0868803121561017757600080fd5b600061018588828901610120565b955050602061019688828901610120565b94505060406101a788828901610135565b93505060606101b888828901610135565b92505060806101c98882890161014a565b9150509295509295909350565b60006101e1826101f5565b9050919050565b60008160020b9050919050565b600073ffffffffffffffffffffffffffffffffffffffff82169050919050565b600062ffffff82169050919050565b61022d816101d6565b811461023857600080fd5b50565b610244816101e8565b811461024f57600080fd5b50565b61025b81610215565b811461026657600080fd5b50565b6101e6806102786000396000f3fe608060405234801561001057600080fd5b506004361061002b5760003560e01c8063370158ea14610030575b600080fd5b610038610052565b60405161004995949392919061010f565b60405180910390f35b60008060008060008060009054906101000a900473ffffffffffffffffffffffffffffffffffffffff16600160009054906101000a900473ffffffffffffffffffffffffffffffffffffffff16600160149054906101000a900460020b600160179054906101000a900460020b6001601a9054906101000a900462ffffff16945094509450945094509091929394565b6100eb81610162565b82525050565b6100fa81610174565b82525050565b610109816101a1565b82525050565b600060a08201905061012460008301886100e2565b61013160208301876100e2565b61013e60408301866100f1565b61014b60608301856100f1565b6101586080830184610100565b9695505050505050565b600061016d82610181565b9050919050565b60008160020b9050919050565b600073ffffffffffffffffffffffffffffffffffffffff82169050919050565b600062ffffff8216905091905056fea2646970667358221220e05c05f1c5bce8fdca25ddddc6747a776e94a80da2f9bd3ff35b49620096b55264736f6c6343000804003368747470733a2f2f736e6f77796669656c64313930362e6769746875622e696f2f506f736974696f6e4e46542f64657461696c2fa2646970667358221220efc7b3e50e723dd3013989275a93beaeeeb3571055cd756a51f78f44b5f22e8c64736f6c63430008040033",
  "linkReferences": {},
  "deployedLinkReferences": {}
}