{
  "_format": "hh-sol-artifact-1",
  "contractName": "PositionNFT",
  "sourceName": "contracts/PositionNFT.sol",
  "abi": [
    {
      "inputs": [],
      "stateMutability": "nonpayable",
      "type": "constructor"
    },
    {
      "anonymous": false,
      "inputs": [
        {
          "indexed": true,
          "internalType": "address",
          "name": "owner",
          "type": "address"
        },
        {
          "indexed": true,
          "internalType": "address",
          "name": "approved",
          "type": "address"
        },
        {
          "indexed": true,
          "internalType": "uint256",
          "name": "tokenId",
          "type": "uint256"
        }
      ],
      "name": "Approval",
      "type": "event"
    },
    {
      "anonymous": false,
      "inputs": [
        {
          "indexed": true,
          "internalType": "address",
          "name": "owner",
          "type": "address"
        },
        {
          "indexed": true,
          "internalType": "address",
          "name": "operator",
          "type": "address"
        },
        {
          "indexed": false,
          "internalType": "bool",
          "name": "approved",
          "type": "bool"
        }
      ],
      "name": "ApprovalForAll",
      "type": "event"
    },
    {
      "anonymous": false,
      "inputs": [
        {
          "indexed": true,
          "internalType": "address",
          "name": "from",
          "type": "address"
        },
        {
          "indexed": true,
          "internalType": "address",
          "name": "to",
          "type": "address"
        },
        {
          "indexed": true,
          "internalType": "uint256",
          "name": "tokenId",
          "type": "uint256"
        }
      ],
      "name": "Transfer",
      "type": "event"
    },
    {
      "inputs": [
        {
          "internalType": "string",
          "name": "_token0",
          "type": "string"
        },
        {
          "internalType": "string",
          "name": "_token1",
          "type": "string"
        },
        {
          "internalType": "uint24",
          "name": "_fee",
          "type": "uint24"
        }
      ],
      "name": "addPool",
      "outputs": [],
      "stateMutability": "nonpayable",
      "type": "function"
    },
    {
      "inputs": [
        {
          "internalType": "address",
          "name": "to",
          "type": "address"
        },
        {
          "internalType": "uint256",
          "name": "tokenId",
          "type": "uint256"
        }
      ],
      "name": "approve",
      "outputs": [],
      "stateMutability": "nonpayable",
      "type": "function"
    },
    {
      "inputs": [],
      "name": "availablePools",
      "outputs": [
        {
          "internalType": "bytes32[]",
          "name": "",
          "type": "bytes32[]"
        }
      ],
      "stateMutability": "view",
      "type": "function"
    },
    {
      "inputs": [
        {
          "internalType": "address",
          "name": "owner",
          "type": "address"
        }
      ],
      "name": "balanceOf",
      "outputs": [
        {
          "internalType": "uint256",
          "name": "",
          "type": "uint256"
        }
      ],
      "stateMutability": "view",
      "type": "function"
    },
    {
      "inputs": [
        {
          "internalType": "uint256",
          "name": "_tokenId",
          "type": "uint256"
        }
      ],
      "name": "burn",
      "outputs": [],
      "stateMutability": "nonpayable",
      "type": "function"
    },
    {
      "inputs": [
        {
          "internalType": "uint256",
          "name": "tokenId",
          "type": "uint256"
        }
      ],
      "name": "getApproved",
      "outputs": [
        {
          "internalType": "address",
          "name": "",
          "type": "address"
        }
      ],
      "stateMutability": "view",
      "type": "function"
    },
    {
      "inputs": [
        {
          "internalType": "address",
          "name": "owner",
          "type": "address"
        },
        {
          "internalType": "address",
          "name": "operator",
          "type": "address"
        }
      ],
      "name": "isApprovedForAll",
      "outputs": [
        {
          "internalType": "bool",
          "name": "",
          "type": "bool"
        }
      ],
      "stateMutability": "view",
      "type": "function"
    },
    {
      "inputs": [
        {
          "internalType": "address",
          "name": "_owner",
          "type": "address"
        },
        {
          "internalType": "bytes32",
          "name": "_poolID",
          "type": "bytes32"
        },
        {
          "internalType": "int24",
          "name": "_tickLower",
          "type": "int24"
        },
        {
          "internalType": "int24",
          "name": "_tickUpper",
          "type": "int24"
        },
        {
          "internalType": "uint24",
          "name": "_price",
          "type": "uint24"
        }
      ],
      "name": "mint",
      "outputs": [],
      "stateMutability": "nonpayable",
      "type": "function"
    },
    {
      "inputs": [],
      "name": "name",
      "outputs": [
        {
          "internalType": "string",
          "name": "",
          "type": "string"
        }
      ],
      "stateMutability": "view",
      "type": "function"
    },
    {
      "inputs": [],
      "name": "nextPoolID",
      "outputs": [
        {
          "internalType": "uint256",
          "name": "",
          "type": "uint256"
        }
      ],
      "stateMutability": "view",
      "type": "function"
    },
    {
      "inputs": [],
      "name": "nextTokenID",
      "outputs": [
        {
          "internalType": "uint256",
          "name": "",
          "type": "uint256"
        }
      ],
      "stateMutability": "view",
      "type": "function"
    },
    {
      "inputs": [
        {
          "internalType": "uint256",
          "name": "_tokenID",
          "type": "uint256"
        }
      ],
      "name": "nftInfo",
      "outputs": [
        {
          "internalType": "address",
          "name": "",
          "type": "address"
        },
        {
          "internalType": "int24",
          "name": "",
          "type": "int24"
        },
        {
          "internalType": "int24",
          "name": "",
          "type": "int24"
        },
        {
          "internalType": "uint24",
          "name": "",
          "type": "uint24"
        },
        {
          "internalType": "bytes32",
          "name": "",
          "type": "bytes32"
        }
      ],
      "stateMutability": "view",
      "type": "function"
    },
    {
      "inputs": [
        {
          "internalType": "uint256",
          "name": "tokenId",
          "type": "uint256"
        }
      ],
      "name": "ownerOf",
      "outputs": [
        {
          "internalType": "address",
          "name": "",
          "type": "address"
        }
      ],
      "stateMutability": "view",
      "type": "function"
    },
    {
      "inputs": [
        {
          "internalType": "uint256",
          "name": "",
          "type": "uint256"
        }
      ],
      "name": "poolIDs",
      "outputs": [
        {
          "internalType": "bytes32",
          "name": "",
          "type": "bytes32"
        }
      ],
      "stateMutability": "view",
      "type": "function"
    },
    {
      "inputs": [
        {
          "internalType": "bytes32",
          "name": "_poolID",
          "type": "bytes32"
        }
      ],
      "name": "poolInfo",
      "outputs": [
        {
          "internalType": "string",
          "name": "",
          "type": "string"
        },
        {
          "internalType": "string",
          "name": "",
          "type": "string"
        },
        {
          "internalType": "uint24",
          "name": "",
          "type": "uint24"
        }
      ],
      "stateMutability": "view",
      "type": "function"
    },
    {
      "inputs": [
        {
          "internalType": "address",
          "name": "from",
          "type": "address"
        },
        {
          "internalType": "address",
          "name": "to",
          "type": "address"
        },
        {
          "internalType": "uint256",
          "name": "tokenId",
          "type": "uint256"
        }
      ],
      "name": "safeTransferFrom",
      "outputs": [],
      "stateMutability": "nonpayable",
      "type": "function"
    },
    {
      "inputs": [
        {
          "internalType": "address",
          "name": "from",
          "type": "address"
        },
        {
          "internalType": "address",
          "name": "to",
          "type": "address"
        },
        {
          "internalType": "uint256",
          "name": "tokenId",
          "type": "uint256"
        },
        {
          "internalType": "bytes",
          "name": "data",
          "type": "bytes"
        }
      ],
      "name": "safeTransferFrom",
      "outputs": [],
      "stateMutability": "nonpayable",
      "type": "function"
    },
    {
      "inputs": [
        {
          "internalType": "address",
          "name": "operator",
          "type": "address"
        },
        {
          "internalType": "bool",
          "name": "approved",
          "type": "bool"
        }
      ],
      "name": "setApprovalForAll",
      "outputs": [],
      "stateMutability": "nonpayable",
      "type": "function"
    },
    {
      "inputs": [
        {
          "internalType": "bytes4",
          "name": "interfaceId",
          "type": "bytes4"
        }
      ],
      "name": "supportsInterface",
      "outputs": [
        {
          "internalType": "bool",
          "name": "",
          "type": "bool"
        }
      ],
      "stateMutability": "view",
      "type": "function"
    },
    {
      "inputs": [],
      "name": "symbol",
      "outputs": [
        {
          "internalType": "string",
          "name": "",
          "type": "string"
        }
      ],
      "stateMutability": "view",
      "type": "function"
    },
    {
      "inputs": [
        {
          "internalType": "uint256",
          "name": "tokenId",
          "type": "uint256"
        }
      ],
      "name": "tokenURI",
      "outputs": [
        {
          "internalType": "string",
          "name": "",
          "type": "string"
        }
      ],
      "stateMutability": "view",
      "type": "function"
    },
    {
      "inputs": [
        {
          "internalType": "address",
          "name": "from",
          "type": "address"
        },
        {
          "internalType": "address",
          "name": "to",
          "type": "address"
        },
        {
          "internalType": "uint256",
          "name": "tokenId",
          "type": "uint256"
        }
      ],
      "name": "transferFrom",
      "outputs": [],
      "stateMutability": "nonpayable",
      "type": "function"
    }
  ],
  "bytecode": "0x6080604052600060065560006007553480156200001b57600080fd5b506040518060400160405280600b81526020017f506f736974696f6e4e46540000000000000000000000000000000000000000008152506040518060400160405280600481526020017f504e4654000000000000000000000000000000000000000000000000000000008152508160009080519060200190620000a0929190620000c2565b508060019080519060200190620000b9929190620000c2565b505050620001d7565b828054620000d09062000172565b90600052602060002090601f016020900481019282620000f4576000855562000140565b82601f106200010f57805160ff191683800117855562000140565b8280016001018555821562000140579182015b828111156200013f57825182559160200191906001019062000122565b5b5090506200014f919062000153565b5090565b5b808211156200016e57600081600090555060010162000154565b5090565b600060028204905060018216806200018b57607f821691505b60208210811415620001a257620001a1620001a8565b5b50919050565b7f4e487b7100000000000000000000000000000000000000000000000000000000600052602260045260246000fd5b61422c80620001e76000396000f3fe60806040523480156200001157600080fd5b5060043610620001605760003560e01c80636352211e11620000c9578063a22cb4651162000087578063a22cb465146200040b578063b88d4fde146200042b578063c87b56dd146200044b578063e985e9c51462000481578063f101e48114620004b7578063f718bb2e14620004d95762000160565b80636352211e146200030f57806370a0823114620003455780638cebd942146200037b57806395d89b4114620003b35780639a014e2414620003d55762000160565b806323b872dd116200012357806323b872dd146200024d5780632f6e3b6e146200026d578063390724ac146200028d57806340bf2a4414620002af57806342842e0e14620002cf57806342966c6814620002ef5762000160565b806301ffc9a7146200016557806306fdde03146200019b578063081812fc14620001bd578063095ea7b314620001f35780631f8bc7901462000213575b600080fd5b6200018360048036038101906200017d919062002783565b620004fb565b60405162000192919062002de8565b60405180910390f35b620001a5620005e1565b604051620001b4919062002e6f565b60405180910390f35b620001db6004803603810190620001d59190620028eb565b6200067b565b604051620001ea919062002cf6565b60405180910390f35b6200021160048036038101906200020b9190620026aa565b620006c3565b005b6200023160048036038101906200022b9190620028eb565b620007ec565b6040516200024495949392919062002d67565b60405180910390f35b6200026b60048036038101906200026591906200250c565b620008dd565b005b6200028b6004803603810190620002859190620027db565b62000946565b005b6200029762000a4e565b604051620002a6919062003054565b60405180910390f35b620002cd6004803603810190620002c7919062002628565b62000a54565b005b620002ed6004803603810190620002e791906200250c565b62000b15565b005b6200030d6004803603810190620003079190620028eb565b62000b37565b005b6200032d6004803603810190620003279190620028eb565b62000b45565b6040516200033c919062002cf6565b60405180910390f35b6200036360048036038101906200035d91906200249f565b62000bd1565b60405162000372919062003054565b60405180910390f35b620003996004803603810190620003939190620026eb565b62000c8c565b604051620003aa9392919062002e93565b60405180910390f35b620003bd62000d68565b604051620003cc919062002e6f565b60405180910390f35b620003f36004803603810190620003ed9190620028eb565b62000e02565b60405162000402919062002e05565b60405180910390f35b620004296004803603810190620004239190620025e7565b62000e1a565b005b62000449600480360381019062000443919062002562565b62000e34565b005b620004696004803603810190620004639190620028eb565b62000e9f565b60405162000478919062002e6f565b60405180910390f35b6200049f6004803603810190620004999190620024cb565b62000f11565b604051620004ae919062002de8565b60405180910390f35b620004c162000fa5565b604051620004d0919062003054565b60405180910390f35b620004e362000fab565b604051620004f2919062002dc4565b60405180910390f35b60007f80ac58cd000000000000000000000000000000000000000000000000000000007bffffffffffffffffffffffffffffffffffffffffffffffffffffffff1916827bffffffffffffffffffffffffffffffffffffffffffffffffffffffff19161480620005c757507f5b5e139f000000000000000000000000000000000000000000000000000000007bffffffffffffffffffffffffffffffffffffffffffffffffffffffff1916827bffffffffffffffffffffffffffffffffffffffffffffffffffffffff1916145b80620005da5750620005d982620010aa565b5b9050919050565b606060008054620005f290620032fb565b80601f01602080910402602001604051908101604052809291908181526020018280546200062090620032fb565b8015620006715780601f10620006455761010080835404028352916020019162000671565b820191906000526020600020905b8154815290600101906020018083116200065357829003601f168201915b5050505050905090565b6000620006888262001114565b6004600083815260200190815260200160002060009054906101000a900473ffffffffffffffffffffffffffffffffffffffff169050919050565b6000620006d08262000b45565b90508073ffffffffffffffffffffffffffffffffffffffff168373ffffffffffffffffffffffffffffffffffffffff16141562000744576040517f08c379a00000000000000000000000000000000000000000000000000000000081526004016200073b9062003010565b60405180910390fd5b8073ffffffffffffffffffffffffffffffffffffffff166200076562001164565b73ffffffffffffffffffffffffffffffffffffffff16148062000799575062000798816200079262001164565b62000f11565b5b620007db576040517f08c379a0000000000000000000000000000000000000000000000000000000008152600401620007d29062003032565b60405180910390fd5b620007e783836200116c565b505050565b6000806000806000806000806000600960008b815260200190815260200160002060009054906101000a900473ffffffffffffffffffffffffffffffffffffffff1673ffffffffffffffffffffffffffffffffffffffff16637b05fe626040518163ffffffff1660e01b815260040160806040518083038186803b1580156200087457600080fd5b505afa15801562000889573d6000803e3d6000fd5b505050506040513d601f19601f82011682018060405250810190620008af919062002717565b9350935093509350620008c28a62000b45565b83838387985098509850985098505050505091939590929450565b620008f2620008eb62001164565b8262001227565b62000934576040517f08c379a00000000000000000000000000000000000000000000000000000000081526004016200092b9062002ede565b60405180910390fd5b62000941838383620012c4565b505050565b8282826040516020016200095d9392919062002cbb565b60405160208183030381529060405280519060200120600860006007548152602001908152602001600020819055508282826040516200099d9062002230565b620009ab9392919062002e93565b604051809103906000f080158015620009c8573d6000803e3d6000fd5b50600a600060086000600754815260200190815260200160002054815260200190815260200160002060006101000a81548173ffffffffffffffffffffffffffffffffffffffff021916908373ffffffffffffffffffffffffffffffffffffffff1602179055506007600081548092919062000a449062003367565b9190505550505050565b60075481565b62000a6285600654620015cf565b8383838360405162000a74906200223e565b62000a83949392919062002e22565b604051809103906000f08015801562000aa0573d6000803e3d6000fd5b5060096000600654815260200190815260200160002060006101000a81548173ffffffffffffffffffffffffffffffffffffffff021916908373ffffffffffffffffffffffffffffffffffffffff1602179055506006600081548092919062000b099062003367565b91905055505050505050565b62000b328383836040518060200160405280600081525062000e34565b505050565b62000b4281620017fe565b50565b60008062000b538362001954565b9050600073ffffffffffffffffffffffffffffffffffffffff168173ffffffffffffffffffffffffffffffffffffffff16141562000bc8576040517f08c379a000000000000000000000000000000000000000000000000000000000815260040162000bbf9062002fee565b60405180910390fd5b80915050919050565b60008073ffffffffffffffffffffffffffffffffffffffff168273ffffffffffffffffffffffffffffffffffffffff16141562000c45576040517f08c379a000000000000000000000000000000000000000000000000000000000815260040162000c3c9062002faa565b60405180910390fd5b600360008373ffffffffffffffffffffffffffffffffffffffff1673ffffffffffffffffffffffffffffffffffffffff168152602001908152602001600020549050919050565b606080600080600080600a600088815260200190815260200160002060009054906101000a900473ffffffffffffffffffffffffffffffffffffffff1673ffffffffffffffffffffffffffffffffffffffff16635a2f3d096040518163ffffffff1660e01b815260040160006040518083038186803b15801562000d0f57600080fd5b505afa15801562000d24573d6000803e3d6000fd5b505050506040513d6000823e3d601f19601f8201168201806040525081019062000d4f919062002863565b9250925092508282829550955095505050509193909250565b60606001805462000d7990620032fb565b80601f016020809104026020016040519081016040528092919081815260200182805462000da790620032fb565b801562000df85780601f1062000dcc5761010080835404028352916020019162000df8565b820191906000526020600020905b81548152906001019060200180831162000dda57829003601f168201915b5050505050905090565b60086020528060005260406000206000915090505481565b62000e3062000e2862001164565b838362001991565b5050565b62000e4962000e4262001164565b8362001227565b62000e8b576040517f08c379a000000000000000000000000000000000000000000000000000000000815260040162000e829062002ede565b60405180910390fd5b62000e998484848462001b03565b50505050565b606062000eac8262001114565b600062000eb862001b66565b9050600081511162000eda576040518060200160405280600081525062000f09565b8062000ee68462001b7d565b60405160200162000ef992919062002c93565b6040516020818303038152906040525b915050919050565b6000600560008473ffffffffffffffffffffffffffffffffffffffff1673ffffffffffffffffffffffffffffffffffffffff16815260200190815260200160002060008373ffffffffffffffffffffffffffffffffffffffff1673ffffffffffffffffffffffffffffffffffffffff16815260200190815260200160002060009054906101000a900460ff16905092915050565b60065481565b6060600060075467ffffffffffffffff81111562000ff2577f4e487b7100000000000000000000000000000000000000000000000000000000600052604160045260246000fd5b604051908082528060200260200182016040528015620010215781602001602082028036833780820191505090505b50905060005b600754811015620010a257600860008281526020019081526020016000205482828151811062001080577f4e487b7100000000000000000000000000000000000000000000000000000000600052603260045260246000fd5b6020026020010181815250508080620010999062003367565b91505062001027565b508091505090565b60007f01ffc9a7000000000000000000000000000000000000000000000000000000007bffffffffffffffffffffffffffffffffffffffffffffffffffffffff1916827bffffffffffffffffffffffffffffffffffffffffffffffffffffffff1916149050919050565b6200111f8162001caa565b62001161576040517f08c379a0000000000000000000000000000000000000000000000000000000008152600401620011589062002fee565b60405180910390fd5b50565b600033905090565b816004600083815260200190815260200160002060006101000a81548173ffffffffffffffffffffffffffffffffffffffff021916908373ffffffffffffffffffffffffffffffffffffffff160217905550808273ffffffffffffffffffffffffffffffffffffffff16620011e18362000b45565b73ffffffffffffffffffffffffffffffffffffffff167f8c5be1e5ebec7d5bd14f71427d1e84f3dd0314c0f7b2291e5b200ac8c7c3b92560405160405180910390a45050565b600080620012358362000b45565b90508073ffffffffffffffffffffffffffffffffffffffff168473ffffffffffffffffffffffffffffffffffffffff1614806200127a575062001279818562000f11565b5b80620012bb57508373ffffffffffffffffffffffffffffffffffffffff16620012a3846200067b565b73ffffffffffffffffffffffffffffffffffffffff16145b91505092915050565b8273ffffffffffffffffffffffffffffffffffffffff16620012e68262000b45565b73ffffffffffffffffffffffffffffffffffffffff16146200133f576040517f08c379a0000000000000000000000000000000000000000000000000000000008152600401620013369062002f22565b60405180910390fd5b600073ffffffffffffffffffffffffffffffffffffffff168273ffffffffffffffffffffffffffffffffffffffff161415620013b2576040517f08c379a0000000000000000000000000000000000000000000000000000000008152600401620013a99062002f66565b60405180910390fd5b620013c1838383600162001ced565b8273ffffffffffffffffffffffffffffffffffffffff16620013e38262000b45565b73ffffffffffffffffffffffffffffffffffffffff16146200143c576040517f08c379a0000000000000000000000000000000000000000000000000000000008152600401620014339062002f22565b60405180910390fd5b6004600082815260200190815260200160002060006101000a81549073ffffffffffffffffffffffffffffffffffffffff02191690556001600360008573ffffffffffffffffffffffffffffffffffffffff1673ffffffffffffffffffffffffffffffffffffffff168152602001908152602001600020600082825403925050819055506001600360008473ffffffffffffffffffffffffffffffffffffffff1673ffffffffffffffffffffffffffffffffffffffff16815260200190815260200160002060008282540192505081905550816002600083815260200190815260200160002060006101000a81548173ffffffffffffffffffffffffffffffffffffffff021916908373ffffffffffffffffffffffffffffffffffffffff160217905550808273ffffffffffffffffffffffffffffffffffffffff168473ffffffffffffffffffffffffffffffffffffffff167fddf252ad1be2c89b69c2b068fc378daa952ba7f163c4a11628f55a4df523b3ef60405160405180910390a4620015ca838383600162001e1a565b505050565b600073ffffffffffffffffffffffffffffffffffffffff168273ffffffffffffffffffffffffffffffffffffffff16141562001642576040517f08c379a0000000000000000000000000000000000000000000000000000000008152600401620016399062002fcc565b60405180910390fd5b6200164d8162001caa565b1562001690576040517f08c379a0000000000000000000000000000000000000000000000000000000008152600401620016879062002f44565b60405180910390fd5b620016a060008383600162001ced565b620016ab8162001caa565b15620016ee576040517f08c379a0000000000000000000000000000000000000000000000000000000008152600401620016e59062002f44565b60405180910390fd5b6001600360008473ffffffffffffffffffffffffffffffffffffffff1673ffffffffffffffffffffffffffffffffffffffff16815260200190815260200160002060008282540192505081905550816002600083815260200190815260200160002060006101000a81548173ffffffffffffffffffffffffffffffffffffffff021916908373ffffffffffffffffffffffffffffffffffffffff160217905550808273ffffffffffffffffffffffffffffffffffffffff16600073ffffffffffffffffffffffffffffffffffffffff167fddf252ad1be2c89b69c2b068fc378daa952ba7f163c4a11628f55a4df523b3ef60405160405180910390a4620017fa60008383600162001e1a565b5050565b60006200180b8262000b45565b90506200181d81600084600162001ced565b620018288262000b45565b90506004600083815260200190815260200160002060006101000a81549073ffffffffffffffffffffffffffffffffffffffff02191690556001600360008373ffffffffffffffffffffffffffffffffffffffff1673ffffffffffffffffffffffffffffffffffffffff168152602001908152602001600020600082825403925050819055506002600083815260200190815260200160002060006101000a81549073ffffffffffffffffffffffffffffffffffffffff021916905581600073ffffffffffffffffffffffffffffffffffffffff168273ffffffffffffffffffffffffffffffffffffffff167fddf252ad1be2c89b69c2b068fc378daa952ba7f163c4a11628f55a4df523b3ef60405160405180910390a46200195081600084600162001e1a565b5050565b60006002600083815260200190815260200160002060009054906101000a900473ffffffffffffffffffffffffffffffffffffffff169050919050565b8173ffffffffffffffffffffffffffffffffffffffff168373ffffffffffffffffffffffffffffffffffffffff16141562001a03576040517f08c379a0000000000000000000000000000000000000000000000000000000008152600401620019fa9062002f88565b60405180910390fd5b80600560008573ffffffffffffffffffffffffffffffffffffffff1673ffffffffffffffffffffffffffffffffffffffff16815260200190815260200160002060008473ffffffffffffffffffffffffffffffffffffffff1673ffffffffffffffffffffffffffffffffffffffff16815260200190815260200160002060006101000a81548160ff0219169083151502179055508173ffffffffffffffffffffffffffffffffffffffff168373ffffffffffffffffffffffffffffffffffffffff167f17307eab39ab6107e8899845ad3d59bd9653f200f220920489ca2b5937696c318360405162001af6919062002de8565b60405180910390a3505050565b62001b10848484620012c4565b62001b1e8484848462001e20565b62001b60576040517f08c379a000000000000000000000000000000000000000000000000000000000815260040162001b579062002f00565b60405180910390fd5b50505050565b606060405180602001604052806000815250905090565b60606000600162001b8e8462001fc9565b01905060008167ffffffffffffffff81111562001bd4577f4e487b7100000000000000000000000000000000000000000000000000000000600052604160045260246000fd5b6040519080825280601f01601f19166020018201604052801562001c075781602001600182028036833780820191505090505b509050600082602001820190505b60011562001c9f578080600190039150507f3031323334353637383961626364656600000000000000000000000000000000600a86061a8153600a858162001c86577f4e487b7100000000000000000000000000000000000000000000000000000000600052601260045260246000fd5b049450600085141562001c995762001c9f565b62001c15565b819350505050919050565b60008073ffffffffffffffffffffffffffffffffffffffff1662001cce8362001954565b73ffffffffffffffffffffffffffffffffffffffff1614159050919050565b600181111562001e1457600073ffffffffffffffffffffffffffffffffffffffff168473ffffffffffffffffffffffffffffffffffffffff161462001d855780600360008673ffffffffffffffffffffffffffffffffffffffff1673ffffffffffffffffffffffffffffffffffffffff168152602001908152602001600020600082825462001d7d9190620031df565b925050819055505b600073ffffffffffffffffffffffffffffffffffffffff168373ffffffffffffffffffffffffffffffffffffffff161462001e135780600360008573ffffffffffffffffffffffffffffffffffffffff1673ffffffffffffffffffffffffffffffffffffffff168152602001908152602001600020600082825462001e0b919062003182565b925050819055505b5b50505050565b50505050565b600062001e438473ffffffffffffffffffffffffffffffffffffffff166200220d565b1562001fbc578373ffffffffffffffffffffffffffffffffffffffff1663150b7a0262001e6f62001164565b8786866040518563ffffffff1660e01b815260040162001e93949392919062002d13565b602060405180830381600087803b15801562001eae57600080fd5b505af192505050801562001ee257506040513d601f19601f8201168201806040525081019062001edf9190620027af565b60015b62001f6b573d806000811462001f15576040519150601f19603f3d011682016040523d82523d6000602084013e62001f1a565b606091505b5060008151141562001f63576040517f08c379a000000000000000000000000000000000000000000000000000000000815260040162001f5a9062002f00565b60405180910390fd5b805181602001fd5b63150b7a0260e01b7bffffffffffffffffffffffffffffffffffffffffffffffffffffffff1916817bffffffffffffffffffffffffffffffffffffffffffffffffffffffff19161491505062001fc1565b600190505b949350505050565b600080600090507a184f03e93ff9f4daa797ed6e38ed64bf6a1f01000000000000000083106200204f577a184f03e93ff9f4daa797ed6e38ed64bf6a1f010000000000000000838162002045577f4e487b7100000000000000000000000000000000000000000000000000000000600052601260045260246000fd5b0492506040810190505b6d04ee2d6d415b85acef81000000008310620020b4576d04ee2d6d415b85acef81000000008381620020aa577f4e487b7100000000000000000000000000000000000000000000000000000000600052601260045260246000fd5b0492506020810190505b662386f26fc1000083106200210b57662386f26fc10000838162002101577f4e487b7100000000000000000000000000000000000000000000000000000000600052601260045260246000fd5b0492506010810190505b6305f5e10083106200215c576305f5e100838162002152577f4e487b7100000000000000000000000000000000000000000000000000000000600052601260045260246000fd5b0492506008810190505b6127108310620021a95761271083816200219f577f4e487b7100000000000000000000000000000000000000000000000000000000600052601260045260246000fd5b0492506004810190505b60648310620021f45760648381620021ea577f4e487b7100000000000000000000000000000000000000000000000000000000600052601260045260246000fd5b0492506002810190505b600a831062002204576001810190505b80915050919050565b6000808273ffffffffffffffffffffffffffffffffffffffff163b119050919050565b6106d680620037f883390190565b6103298062003ece83390190565b6000620022636200225d846200309a565b62003071565b9050828152602081018484840111156200227c57600080fd5b62002289848285620032b6565b509392505050565b6000620022a8620022a284620030d0565b62003071565b905082815260208101848484011115620022c157600080fd5b620022ce848285620032b6565b509392505050565b6000620022ed620022e784620030d0565b62003071565b9050828152602081018484840111156200230657600080fd5b62002313848285620032c5565b509392505050565b6000813590506200232c8162003741565b92915050565b60008135905062002343816200375b565b92915050565b6000813590506200235a8162003775565b92915050565b600081519050620023718162003775565b92915050565b60008135905062002388816200378f565b92915050565b6000815190506200239f816200378f565b92915050565b600082601f830112620023b757600080fd5b8135620023c98482602086016200224c565b91505092915050565b600081359050620023e381620037a9565b92915050565b600081519050620023fa81620037a9565b92915050565b600082601f8301126200241257600080fd5b81356200242484826020860162002291565b91505092915050565b600082601f8301126200243f57600080fd5b815162002451848260208601620022d6565b91505092915050565b6000813590506200246b81620037c3565b92915050565b6000815190506200248281620037c3565b92915050565b6000813590506200249981620037dd565b92915050565b600060208284031215620024b257600080fd5b6000620024c2848285016200231b565b91505092915050565b60008060408385031215620024df57600080fd5b6000620024ef858286016200231b565b925050602062002502858286016200231b565b9150509250929050565b6000806000606084860312156200252257600080fd5b600062002532868287016200231b565b935050602062002545868287016200231b565b9250506040620025588682870162002488565b9150509250925092565b600080600080608085870312156200257957600080fd5b600062002589878288016200231b565b94505060206200259c878288016200231b565b9350506040620025af8782880162002488565b925050606085013567ffffffffffffffff811115620025cd57600080fd5b620025db87828801620023a5565b91505092959194509250565b60008060408385031215620025fb57600080fd5b60006200260b858286016200231b565b92505060206200261e8582860162002332565b9150509250929050565b600080600080600060a086880312156200264157600080fd5b600062002651888289016200231b565b9550506020620026648882890162002349565b94505060406200267788828901620023d2565b93505060606200268a88828901620023d2565b92505060806200269d888289016200245a565b9150509295509295909350565b60008060408385031215620026be57600080fd5b6000620026ce858286016200231b565b9250506020620026e18582860162002488565b9150509250929050565b600060208284031215620026fe57600080fd5b60006200270e8482850162002349565b91505092915050565b600080600080608085870312156200272e57600080fd5b60006200273e8782880162002360565b94505060206200275187828801620023e9565b93505060406200276487828801620023e9565b9250506060620027778782880162002471565b91505092959194509250565b6000602082840312156200279657600080fd5b6000620027a68482850162002377565b91505092915050565b600060208284031215620027c257600080fd5b6000620027d2848285016200238e565b91505092915050565b600080600060608486031215620027f157600080fd5b600084013567ffffffffffffffff8111156200280c57600080fd5b6200281a8682870162002400565b935050602084013567ffffffffffffffff8111156200283857600080fd5b620028468682870162002400565b925050604062002859868287016200245a565b9150509250925092565b6000806000606084860312156200287957600080fd5b600084015167ffffffffffffffff8111156200289457600080fd5b620028a2868287016200242d565b935050602084015167ffffffffffffffff811115620028c057600080fd5b620028ce868287016200242d565b9250506040620028e18682870162002471565b9150509250925092565b600060208284031215620028fe57600080fd5b60006200290e8482850162002488565b91505092915050565b6000620029258383620029bd565b60208301905092915050565b6200293c816200321a565b82525050565b60006200294f8262003116565b6200295b818562003144565b9350620029688362003106565b8060005b838110156200299f57815162002983888262002917565b9750620029908362003137565b9250506001810190506200296c565b5085935050505092915050565b620029b7816200322e565b82525050565b620029c8816200323a565b82525050565b620029d9816200323a565b82525050565b6000620029ec8262003121565b620029f8818562003155565b935062002a0a818560208601620032c5565b62002a158162003456565b840191505092915050565b62002a2b8162003270565b82525050565b600062002a3e826200312c565b62002a4a818562003166565b935062002a5c818560208601620032c5565b62002a678162003456565b840191505092915050565b600062002a7f826200312c565b62002a8b818562003177565b935062002a9d818560208601620032c5565b80840191505092915050565b600062002ab8602d8362003166565b915062002ac58262003474565b604082019050919050565b600062002adf60328362003166565b915062002aec82620034c3565b604082019050919050565b600062002b0660258362003166565b915062002b138262003512565b604082019050919050565b600062002b2d601c8362003166565b915062002b3a8262003561565b602082019050919050565b600062002b5460248362003166565b915062002b61826200358a565b604082019050919050565b600062002b7b60198362003166565b915062002b8882620035d9565b602082019050919050565b600062002ba260298362003166565b915062002baf8262003602565b604082019050919050565b600062002bc960208362003166565b915062002bd68262003651565b602082019050919050565b600062002bf060188362003166565b915062002bfd826200367a565b602082019050919050565b600062002c1760218362003166565b915062002c2482620036a3565b604082019050919050565b600062002c3e603d8362003166565b915062002c4b82620036f2565b604082019050919050565b62002c61816200329d565b82525050565b62002c7c62002c76826200329d565b620033b5565b82525050565b62002c8d81620032ac565b82525050565b600062002ca1828562002a72565b915062002caf828462002a72565b91508190509392505050565b600062002cc9828662002a72565b915062002cd7828562002a72565b915062002ce5828462002c67565b600382019150819050949350505050565b600060208201905062002d0d600083018462002931565b92915050565b600060808201905062002d2a600083018762002931565b62002d39602083018662002931565b62002d48604083018562002c82565b818103606083015262002d5c8184620029df565b905095945050505050565b600060a08201905062002d7e600083018862002931565b62002d8d602083018762002a20565b62002d9c604083018662002a20565b62002dab606083018562002c56565b62002dba6080830184620029ce565b9695505050505050565b6000602082019050818103600083015262002de0818462002942565b905092915050565b600060208201905062002dff6000830184620029ac565b92915050565b600060208201905062002e1c6000830184620029ce565b92915050565b600060808201905062002e396000830187620029ce565b62002e48602083018662002a20565b62002e57604083018562002a20565b62002e66606083018462002c56565b95945050505050565b6000602082019050818103600083015262002e8b818462002a31565b905092915050565b6000606082019050818103600083015262002eaf818662002a31565b9050818103602083015262002ec5818562002a31565b905062002ed6604083018462002c56565b949350505050565b6000602082019050818103600083015262002ef98162002aa9565b9050919050565b6000602082019050818103600083015262002f1b8162002ad0565b9050919050565b6000602082019050818103600083015262002f3d8162002af7565b9050919050565b6000602082019050818103600083015262002f5f8162002b1e565b9050919050565b6000602082019050818103600083015262002f818162002b45565b9050919050565b6000602082019050818103600083015262002fa38162002b6c565b9050919050565b6000602082019050818103600083015262002fc58162002b93565b9050919050565b6000602082019050818103600083015262002fe78162002bba565b9050919050565b60006020820190508181036000830152620030098162002be1565b9050919050565b600060208201905081810360008301526200302b8162002c08565b9050919050565b600060208201905081810360008301526200304d8162002c2f565b9050919050565b60006020820190506200306b600083018462002c82565b92915050565b60006200307d62003090565b90506200308b828262003331565b919050565b6000604051905090565b600067ffffffffffffffff821115620030b857620030b762003427565b5b620030c38262003456565b9050602081019050919050565b600067ffffffffffffffff821115620030ee57620030ed62003427565b5b620030f98262003456565b9050602081019050919050565b6000819050602082019050919050565b600081519050919050565b600081519050919050565b600081519050919050565b6000602082019050919050565b600082825260208201905092915050565b600082825260208201905092915050565b600082825260208201905092915050565b600081905092915050565b60006200318f82620032ac565b91506200319c83620032ac565b9250827fffffffffffffffffffffffffffffffffffffffffffffffffffffffffffffffff03821115620031d457620031d3620033c9565b5b828201905092915050565b6000620031ec82620032ac565b9150620031f983620032ac565b9250828210156200320f576200320e620033c9565b5b828203905092915050565b600062003227826200327d565b9050919050565b60008115159050919050565b6000819050919050565b60007fffffffff0000000000000000000000000000000000000000000000000000000082169050919050565b60008160020b9050919050565b600073ffffffffffffffffffffffffffffffffffffffff82169050919050565b600062ffffff82169050919050565b6000819050919050565b82818337600083830152505050565b60005b83811015620032e5578082015181840152602081019050620032c8565b83811115620032f5576000848401525b50505050565b600060028204905060018216806200331457607f821691505b602082108114156200332b576200332a620033f8565b5b50919050565b6200333c8262003456565b810181811067ffffffffffffffff821117156200335e576200335d62003427565b5b80604052505050565b60006200337482620032ac565b91507fffffffffffffffffffffffffffffffffffffffffffffffffffffffffffffffff821415620033aa57620033a9620033c9565b5b600182019050919050565b6000620033c28262003467565b9050919050565b7f4e487b7100000000000000000000000000000000000000000000000000000000600052601160045260246000fd5b7f4e487b7100000000000000000000000000000000000000000000000000000000600052602260045260246000fd5b7f4e487b7100000000000000000000000000000000000000000000000000000000600052604160045260246000fd5b6000601f19601f8301169050919050565b60008160e81b9050919050565b7f4552433732313a2063616c6c6572206973206e6f7420746f6b656e206f776e6560008201527f72206f7220617070726f76656400000000000000000000000000000000000000602082015250565b7f4552433732313a207472616e7366657220746f206e6f6e20455243373231526560008201527f63656976657220696d706c656d656e7465720000000000000000000000000000602082015250565b7f4552433732313a207472616e736665722066726f6d20696e636f72726563742060008201527f6f776e6572000000000000000000000000000000000000000000000000000000602082015250565b7f4552433732313a20746f6b656e20616c7265616479206d696e74656400000000600082015250565b7f4552433732313a207472616e7366657220746f20746865207a65726f2061646460008201527f7265737300000000000000000000000000000000000000000000000000000000602082015250565b7f4552433732313a20617070726f766520746f2063616c6c657200000000000000600082015250565b7f4552433732313a2061646472657373207a65726f206973206e6f74206120766160008201527f6c6964206f776e65720000000000000000000000000000000000000000000000602082015250565b7f4552433732313a206d696e7420746f20746865207a65726f2061646472657373600082015250565b7f4552433732313a20696e76616c696420746f6b656e2049440000000000000000600082015250565b7f4552433732313a20617070726f76616c20746f2063757272656e74206f776e6560008201527f7200000000000000000000000000000000000000000000000000000000000000602082015250565b7f4552433732313a20617070726f76652063616c6c6572206973206e6f7420746f60008201527f6b656e206f776e6572206f7220617070726f76656420666f7220616c6c000000602082015250565b6200374c816200321a565b81146200375857600080fd5b50565b62003766816200322e565b81146200377257600080fd5b50565b62003780816200323a565b81146200378c57600080fd5b50565b6200379a8162003244565b8114620037a657600080fd5b50565b620037b48162003270565b8114620037c057600080fd5b50565b620037ce816200329d565b8114620037da57600080fd5b50565b620037e881620032ac565b8114620037f457600080fd5b5056fe608060405234801561001057600080fd5b506040516106d63803806106d6833981810160405281019061003291906101a7565b8260009080519060200190610048929190610087565b50816001908051906020019061005f929190610087565b5080600260006101000a81548162ffffff021916908362ffffff1602179055505050506103a7565b828054610093906102be565b90600052602060002090601f0160209004810192826100b557600085556100fc565b82601f106100ce57805160ff19168380011785556100fc565b828001600101855582156100fc579182015b828111156100fb5782518255916020019190600101906100e0565b5b509050610109919061010d565b5090565b5b8082111561012657600081600090555060010161010e565b5090565b600061013d6101388461024b565b610226565b90508281526020810184848401111561015557600080fd5b61016084828561028b565b509392505050565b600082601f83011261017957600080fd5b815161018984826020860161012a565b91505092915050565b6000815190506101a181610390565b92915050565b6000806000606084860312156101bc57600080fd5b600084015167ffffffffffffffff8111156101d657600080fd5b6101e286828701610168565b935050602084015167ffffffffffffffff8111156101ff57600080fd5b61020b86828701610168565b925050604061021c86828701610192565b9150509250925092565b6000610230610241565b905061023c82826102f0565b919050565b6000604051905090565b600067ffffffffffffffff82111561026657610265610350565b5b61026f8261037f565b9050602081019050919050565b600062ffffff82169050919050565b60005b838110156102a957808201518184015260208101905061028e565b838111156102b8576000848401525b50505050565b600060028204905060018216806102d657607f821691505b602082108114156102ea576102e9610321565b5b50919050565b6102f98261037f565b810181811067ffffffffffffffff8211171561031857610317610350565b5b80604052505050565b7f4e487b7100000000000000000000000000000000000000000000000000000000600052602260045260246000fd5b7f4e487b7100000000000000000000000000000000000000000000000000000000600052604160045260246000fd5b6000601f19601f8301169050919050565b6103998161027c565b81146103a457600080fd5b50565b610320806103b66000396000f3fe608060405234801561001057600080fd5b506004361061002b5760003560e01c80635a2f3d0914610030575b600080fd5b610038610050565b604051610047939291906101d5565b60405180910390f35b6060806000806001600260009054906101000a900462ffffff1682805461007690610278565b80601f01602080910402602001604051908101604052809291908181526020018280546100a290610278565b80156100ef5780601f106100c4576101008083540402835291602001916100ef565b820191906000526020600020905b8154815290600101906020018083116100d257829003601f168201915b5050505050925081805461010290610278565b80601f016020809104026020016040519081016040528092919081815260200182805461012e90610278565b801561017b5780601f106101505761010080835404028352916020019161017b565b820191906000526020600020905b81548152906001019060200180831161015e57829003601f168201915b50505050509150925092509250909192565b60006101988261021a565b6101a28185610225565b93506101b2818560208601610245565b6101bb816102d9565b840191505092915050565b6101cf81610236565b82525050565b600060608201905081810360008301526101ef818661018d565b90508181036020830152610203818561018d565b905061021260408301846101c6565b949350505050565b600081519050919050565b600082825260208201905092915050565b600062ffffff82169050919050565b60005b83811015610263578082015181840152602081019050610248565b83811115610272576000848401525b50505050565b6000600282049050600182168061029057607f821691505b602082108114156102a4576102a36102aa565b5b50919050565b7f4e487b7100000000000000000000000000000000000000000000000000000000600052602260045260246000fd5b6000601f19601f830116905091905056fea26469706673582212205e134b6ffd81427878cd4273ba1129f13ab02a30ffe1fc0771dc5ce3a7f3d6a764736f6c63430008040033608060405234801561001057600080fd5b50604051610329380380610329833981810160405281019061003291906100e4565b82600160006101000a81548162ffffff021916908360020b62ffffff16021790555081600160036101000a81548162ffffff021916908360020b62ffffff1602179055508360008190555080600160066101000a81548162ffffff021916908362ffffff160217905550505050506101b2565b6000815190506100b48161016d565b92915050565b6000815190506100c981610184565b92915050565b6000815190506100de8161019b565b92915050565b600080600080608085870312156100fa57600080fd5b6000610108878288016100a5565b9450506020610119878288016100ba565b935050604061012a878288016100ba565b925050606061013b878288016100cf565b91505092959194509250565b6000819050919050565b60008160020b9050919050565b600062ffffff82169050919050565b61017681610147565b811461018157600080fd5b50565b61018d81610151565b811461019857600080fd5b50565b6101a48161015e565b81146101af57600080fd5b50565b610168806101c16000396000f3fe608060405234801561001057600080fd5b506004361061002b5760003560e01c80637b05fe6214610030575b600080fd5b610038610051565b60405161004894939291906100c7565b60405180910390f35b600080600080600054600160009054906101000a900460020b600160039054906101000a900460020b600160069054906101000a900462ffffff16935093509350935090919293565b6100a38161010c565b82525050565b6100b281610116565b82525050565b6100c181610123565b82525050565b60006080820190506100dc600083018761009a565b6100e960208301866100a9565b6100f660408301856100a9565b61010360608301846100b8565b95945050505050565b6000819050919050565b60008160020b9050919050565b600062ffffff8216905091905056fea2646970667358221220cc14c65858692338853edfe6828064c91e73a16780166cf59428ad804b1a61cc64736f6c63430008040033a2646970667358221220558fb5f705fd25f55c5ed6ed9ae814761145c74f8293a354f419ebe3cc47664364736f6c63430008040033",
  "linkReferences": {},
  "deployedLinkReferences": {}
}