{
  "_format": "hh-sol-artifact-1",
  "contractName": "PositionNFT",
  "sourceName": "contracts/PositionNFT.sol",
  "abi": [
    {
      "inputs": [],
      "stateMutability": "nonpayable",
      "type": "constructor"
    },
    {
      "anonymous": false,
      "inputs": [
        {
          "indexed": true,
          "internalType": "address",
          "name": "owner",
          "type": "address"
        },
        {
          "indexed": true,
          "internalType": "address",
          "name": "approved",
          "type": "address"
        },
        {
          "indexed": true,
          "internalType": "uint256",
          "name": "tokenId",
          "type": "uint256"
        }
      ],
      "name": "Approval",
      "type": "event"
    },
    {
      "anonymous": false,
      "inputs": [
        {
          "indexed": true,
          "internalType": "address",
          "name": "owner",
          "type": "address"
        },
        {
          "indexed": true,
          "internalType": "address",
          "name": "operator",
          "type": "address"
        },
        {
          "indexed": false,
          "internalType": "bool",
          "name": "approved",
          "type": "bool"
        }
      ],
      "name": "ApprovalForAll",
      "type": "event"
    },
    {
      "anonymous": false,
      "inputs": [
        {
          "indexed": true,
          "internalType": "address",
          "name": "from",
          "type": "address"
        },
        {
          "indexed": true,
          "internalType": "address",
          "name": "to",
          "type": "address"
        },
        {
          "indexed": true,
          "internalType": "uint256",
          "name": "tokenId",
          "type": "uint256"
        }
      ],
      "name": "Transfer",
      "type": "event"
    },
    {
      "inputs": [
        {
          "internalType": "string",
          "name": "_token0",
          "type": "string"
        },
        {
          "internalType": "string",
          "name": "_token1",
          "type": "string"
        },
        {
          "internalType": "uint24",
          "name": "_fee",
          "type": "uint24"
        }
      ],
      "name": "addPool",
      "outputs": [],
      "stateMutability": "nonpayable",
      "type": "function"
    },
    {
      "inputs": [
        {
          "internalType": "address",
          "name": "to",
          "type": "address"
        },
        {
          "internalType": "uint256",
          "name": "tokenId",
          "type": "uint256"
        }
      ],
      "name": "approve",
      "outputs": [],
      "stateMutability": "nonpayable",
      "type": "function"
    },
    {
      "inputs": [],
      "name": "availablePools",
      "outputs": [
        {
          "internalType": "bytes32[]",
          "name": "",
          "type": "bytes32[]"
        }
      ],
      "stateMutability": "view",
      "type": "function"
    },
    {
      "inputs": [
        {
          "internalType": "address",
          "name": "owner",
          "type": "address"
        }
      ],
      "name": "balanceOf",
      "outputs": [
        {
          "internalType": "uint256",
          "name": "",
          "type": "uint256"
        }
      ],
      "stateMutability": "view",
      "type": "function"
    },
    {
      "inputs": [
        {
          "internalType": "uint256",
          "name": "_tokenID",
          "type": "uint256"
        }
      ],
      "name": "burn",
      "outputs": [],
      "stateMutability": "nonpayable",
      "type": "function"
    },
    {
      "inputs": [
        {
          "internalType": "string",
          "name": "_owner",
          "type": "string"
        },
        {
          "internalType": "string",
          "name": "_token0",
          "type": "string"
        },
        {
          "internalType": "string",
          "name": "_token1",
          "type": "string"
        },
        {
          "internalType": "string",
          "name": "_fee",
          "type": "string"
        },
        {
          "internalType": "string",
          "name": "_tickLower",
          "type": "string"
        },
        {
          "internalType": "string",
          "name": "_tickUpper",
          "type": "string"
        },
        {
          "internalType": "string",
          "name": "_amount",
          "type": "string"
        },
        {
          "internalType": "bytes32",
          "name": "_poolID",
          "type": "bytes32"
        }
      ],
      "name": "drawSVG",
      "outputs": [
        {
          "internalType": "string",
          "name": "",
          "type": "string"
        }
      ],
      "stateMutability": "pure",
      "type": "function"
    },
    {
      "inputs": [
        {
          "internalType": "uint256",
          "name": "_tokenID",
          "type": "uint256"
        }
      ],
      "name": "generateOnchainNFT",
      "outputs": [
        {
          "internalType": "string",
          "name": "",
          "type": "string"
        }
      ],
      "stateMutability": "view",
      "type": "function"
    },
    {
      "inputs": [
        {
          "internalType": "uint256",
          "name": "tokenId",
          "type": "uint256"
        }
      ],
      "name": "getApproved",
      "outputs": [
        {
          "internalType": "address",
          "name": "",
          "type": "address"
        }
      ],
      "stateMutability": "view",
      "type": "function"
    },
    {
      "inputs": [
        {
          "internalType": "address",
          "name": "owner",
          "type": "address"
        },
        {
          "internalType": "address",
          "name": "operator",
          "type": "address"
        }
      ],
      "name": "isApprovedForAll",
      "outputs": [
        {
          "internalType": "bool",
          "name": "",
          "type": "bool"
        }
      ],
      "stateMutability": "view",
      "type": "function"
    },
    {
      "inputs": [
        {
          "internalType": "address",
          "name": "_owner",
          "type": "address"
        },
        {
          "internalType": "bytes32",
          "name": "_poolID",
          "type": "bytes32"
        },
        {
          "internalType": "uint256",
          "name": "_tickLower",
          "type": "uint256"
        },
        {
          "internalType": "uint256",
          "name": "_tickUpper",
          "type": "uint256"
        },
        {
          "internalType": "uint24",
          "name": "_amount",
          "type": "uint24"
        }
      ],
      "name": "mint",
      "outputs": [],
      "stateMutability": "nonpayable",
      "type": "function"
    },
    {
      "inputs": [],
      "name": "name",
      "outputs": [
        {
          "internalType": "string",
          "name": "",
          "type": "string"
        }
      ],
      "stateMutability": "view",
      "type": "function"
    },
    {
      "inputs": [],
      "name": "nextPoolID",
      "outputs": [
        {
          "internalType": "uint256",
          "name": "",
          "type": "uint256"
        }
      ],
      "stateMutability": "view",
      "type": "function"
    },
    {
      "inputs": [],
      "name": "nextTokenID",
      "outputs": [
        {
          "internalType": "uint256",
          "name": "",
          "type": "uint256"
        }
      ],
      "stateMutability": "view",
      "type": "function"
    },
    {
      "inputs": [
        {
          "internalType": "uint256",
          "name": "_tokenID",
          "type": "uint256"
        }
      ],
      "name": "nftInfo",
      "outputs": [
        {
          "internalType": "address",
          "name": "",
          "type": "address"
        },
        {
          "internalType": "uint256",
          "name": "",
          "type": "uint256"
        },
        {
          "internalType": "uint256",
          "name": "",
          "type": "uint256"
        },
        {
          "internalType": "uint24",
          "name": "",
          "type": "uint24"
        },
        {
          "internalType": "bytes32",
          "name": "",
          "type": "bytes32"
        }
      ],
      "stateMutability": "view",
      "type": "function"
    },
    {
      "inputs": [
        {
          "internalType": "uint256",
          "name": "tokenId",
          "type": "uint256"
        }
      ],
      "name": "ownerOf",
      "outputs": [
        {
          "internalType": "address",
          "name": "",
          "type": "address"
        }
      ],
      "stateMutability": "view",
      "type": "function"
    },
    {
      "inputs": [
        {
          "internalType": "bytes32",
          "name": "_poolID",
          "type": "bytes32"
        }
      ],
      "name": "poolInfo",
      "outputs": [
        {
          "internalType": "string",
          "name": "",
          "type": "string"
        },
        {
          "internalType": "string",
          "name": "",
          "type": "string"
        },
        {
          "internalType": "uint24",
          "name": "",
          "type": "uint24"
        }
      ],
      "stateMutability": "view",
      "type": "function"
    },
    {
      "inputs": [
        {
          "internalType": "address",
          "name": "from",
          "type": "address"
        },
        {
          "internalType": "address",
          "name": "to",
          "type": "address"
        },
        {
          "internalType": "uint256",
          "name": "tokenId",
          "type": "uint256"
        }
      ],
      "name": "safeTransferFrom",
      "outputs": [],
      "stateMutability": "nonpayable",
      "type": "function"
    },
    {
      "inputs": [
        {
          "internalType": "address",
          "name": "from",
          "type": "address"
        },
        {
          "internalType": "address",
          "name": "to",
          "type": "address"
        },
        {
          "internalType": "uint256",
          "name": "tokenId",
          "type": "uint256"
        },
        {
          "internalType": "bytes",
          "name": "data",
          "type": "bytes"
        }
      ],
      "name": "safeTransferFrom",
      "outputs": [],
      "stateMutability": "nonpayable",
      "type": "function"
    },
    {
      "inputs": [
        {
          "internalType": "address",
          "name": "operator",
          "type": "address"
        },
        {
          "internalType": "bool",
          "name": "approved",
          "type": "bool"
        }
      ],
      "name": "setApprovalForAll",
      "outputs": [],
      "stateMutability": "nonpayable",
      "type": "function"
    },
    {
      "inputs": [
        {
          "internalType": "bytes4",
          "name": "interfaceId",
          "type": "bytes4"
        }
      ],
      "name": "supportsInterface",
      "outputs": [
        {
          "internalType": "bool",
          "name": "",
          "type": "bool"
        }
      ],
      "stateMutability": "view",
      "type": "function"
    },
    {
      "inputs": [],
      "name": "symbol",
      "outputs": [
        {
          "internalType": "string",
          "name": "",
          "type": "string"
        }
      ],
      "stateMutability": "view",
      "type": "function"
    },
    {
      "inputs": [
        {
          "internalType": "bytes32",
          "name": "data",
          "type": "bytes32"
        }
      ],
      "name": "toHex",
      "outputs": [
        {
          "internalType": "string",
          "name": "",
          "type": "string"
        }
      ],
      "stateMutability": "pure",
      "type": "function"
    },
    {
      "inputs": [
        {
          "internalType": "uint256",
          "name": "tokenId",
          "type": "uint256"
        }
      ],
      "name": "tokenURI",
      "outputs": [
        {
          "internalType": "string",
          "name": "",
          "type": "string"
        }
      ],
      "stateMutability": "view",
      "type": "function"
    },
    {
      "inputs": [
        {
          "internalType": "address",
          "name": "from",
          "type": "address"
        },
        {
          "internalType": "address",
          "name": "to",
          "type": "address"
        },
        {
          "internalType": "uint256",
          "name": "tokenId",
          "type": "uint256"
        }
      ],
      "name": "transferFrom",
      "outputs": [],
      "stateMutability": "nonpayable",
      "type": "function"
    }
  ],
  "bytecode": "0x6080604052600060065560006007553480156200001b57600080fd5b506040518060400160405280600b81526020017f506f736974696f6e4e46540000000000000000000000000000000000000000008152506040518060400160405280600481526020017f504e4654000000000000000000000000000000000000000000000000000000008152508160009080519060200190620000a0929190620000c2565b508060019080519060200190620000b9929190620000c2565b505050620001d7565b828054620000d09062000172565b90600052602060002090601f016020900481019282620000f4576000855562000140565b82601f106200010f57805160ff191683800117855562000140565b8280016001018555821562000140579182015b828111156200013f57825182559160200191906001019062000122565b5b5090506200014f919062000153565b5090565b5b808211156200016e57600081600090555060010162000154565b5090565b600060028204905060018216806200018b57607f821691505b60208210811415620001a257620001a1620001a8565b5b50919050565b7f4e487b7100000000000000000000000000000000000000000000000000000000600052602260045260246000fd5b6156ea80620001e76000396000f3fe60806040523480156200001157600080fd5b5060043610620001785760003560e01c80636352211e11620000d5578063a22cb4651162000087578063a22cb465146200048f578063b88d4fde14620004af578063c87b56dd14620004cf578063e985e9c51462000505578063f101e481146200053b578063f718bb2e146200055d5762000178565b80636352211e14620003735780636d2e769514620003a957806370a0823114620003df5780638cebd942146200041557806395d89b41146200044d5780639d3372f6146200046f5762000178565b80632f6e3b6e116200012f5780632f6e3b6e1462000285578063390724ac14620002a557806342842e0e14620002c757806342966c6814620002e757806344b893af146200030757806349e894d8146200033d5762000178565b806301ffc9a7146200017d57806306fdde0314620001b3578063081812fc14620001d5578063095ea7b3146200020b5780631f8bc790146200022b57806323b872dd1462000265575b600080fd5b6200019b600480360381019062000195919062002ed0565b6200057f565b604051620001aa919062003b9d565b60405180910390f35b620001bd62000665565b604051620001cc919062003c07565b60405180910390f35b620001f36004803603810190620001ed9190620031aa565b620006ff565b60405162000202919062003aab565b60405180910390f35b62000229600480360381019062000223919062002df7565b62000747565b005b620002496004803603810190620002439190620031aa565b62000870565b6040516200025c95949392919062003b1c565b60405180910390f35b6200028360048036038101906200027d919062002c59565b62000961565b005b620002a360048036038101906200029d91906200309a565b620009ca565b005b620002af62000ad2565b604051620002be919062003e0e565b60405180910390f35b620002e56004803603810190620002df919062002c59565b62000ad8565b005b620003056004803603810190620002ff9190620031aa565b62000afa565b005b6200032560048036038101906200031f919062002f28565b62000b08565b60405162000334919062003c07565b60405180910390f35b6200035b600480360381019062000355919062002e38565b62000b7d565b6040516200036a919062003c07565b60405180910390f35b6200039160048036038101906200038b9190620031aa565b62000bc2565b604051620003a0919062003aab565b60405180910390f35b620003c76004803603810190620003c19190620031aa565b62000c4e565b604051620003d6919062003c07565b60405180910390f35b620003fd6004803603810190620003f7919062002bec565b62000ce6565b6040516200040c919062003e0e565b60405180910390f35b6200043360048036038101906200042d919062002e38565b62000da1565b604051620004449392919062003c2b565b60405180910390f35b6200045762000e7d565b60405162000466919062003c07565b60405180910390f35b6200048d600480360381019062000487919062002d75565b62000f17565b005b620004ad6004803603810190620004a7919062002d34565b62000fd8565b005b620004cd6004803603810190620004c7919062002caf565b62000ff2565b005b620004ed6004803603810190620004e79190620031aa565b6200105d565b604051620004fc919062003c07565b60405180910390f35b6200052360048036038101906200051d919062002c18565b620010cf565b60405162000532919062003b9d565b60405180910390f35b6200054562001163565b60405162000554919062003e0e565b60405180910390f35b6200056762001169565b60405162000576919062003b79565b60405180910390f35b60007f80ac58cd000000000000000000000000000000000000000000000000000000007bffffffffffffffffffffffffffffffffffffffffffffffffffffffff1916827bffffffffffffffffffffffffffffffffffffffffffffffffffffffff191614806200064b57507f5b5e139f000000000000000000000000000000000000000000000000000000007bffffffffffffffffffffffffffffffffffffffffffffffffffffffff1916827bffffffffffffffffffffffffffffffffffffffffffffffffffffffff1916145b806200065e57506200065d8262001268565b5b9050919050565b606060008054620006769062004138565b80601f0160208091040260200160405190810160405280929190818152602001828054620006a49062004138565b8015620006f55780601f10620006c957610100808354040283529160200191620006f5565b820191906000526020600020905b815481529060010190602001808311620006d757829003601f168201915b5050505050905090565b60006200070c82620012d2565b6004600083815260200190815260200160002060009054906101000a900473ffffffffffffffffffffffffffffffffffffffff169050919050565b6000620007548262000bc2565b90508073ffffffffffffffffffffffffffffffffffffffff168373ffffffffffffffffffffffffffffffffffffffff161415620007c8576040517f08c379a0000000000000000000000000000000000000000000000000000000008152600401620007bf9062003dca565b60405180910390fd5b8073ffffffffffffffffffffffffffffffffffffffff16620007e962001322565b73ffffffffffffffffffffffffffffffffffffffff1614806200081d57506200081c816200081662001322565b620010cf565b5b6200085f576040517f08c379a0000000000000000000000000000000000000000000000000000000008152600401620008569062003dec565b60405180910390fd5b6200086b83836200132a565b505050565b6000806000806000806000806000600960008b815260200190815260200160002060009054906101000a900473ffffffffffffffffffffffffffffffffffffffff1673ffffffffffffffffffffffffffffffffffffffff16637b05fe626040518163ffffffff1660e01b815260040160806040518083038186803b158015620008f857600080fd5b505afa1580156200090d573d6000803e3d6000fd5b505050506040513d601f19601f8201168201806040525081019062000933919062002e64565b9350935093509350620009468a62000bc2565b83838387985098509850985098505050505091939590929450565b620009766200096f62001322565b82620013e5565b620009b8576040517f08c379a0000000000000000000000000000000000000000000000000000000008152600401620009af9062003c98565b60405180910390fd5b620009c583838362001482565b505050565b828282604051602001620009e19392919062003869565b604051602081830303815290604052805190602001206008600060075481526020019081526020016000208190555082828260405162000a219062002994565b62000a2f9392919062003c2b565b604051809103906000f08015801562000a4c573d6000803e3d6000fd5b50600a600060086000600754815260200190815260200160002054815260200190815260200160002060006101000a81548173ffffffffffffffffffffffffffffffffffffffff021916908373ffffffffffffffffffffffffffffffffffffffff1602179055506007600081548092919062000ac890620041a4565b9190505550505050565b60075481565b62000af58383836040518060200160405280600081525062000ff2565b505050565b62000b05816200178d565b50565b60606000888862000b198562000b7d565b8c8989898f8f8f60405160200162000b3b9a99989796959493929190620038a4565b60405160208183030381529060405290508060405160200162000b5f919062003a78565b60405160208183030381529060405291505098975050505050505050565b606062000b8a82620018e3565b62000b99608084901b620018e3565b60405160200162000bac92919062003a3b565b6040516020818303038152906040529050919050565b60008062000bd08362001b4b565b9050600073ffffffffffffffffffffffffffffffffffffffff168173ffffffffffffffffffffffffffffffffffffffff16141562000c45576040517f08c379a000000000000000000000000000000000000000000000000000000000815260040162000c3c9062003da8565b60405180910390fd5b80915050919050565b6060600080600080600062000c638762000870565b94509450945094509450600080600062000c7d8462000da1565b925092509250600062000cd362000c948a62001b88565b858562000ca68662ffffff1662001bb7565b62000cb18d62001bb7565b62000cbc8d62001bb7565b62000ccc8d62ffffff1662001bb7565b8c62000b08565b9050809950505050505050505050919050565b60008073ffffffffffffffffffffffffffffffffffffffff168273ffffffffffffffffffffffffffffffffffffffff16141562000d5a576040517f08c379a000000000000000000000000000000000000000000000000000000000815260040162000d519062003d64565b60405180910390fd5b600360008373ffffffffffffffffffffffffffffffffffffffff1673ffffffffffffffffffffffffffffffffffffffff168152602001908152602001600020549050919050565b606080600080600080600a600088815260200190815260200160002060009054906101000a900473ffffffffffffffffffffffffffffffffffffffff1673ffffffffffffffffffffffffffffffffffffffff16635a2f3d096040518163ffffffff1660e01b815260040160006040518083038186803b15801562000e2457600080fd5b505afa15801562000e39573d6000803e3d6000fd5b505050506040513d6000823e3d601f19601f8201168201806040525081019062000e64919062003122565b9250925092508282829550955095505050509193909250565b60606001805462000e8e9062004138565b80601f016020809104026020016040519081016040528092919081815260200182805462000ebc9062004138565b801562000f0d5780601f1062000ee15761010080835404028352916020019162000f0d565b820191906000526020600020905b81548152906001019060200180831162000eef57829003601f168201915b5050505050905090565b62000f258560065462001ce4565b8383838360405162000f3790620029a2565b62000f46949392919062003bba565b604051809103906000f08015801562000f63573d6000803e3d6000fd5b5060096000600654815260200190815260200160002060006101000a81548173ffffffffffffffffffffffffffffffffffffffff021916908373ffffffffffffffffffffffffffffffffffffffff1602179055506006600081548092919062000fcc90620041a4565b91905055505050505050565b62000fee62000fe662001322565b838362001f13565b5050565b620010076200100062001322565b83620013e5565b62001049576040517f08c379a0000000000000000000000000000000000000000000000000000000008152600401620010409062003c98565b60405180910390fd5b620010578484848462002085565b50505050565b60606200106a82620012d2565b600062001076620020e8565b90506000815111620010985760405180602001604052806000815250620010c7565b80620010a48462001bb7565b604051602001620010b792919062003841565b6040516020818303038152906040525b915050919050565b6000600560008473ffffffffffffffffffffffffffffffffffffffff1673ffffffffffffffffffffffffffffffffffffffff16815260200190815260200160002060008373ffffffffffffffffffffffffffffffffffffffff1673ffffffffffffffffffffffffffffffffffffffff16815260200190815260200160002060009054906101000a900460ff16905092915050565b60065481565b6060600060075467ffffffffffffffff811115620011b0577f4e487b7100000000000000000000000000000000000000000000000000000000600052604160045260246000fd5b604051908082528060200260200182016040528015620011df5781602001602082028036833780820191505090505b50905060005b600754811015620012605760086000828152602001908152602001600020548282815181106200123e577f4e487b7100000000000000000000000000000000000000000000000000000000600052603260045260246000fd5b60200260200101818152505080806200125790620041a4565b915050620011e5565b508091505090565b60007f01ffc9a7000000000000000000000000000000000000000000000000000000007bffffffffffffffffffffffffffffffffffffffffffffffffffffffff1916827bffffffffffffffffffffffffffffffffffffffffffffffffffffffff1916149050919050565b620012dd81620020ff565b6200131f576040517f08c379a0000000000000000000000000000000000000000000000000000000008152600401620013169062003da8565b60405180910390fd5b50565b600033905090565b816004600083815260200190815260200160002060006101000a81548173ffffffffffffffffffffffffffffffffffffffff021916908373ffffffffffffffffffffffffffffffffffffffff160217905550808273ffffffffffffffffffffffffffffffffffffffff166200139f8362000bc2565b73ffffffffffffffffffffffffffffffffffffffff167f8c5be1e5ebec7d5bd14f71427d1e84f3dd0314c0f7b2291e5b200ac8c7c3b92560405160405180910390a45050565b600080620013f38362000bc2565b90508073ffffffffffffffffffffffffffffffffffffffff168473ffffffffffffffffffffffffffffffffffffffff161480620014385750620014378185620010cf565b5b806200147957508373ffffffffffffffffffffffffffffffffffffffff166200146184620006ff565b73ffffffffffffffffffffffffffffffffffffffff16145b91505092915050565b8273ffffffffffffffffffffffffffffffffffffffff16620014a48262000bc2565b73ffffffffffffffffffffffffffffffffffffffff1614620014fd576040517f08c379a0000000000000000000000000000000000000000000000000000000008152600401620014f49062003cdc565b60405180910390fd5b600073ffffffffffffffffffffffffffffffffffffffff168273ffffffffffffffffffffffffffffffffffffffff16141562001570576040517f08c379a0000000000000000000000000000000000000000000000000000000008152600401620015679062003d20565b60405180910390fd5b6200157f838383600162002142565b8273ffffffffffffffffffffffffffffffffffffffff16620015a18262000bc2565b73ffffffffffffffffffffffffffffffffffffffff1614620015fa576040517f08c379a0000000000000000000000000000000000000000000000000000000008152600401620015f19062003cdc565b60405180910390fd5b6004600082815260200190815260200160002060006101000a81549073ffffffffffffffffffffffffffffffffffffffff02191690556001600360008573ffffffffffffffffffffffffffffffffffffffff1673ffffffffffffffffffffffffffffffffffffffff168152602001908152602001600020600082825403925050819055506001600360008473ffffffffffffffffffffffffffffffffffffffff1673ffffffffffffffffffffffffffffffffffffffff16815260200190815260200160002060008282540192505081905550816002600083815260200190815260200160002060006101000a81548173ffffffffffffffffffffffffffffffffffffffff021916908373ffffffffffffffffffffffffffffffffffffffff160217905550808273ffffffffffffffffffffffffffffffffffffffff168473ffffffffffffffffffffffffffffffffffffffff167fddf252ad1be2c89b69c2b068fc378daa952ba7f163c4a11628f55a4df523b3ef60405160405180910390a46200178883838360016200226f565b505050565b60006200179a8262000bc2565b9050620017ac81600084600162002142565b620017b78262000bc2565b90506004600083815260200190815260200160002060006101000a81549073ffffffffffffffffffffffffffffffffffffffff02191690556001600360008373ffffffffffffffffffffffffffffffffffffffff1673ffffffffffffffffffffffffffffffffffffffff168152602001908152602001600020600082825403925050819055506002600083815260200190815260200160002060006101000a81549073ffffffffffffffffffffffffffffffffffffffff021916905581600073ffffffffffffffffffffffffffffffffffffffff168273ffffffffffffffffffffffffffffffffffffffff167fddf252ad1be2c89b69c2b068fc378daa952ba7f163c4a11628f55a4df523b3ef60405160405180910390a4620018df8160008460016200226f565b5050565b6000604077ffffffffffffffff0000000000000000000000000000000060001b836fffffffffffffffffffffffffffffffff191616901c7fffffffffffffffff00000000000000000000000000000000000000000000000060001b836fffffffffffffffffffffffffffffffff19161617905060207bffffffff000000000000000000000000ffffffff000000000000000060001b8216901c7fffffffff000000000000000000000000ffffffff00000000000000000000000060001b821617905060107dffff000000000000ffff000000000000ffff000000000000ffff0000000060001b8216901c7fffff000000000000ffff000000000000ffff000000000000ffff00000000000060001b821617905060087eff000000ff000000ff000000ff000000ff000000ff000000ff000000ff000060001b8216901c7fff000000ff000000ff000000ff000000ff000000ff000000ff000000ff00000060001b821617905060087f0f000f000f000f000f000f000f000f000f000f000f000f000f000f000f000f0060001b8216901c60047ff000f000f000f000f000f000f000f000f000f000f000f000f000f000f000f00060001b8316901c17905060077f0f0f0f0f0f0f0f0f0f0f0f0f0f0f0f0f0f0f0f0f0f0f0f0f0f0f0f0f0f0f0f0f60047f06060606060606060606060606060606060606060606060606060606060606068460001c62001af5919062003f3c565b901c1662001b04919062003f99565b8160001c7f303030303030303030303030303030303030303030303030303030303030303062001b35919062003f3c565b62001b41919062003f3c565b60001b9050919050565b60006002600083815260200190815260200160002060009054906101000a900473ffffffffffffffffffffffffffffffffffffffff169050919050565b606062001bb08273ffffffffffffffffffffffffffffffffffffffff16601460ff1662002275565b9050919050565b60606000600162001bc88462002584565b01905060008167ffffffffffffffff81111562001c0e577f4e487b7100000000000000000000000000000000000000000000000000000000600052604160045260246000fd5b6040519080825280601f01601f19166020018201604052801562001c415781602001600182028036833780820191505090505b509050600082602001820190505b60011562001cd9578080600190039150507f3031323334353637383961626364656600000000000000000000000000000000600a86061a8153600a858162001cc0577f4e487b7100000000000000000000000000000000000000000000000000000000600052601260045260246000fd5b049450600085141562001cd35762001cd9565b62001c4f565b819350505050919050565b600073ffffffffffffffffffffffffffffffffffffffff168273ffffffffffffffffffffffffffffffffffffffff16141562001d57576040517f08c379a000000000000000000000000000000000000000000000000000000000815260040162001d4e9062003d86565b60405180910390fd5b62001d6281620020ff565b1562001da5576040517f08c379a000000000000000000000000000000000000000000000000000000000815260040162001d9c9062003cfe565b60405180910390fd5b62001db560008383600162002142565b62001dc081620020ff565b1562001e03576040517f08c379a000000000000000000000000000000000000000000000000000000000815260040162001dfa9062003cfe565b60405180910390fd5b6001600360008473ffffffffffffffffffffffffffffffffffffffff1673ffffffffffffffffffffffffffffffffffffffff16815260200190815260200160002060008282540192505081905550816002600083815260200190815260200160002060006101000a81548173ffffffffffffffffffffffffffffffffffffffff021916908373ffffffffffffffffffffffffffffffffffffffff160217905550808273ffffffffffffffffffffffffffffffffffffffff16600073ffffffffffffffffffffffffffffffffffffffff167fddf252ad1be2c89b69c2b068fc378daa952ba7f163c4a11628f55a4df523b3ef60405160405180910390a462001f0f6000838360016200226f565b5050565b8173ffffffffffffffffffffffffffffffffffffffff168373ffffffffffffffffffffffffffffffffffffffff16141562001f85576040517f08c379a000000000000000000000000000000000000000000000000000000000815260040162001f7c9062003d42565b60405180910390fd5b80600560008573ffffffffffffffffffffffffffffffffffffffff1673ffffffffffffffffffffffffffffffffffffffff16815260200190815260200160002060008473ffffffffffffffffffffffffffffffffffffffff1673ffffffffffffffffffffffffffffffffffffffff16815260200190815260200160002060006101000a81548160ff0219169083151502179055508173ffffffffffffffffffffffffffffffffffffffff168373ffffffffffffffffffffffffffffffffffffffff167f17307eab39ab6107e8899845ad3d59bd9653f200f220920489ca2b5937696c318360405162002078919062003b9d565b60405180910390a3505050565b6200209284848462001482565b620020a084848484620027c8565b620020e2576040517f08c379a0000000000000000000000000000000000000000000000000000000008152600401620020d99062003cba565b60405180910390fd5b50505050565b606060405180602001604052806000815250905090565b60008073ffffffffffffffffffffffffffffffffffffffff16620021238362001b4b565b73ffffffffffffffffffffffffffffffffffffffff1614159050919050565b60018111156200226957600073ffffffffffffffffffffffffffffffffffffffff168473ffffffffffffffffffffffffffffffffffffffff1614620021da5780600360008673ffffffffffffffffffffffffffffffffffffffff1673ffffffffffffffffffffffffffffffffffffffff1681526020019081526020016000206000828254620021d2919062003ffa565b925050819055505b600073ffffffffffffffffffffffffffffffffffffffff168373ffffffffffffffffffffffffffffffffffffffff1614620022685780600360008573ffffffffffffffffffffffffffffffffffffffff1673ffffffffffffffffffffffffffffffffffffffff168152602001908152602001600020600082825462002260919062003f3c565b925050819055505b5b50505050565b50505050565b6060600060028360026200228a919062003f99565b62002296919062003f3c565b67ffffffffffffffff811115620022d6577f4e487b7100000000000000000000000000000000000000000000000000000000600052604160045260246000fd5b6040519080825280601f01601f191660200182016040528015620023095781602001600182028036833780820191505090505b5090507f30000000000000000000000000000000000000000000000000000000000000008160008151811062002368577f4e487b7100000000000000000000000000000000000000000000000000000000600052603260045260246000fd5b60200101907effffffffffffffffffffffffffffffffffffffffffffffffffffffffffffff1916908160001a9053507f780000000000000000000000000000000000000000000000000000000000000081600181518110620023f3577f4e487b7100000000000000000000000000000000000000000000000000000000600052603260045260246000fd5b60200101907effffffffffffffffffffffffffffffffffffffffffffffffffffffffffffff1916908160001a9053506000600184600262002435919062003f99565b62002441919062003f3c565b90505b600181111562002533577f3031323334353637383961626364656600000000000000000000000000000000600f861660108110620024ab577f4e487b7100000000000000000000000000000000000000000000000000000000600052603260045260246000fd5b1a60f81b828281518110620024e9577f4e487b7100000000000000000000000000000000000000000000000000000000600052603260045260246000fd5b60200101907effffffffffffffffffffffffffffffffffffffffffffffffffffffffffffff1916908160001a905350600485901c9450806200252b9062004109565b905062002444565b50600084146200257a576040517f08c379a0000000000000000000000000000000000000000000000000000000008152600401620025719062003c76565b60405180910390fd5b8091505092915050565b600080600090507a184f03e93ff9f4daa797ed6e38ed64bf6a1f01000000000000000083106200260a577a184f03e93ff9f4daa797ed6e38ed64bf6a1f010000000000000000838162002600577f4e487b7100000000000000000000000000000000000000000000000000000000600052601260045260246000fd5b0492506040810190505b6d04ee2d6d415b85acef810000000083106200266f576d04ee2d6d415b85acef8100000000838162002665577f4e487b7100000000000000000000000000000000000000000000000000000000600052601260045260246000fd5b0492506020810190505b662386f26fc100008310620026c657662386f26fc100008381620026bc577f4e487b7100000000000000000000000000000000000000000000000000000000600052601260045260246000fd5b0492506010810190505b6305f5e100831062002717576305f5e10083816200270d577f4e487b7100000000000000000000000000000000000000000000000000000000600052601260045260246000fd5b0492506008810190505b6127108310620027645761271083816200275a577f4e487b7100000000000000000000000000000000000000000000000000000000600052601260045260246000fd5b0492506004810190505b60648310620027af5760648381620027a5577f4e487b7100000000000000000000000000000000000000000000000000000000600052601260045260246000fd5b0492506002810190505b600a8310620027bf576001810190505b80915050919050565b6000620027eb8473ffffffffffffffffffffffffffffffffffffffff1662002971565b1562002964578373ffffffffffffffffffffffffffffffffffffffff1663150b7a026200281762001322565b8786866040518563ffffffff1660e01b81526004016200283b949392919062003ac8565b602060405180830381600087803b1580156200285657600080fd5b505af19250505080156200288a57506040513d601f19601f8201168201806040525081019062002887919062002efc565b60015b62002913573d8060008114620028bd576040519150601f19603f3d011682016040523d82523d6000602084013e620028c2565b606091505b506000815114156200290b576040517f08c379a0000000000000000000000000000000000000000000000000000000008152600401620029029062003cba565b60405180910390fd5b805181602001fd5b63150b7a0260e01b7bffffffffffffffffffffffffffffffffffffffffffffffffffffffff1916817bffffffffffffffffffffffffffffffffffffffffffffffffffffffff19161491505062002969565b600190505b949350505050565b6000808273ffffffffffffffffffffffffffffffffffffffff163b119050919050565b6106d68062004d0c83390190565b6102d380620053e283390190565b6000620029c7620029c18462003e54565b62003e2b565b905082815260208101848484011115620029e057600080fd5b620029ed848285620040c4565b509392505050565b600062002a0c62002a068462003e8a565b62003e2b565b90508281526020810184848401111562002a2557600080fd5b62002a32848285620040c4565b509392505050565b600062002a5162002a4b8462003e8a565b62003e2b565b90508281526020810184848401111562002a6a57600080fd5b62002a77848285620040d3565b509392505050565b60008135905062002a908162004c6f565b92915050565b60008135905062002aa78162004c89565b92915050565b60008135905062002abe8162004ca3565b92915050565b60008151905062002ad58162004ca3565b92915050565b60008135905062002aec8162004cbd565b92915050565b60008151905062002b038162004cbd565b92915050565b600082601f83011262002b1b57600080fd5b813562002b2d848260208601620029b0565b91505092915050565b600082601f83011262002b4857600080fd5b813562002b5a848260208601620029f5565b91505092915050565b600082601f83011262002b7557600080fd5b815162002b8784826020860162002a3a565b91505092915050565b60008135905062002ba18162004cd7565b92915050565b60008151905062002bb88162004cd7565b92915050565b60008135905062002bcf8162004cf1565b92915050565b60008151905062002be68162004cf1565b92915050565b60006020828403121562002bff57600080fd5b600062002c0f8482850162002a7f565b91505092915050565b6000806040838503121562002c2c57600080fd5b600062002c3c8582860162002a7f565b925050602062002c4f8582860162002a7f565b9150509250929050565b60008060006060848603121562002c6f57600080fd5b600062002c7f8682870162002a7f565b935050602062002c928682870162002a7f565b925050604062002ca58682870162002bbe565b9150509250925092565b6000806000806080858703121562002cc657600080fd5b600062002cd68782880162002a7f565b945050602062002ce98782880162002a7f565b935050604062002cfc8782880162002bbe565b925050606085013567ffffffffffffffff81111562002d1a57600080fd5b62002d288782880162002b09565b91505092959194509250565b6000806040838503121562002d4857600080fd5b600062002d588582860162002a7f565b925050602062002d6b8582860162002a96565b9150509250929050565b600080600080600060a0868803121562002d8e57600080fd5b600062002d9e8882890162002a7f565b955050602062002db18882890162002aad565b945050604062002dc48882890162002bbe565b935050606062002dd78882890162002bbe565b925050608062002dea8882890162002b90565b9150509295509295909350565b6000806040838503121562002e0b57600080fd5b600062002e1b8582860162002a7f565b925050602062002e2e8582860162002bbe565b9150509250929050565b60006020828403121562002e4b57600080fd5b600062002e5b8482850162002aad565b91505092915050565b6000806000806080858703121562002e7b57600080fd5b600062002e8b8782880162002ac4565b945050602062002e9e8782880162002bd5565b935050604062002eb18782880162002bd5565b925050606062002ec48782880162002ba7565b91505092959194509250565b60006020828403121562002ee357600080fd5b600062002ef38482850162002adb565b91505092915050565b60006020828403121562002f0f57600080fd5b600062002f1f8482850162002af2565b91505092915050565b600080600080600080600080610100898b03121562002f4657600080fd5b600089013567ffffffffffffffff81111562002f6157600080fd5b62002f6f8b828c0162002b36565b985050602089013567ffffffffffffffff81111562002f8d57600080fd5b62002f9b8b828c0162002b36565b975050604089013567ffffffffffffffff81111562002fb957600080fd5b62002fc78b828c0162002b36565b965050606089013567ffffffffffffffff81111562002fe557600080fd5b62002ff38b828c0162002b36565b955050608089013567ffffffffffffffff8111156200301157600080fd5b6200301f8b828c0162002b36565b94505060a089013567ffffffffffffffff8111156200303d57600080fd5b6200304b8b828c0162002b36565b93505060c089013567ffffffffffffffff8111156200306957600080fd5b620030778b828c0162002b36565b92505060e06200308a8b828c0162002aad565b9150509295985092959890939650565b600080600060608486031215620030b057600080fd5b600084013567ffffffffffffffff811115620030cb57600080fd5b620030d98682870162002b36565b935050602084013567ffffffffffffffff811115620030f757600080fd5b620031058682870162002b36565b9250506040620031188682870162002b90565b9150509250925092565b6000806000606084860312156200313857600080fd5b600084015167ffffffffffffffff8111156200315357600080fd5b620031618682870162002b63565b935050602084015167ffffffffffffffff8111156200317f57600080fd5b6200318d8682870162002b63565b9250506040620031a08682870162002ba7565b9150509250925092565b600060208284031215620031bd57600080fd5b6000620031cd8482850162002bbe565b91505092915050565b6000620031e483836200327c565b60208301905092915050565b620031fb8162004035565b82525050565b60006200320e8262003ed0565b6200321a818562003efe565b9350620032278362003ec0565b8060005b838110156200325e578151620032428882620031d6565b97506200324f8362003ef1565b9250506001810190506200322b565b5085935050505092915050565b620032768162004049565b82525050565b620032878162004055565b82525050565b620032988162004055565b82525050565b620032b3620032ad8262004055565b620041f2565b82525050565b6000620032c68262003edb565b620032d2818562003f0f565b9350620032e4818560208601620040d3565b620032ef816200429d565b840191505092915050565b6000620033078262003ee6565b62003313818562003f20565b935062003325818560208601620040d3565b62003330816200429d565b840191505092915050565b6000620033488262003ee6565b62003354818562003f31565b935062003366818560208601620040d3565b80840191505092915050565b60006200338160208362003f20565b91506200338e82620042bb565b602082019050919050565b6000620033a8603e8362003f31565b9150620033b582620042e4565b603e82019050919050565b6000620033cf602d8362003f20565b9150620033dc8262004333565b604082019050919050565b6000620033f6600f8362003f31565b9150620034038262004382565b600f82019050919050565b60006200341d601c8362003f31565b91506200342a82620043ab565b601c82019050919050565b60006200344460328362003f20565b91506200345182620043d4565b604082019050919050565b60006200346b605c8362003f31565b9150620034788262004423565b605c82019050919050565b60006200349260258362003f20565b91506200349f8262004498565b604082019050919050565b6000620034b9601c8362003f20565b9150620034c682620044e7565b602082019050919050565b6000620034e060b88362003f31565b9150620034ed8262004510565b60b882019050919050565b60006200350760028362003f31565b91506200351482620045f7565b600282019050919050565b60006200352e605b8362003f31565b91506200353b8262004620565b605b82019050919050565b60006200355560248362003f20565b9150620035628262004695565b604082019050919050565b60006200357c60198362003f20565b91506200358982620046e4565b602082019050919050565b6000620035a360ba8362003f31565b9150620035b0826200470d565b60ba82019050919050565b6000620035ca601c8362003f31565b9150620035d782620047f4565b601c82019050919050565b6000620035f160298362003f20565b9150620035fe826200481d565b604082019050919050565b600062003618605c8362003f31565b915062003625826200486c565b605c82019050919050565b60006200363f60138362003f31565b91506200364c82620048e1565b601382019050919050565b600062003666603f8362003f31565b915062003673826200490a565b603f82019050919050565b60006200368d60208362003f20565b91506200369a8262004959565b602082019050919050565b6000620036b460138362003f31565b9150620036c18262004982565b601382019050919050565b6000620036db60998362003f31565b9150620036e882620049ab565b609982019050919050565b60006200370260188362003f20565b91506200370f8262004a6c565b602082019050919050565b60006200372960218362003f20565b9150620037368262004a95565b604082019050919050565b600062003750603d8362003f20565b91506200375d8262004ae4565b604082019050919050565b600062003777605c8362003f31565b9150620037848262004b33565b605c82019050919050565b60006200379e60068362003f31565b9150620037ab8262004ba8565b600682019050919050565b6000620037c560018362003f31565b9150620037d28262004bd1565b600182019050919050565b6000620037ec605a8362003f31565b9150620037f98262004bfa565b605a82019050919050565b6200380f81620040ab565b82525050565b6200382a6200382482620040ab565b620041fc565b82525050565b6200383b81620040ba565b82525050565b60006200384f82856200333b565b91506200385d82846200333b565b91508190509392505050565b60006200387782866200333b565b91506200388582856200333b565b915062003893828462003815565b600382019150819050949350505050565b6000620038b18262003399565b9150620038be8262003657565b9150620038cb826200351f565b9150620038d9828d6200333b565b9150620038e682620037b6565b9150620038f4828c6200333b565b91506200390182620033e7565b91506200390e82620037dd565b91506200391c828b6200333b565b91506200392982620033e7565b9150620039368262003609565b915062003944828a6200333b565b91506200395182620033e7565b91506200395e82620034d1565b91506200396b8262003768565b91506200397982896200333b565b915062003986826200340e565b91506200399482886200333b565b9150620039a182620035bb565b9150620039af82876200333b565b9150620039bc8262003630565b9150620039c98262003594565b9150620039d6826200345c565b9150620039e482866200333b565b9150620039f1826200340e565b9150620039ff82856200333b565b915062003a0c82620035bb565b915062003a1a82846200333b565b915062003a2782620036a5565b91508190509b9a5050505050505050505050565b600062003a4882620034f8565b915062003a5682856200329e565b60208201915062003a6882846200329e565b6020820191508190509392505050565b600062003a8582620036cc565b915062003a9382846200333b565b915062003aa0826200378f565b915081905092915050565b600060208201905062003ac26000830184620031f0565b92915050565b600060808201905062003adf6000830187620031f0565b62003aee6020830186620031f0565b62003afd604083018562003830565b818103606083015262003b118184620032b9565b905095945050505050565b600060a08201905062003b336000830188620031f0565b62003b42602083018762003830565b62003b51604083018662003830565b62003b60606083018562003804565b62003b6f60808301846200328d565b9695505050505050565b6000602082019050818103600083015262003b95818462003201565b905092915050565b600060208201905062003bb460008301846200326b565b92915050565b600060808201905062003bd160008301876200328d565b62003be0602083018662003830565b62003bef604083018562003830565b62003bfe606083018462003804565b95945050505050565b6000602082019050818103600083015262003c238184620032fa565b905092915050565b6000606082019050818103600083015262003c478186620032fa565b9050818103602083015262003c5d8185620032fa565b905062003c6e604083018462003804565b949350505050565b6000602082019050818103600083015262003c918162003372565b9050919050565b6000602082019050818103600083015262003cb381620033c0565b9050919050565b6000602082019050818103600083015262003cd58162003435565b9050919050565b6000602082019050818103600083015262003cf78162003483565b9050919050565b6000602082019050818103600083015262003d1981620034aa565b9050919050565b6000602082019050818103600083015262003d3b8162003546565b9050919050565b6000602082019050818103600083015262003d5d816200356d565b9050919050565b6000602082019050818103600083015262003d7f81620035e2565b9050919050565b6000602082019050818103600083015262003da1816200367e565b9050919050565b6000602082019050818103600083015262003dc381620036f3565b9050919050565b6000602082019050818103600083015262003de5816200371a565b9050919050565b6000602082019050818103600083015262003e078162003741565b9050919050565b600060208201905062003e25600083018462003830565b92915050565b600062003e3762003e4a565b905062003e4582826200416e565b919050565b6000604051905090565b600067ffffffffffffffff82111562003e725762003e716200426e565b5b62003e7d826200429d565b9050602081019050919050565b600067ffffffffffffffff82111562003ea85762003ea76200426e565b5b62003eb3826200429d565b9050602081019050919050565b6000819050602082019050919050565b600081519050919050565b600081519050919050565b600081519050919050565b6000602082019050919050565b600082825260208201905092915050565b600082825260208201905092915050565b600082825260208201905092915050565b600081905092915050565b600062003f4982620040ba565b915062003f5683620040ba565b9250827fffffffffffffffffffffffffffffffffffffffffffffffffffffffffffffffff0382111562003f8e5762003f8d62004210565b5b828201905092915050565b600062003fa682620040ba565b915062003fb383620040ba565b9250817fffffffffffffffffffffffffffffffffffffffffffffffffffffffffffffffff048311821515161562003fef5762003fee62004210565b5b828202905092915050565b60006200400782620040ba565b91506200401483620040ba565b9250828210156200402a576200402962004210565b5b828203905092915050565b600062004042826200408b565b9050919050565b60008115159050919050565b6000819050919050565b60007fffffffff0000000000000000000000000000000000000000000000000000000082169050919050565b600073ffffffffffffffffffffffffffffffffffffffff82169050919050565b600062ffffff82169050919050565b6000819050919050565b82818337600083830152505050565b60005b83811015620040f3578082015181840152602081019050620040d6565b8381111562004103576000848401525b50505050565b60006200411682620040ba565b915060008214156200412d576200412c62004210565b5b600182039050919050565b600060028204905060018216806200415157607f821691505b602082108114156200416857620041676200423f565b5b50919050565b62004179826200429d565b810181811067ffffffffffffffff821117156200419b576200419a6200426e565b5b80604052505050565b6000620041b182620040ba565b91507fffffffffffffffffffffffffffffffffffffffffffffffffffffffffffffffff821415620041e757620041e662004210565b5b600182019050919050565b6000819050919050565b60006200420982620042ae565b9050919050565b7f4e487b7100000000000000000000000000000000000000000000000000000000600052601160045260246000fd5b7f4e487b7100000000000000000000000000000000000000000000000000000000600052602260045260246000fd5b7f4e487b7100000000000000000000000000000000000000000000000000000000600052604160045260246000fd5b6000601f19601f8301169050919050565b60008160e81b9050919050565b7f537472696e67733a20686578206c656e67746820696e73756666696369656e74600082015250565b7f3c7376672076696577426f783d2230203020333030203530302220786d6c6e7360008201527f3d22687474703a2f2f7777772e77332e6f72672f323030302f737667223e0000602082015250565b7f4552433732313a2063616c6c6572206973206e6f7420746f6b656e206f776e6560008201527f72206f7220617070726f76656400000000000000000000000000000000000000602082015250565b7f3c2f747370616e3e3c2f746578743e0000000000000000000000000000000000600082015250565b7f3c2f747370616e3e3c747370616e20783d22302220793d223230223e00000000600082015250565b7f4552433732313a207472616e7366657220746f206e6f6e20455243373231526560008201527f63656976657220696d706c656d656e7465720000000000000000000000000000602082015250565b7f3c74657874207472616e73666f726d3d227472616e736c61746528313835203260008201527f343629222066696c6c3d22236666662220666f6e742d66616d696c793d22526f60208201527f626f746f2220666f6e742d73697a653d223230223e3c747370616e3e00000000604082015250565b7f4552433732313a207472616e736665722066726f6d20696e636f72726563742060008201527f6f776e6572000000000000000000000000000000000000000000000000000000602082015250565b7f4552433732313a20746f6b656e20616c7265616479206d696e74656400000000600082015250565b7f3c74657874207472616e73666f726d3d227472616e736c61746528353020313160008201527f3629222066696c6c3d22236666662220666f6e742d66616d696c793d22526f6260208201527f6f746f2220666f6e742d73697a653d223230223e3c747370616e3e4d696e207460408201527f69636b3c2f747370616e3e3c747370616e20783d22302220793d223230223e4d60608201527f6178207469636b3c2f747370616e3e3c747370616e20783d22302220793d223460808201527f30223e416d6f756e743c2f747370616e3e3c2f746578743e000000000000000060a082015250565b7f3078000000000000000000000000000000000000000000000000000000000000600082015250565b7f3c74657874207472616e73666f726d3d227472616e736c61746528353620343760008201527f3029222066696c6c3d22236666662220666f6e742d66616d696c793d22526f6260208201527f6f746f2220666f6e742d73697a653d223435223e3c747370616e3e0000000000604082015250565b7f4552433732313a207472616e7366657220746f20746865207a65726f2061646460008201527f7265737300000000000000000000000000000000000000000000000000000000602082015250565b7f4552433732313a20617070726f766520746f2063616c6c657200000000000000600082015250565b7f3c74657874207472616e73666f726d3d227472616e736c61746528353020323460008201527f3629222066696c6c3d22236666662220666f6e742d66616d696c793d22526f6260208201527f6f746f2220666f6e742d73697a653d223230223e3c747370616e3e422e20746f60408201527f6b656e3c2f747370616e3e3c747370616e20783d22302220793d223230223e5160608201527f2e20746f6b656e3c2f747370616e3e3c747370616e20783d22302220793d223460808201527f30223e46656520746965723c2f747370616e3e3c2f746578743e00000000000060a082015250565b7f3c2f747370616e3e3c747370616e20783d22302220793d223430223e00000000600082015250565b7f4552433732313a2061646472657373207a65726f206973206e6f74206120766160008201527f6c6964206f776e65720000000000000000000000000000000000000000000000602082015250565b7f3c74657874207472616e73666f726d3d22726f74617465282d3930203334352060008201527f363029222066696c6c3d22236666662220666f6e742d66616d696c793d22526f60208201527f626f746f2220666f6e742d73697a653d223138223e3c747370616e3e00000000604082015250565b7f204554483c2f747370616e3e3c2f746578743e00000000000000000000000000600082015250565b7f3c726563742077696474683d2233303022206865696768743d2235303022207260008201527f783d223430222072793d223430222066696c6c3d2223313232333437222f3e00602082015250565b7f4552433732313a206d696e7420746f20746865207a65726f2061646472657373600082015250565b7f2070706d3c2f747370616e3e3c2f746578743e00000000000000000000000000600082015250565b7f3c7376672069643d224e4654222077696474683d22313030252220686569676860008201527f743d2231303025222076657273696f6e3d22312e31222076696577426f783d2260208201527f3020302036342036342220786d6c6e733d22687474703a2f2f7777772e77332e60408201527f6f72672f323030302f7376672220786d6c6e733a786c696e6b3d22687474703a60608201527f2f2f7777772e77332e6f72672f313939392f786c696e6b223e00000000000000608082015250565b7f4552433732313a20696e76616c696420746f6b656e2049440000000000000000600082015250565b7f4552433732313a20617070726f76616c20746f2063757272656e74206f776e6560008201527f7200000000000000000000000000000000000000000000000000000000000000602082015250565b7f4552433732313a20617070726f76652063616c6c6572206973206e6f7420746f60008201527f6b656e206f776e6572206f7220617070726f76656420666f7220616c6c000000602082015250565b7f3c74657874207472616e73666f726d3d227472616e736c61746528313835203160008201527f313629222066696c6c3d22236666662220666f6e742d66616d696c793d22526f60208201527f626f746f2220666f6e742d73697a653d223230223e3c747370616e3e00000000604082015250565b7f3c2f7376673e0000000000000000000000000000000000000000000000000000600082015250565b7f2f00000000000000000000000000000000000000000000000000000000000000600082015250565b7f3c74657874207472616e73666f726d3d22726f74617465283930202d3120313860008201527f29222066696c6c3d22236666662220666f6e742d66616d696c793d22526f626f60208201527f746f2220666f6e742d73697a653d223132223e3c747370616e3e000000000000604082015250565b62004c7a8162004035565b811462004c8657600080fd5b50565b62004c948162004049565b811462004ca057600080fd5b50565b62004cae8162004055565b811462004cba57600080fd5b50565b62004cc8816200405f565b811462004cd457600080fd5b50565b62004ce281620040ab565b811462004cee57600080fd5b50565b62004cfc81620040ba565b811462004d0857600080fd5b5056fe608060405234801561001057600080fd5b506040516106d63803806106d6833981810160405281019061003291906101a7565b8260009080519060200190610048929190610087565b50816001908051906020019061005f929190610087565b5080600260006101000a81548162ffffff021916908362ffffff1602179055505050506103a7565b828054610093906102be565b90600052602060002090601f0160209004810192826100b557600085556100fc565b82601f106100ce57805160ff19168380011785556100fc565b828001600101855582156100fc579182015b828111156100fb5782518255916020019190600101906100e0565b5b509050610109919061010d565b5090565b5b8082111561012657600081600090555060010161010e565b5090565b600061013d6101388461024b565b610226565b90508281526020810184848401111561015557600080fd5b61016084828561028b565b509392505050565b600082601f83011261017957600080fd5b815161018984826020860161012a565b91505092915050565b6000815190506101a181610390565b92915050565b6000806000606084860312156101bc57600080fd5b600084015167ffffffffffffffff8111156101d657600080fd5b6101e286828701610168565b935050602084015167ffffffffffffffff8111156101ff57600080fd5b61020b86828701610168565b925050604061021c86828701610192565b9150509250925092565b6000610230610241565b905061023c82826102f0565b919050565b6000604051905090565b600067ffffffffffffffff82111561026657610265610350565b5b61026f8261037f565b9050602081019050919050565b600062ffffff82169050919050565b60005b838110156102a957808201518184015260208101905061028e565b838111156102b8576000848401525b50505050565b600060028204905060018216806102d657607f821691505b602082108114156102ea576102e9610321565b5b50919050565b6102f98261037f565b810181811067ffffffffffffffff8211171561031857610317610350565b5b80604052505050565b7f4e487b7100000000000000000000000000000000000000000000000000000000600052602260045260246000fd5b7f4e487b7100000000000000000000000000000000000000000000000000000000600052604160045260246000fd5b6000601f19601f8301169050919050565b6103998161027c565b81146103a457600080fd5b50565b610320806103b66000396000f3fe608060405234801561001057600080fd5b506004361061002b5760003560e01c80635a2f3d0914610030575b600080fd5b610038610050565b604051610047939291906101d5565b60405180910390f35b6060806000806001600260009054906101000a900462ffffff1682805461007690610278565b80601f01602080910402602001604051908101604052809291908181526020018280546100a290610278565b80156100ef5780601f106100c4576101008083540402835291602001916100ef565b820191906000526020600020905b8154815290600101906020018083116100d257829003601f168201915b5050505050925081805461010290610278565b80601f016020809104026020016040519081016040528092919081815260200182805461012e90610278565b801561017b5780601f106101505761010080835404028352916020019161017b565b820191906000526020600020905b81548152906001019060200180831161015e57829003601f168201915b50505050509150925092509250909192565b60006101988261021a565b6101a28185610225565b93506101b2818560208601610245565b6101bb816102d9565b840191505092915050565b6101cf81610236565b82525050565b600060608201905081810360008301526101ef818661018d565b90508181036020830152610203818561018d565b905061021260408301846101c6565b949350505050565b600081519050919050565b600082825260208201905092915050565b600062ffffff82169050919050565b60005b83811015610263578082015181840152602081019050610248565b83811115610272576000848401525b50505050565b6000600282049050600182168061029057607f821691505b602082108114156102a4576102a36102aa565b5b50919050565b7f4e487b7100000000000000000000000000000000000000000000000000000000600052602260045260246000fd5b6000601f19601f830116905091905056fea26469706673582212205e134b6ffd81427878cd4273ba1129f13ab02a30ffe1fc0771dc5ce3a7f3d6a764736f6c63430008040033608060405234801561001057600080fd5b506040516102d33803806102d3833981810160405281019061003291906100ae565b82600181905550816002819055508360008190555080600360006101000a81548162ffffff021916908362ffffff16021790555050505050610179565b60008151905061007e81610134565b92915050565b6000815190506100938161014b565b92915050565b6000815190506100a881610162565b92915050565b600080600080608085870312156100c457600080fd5b60006100d28782880161006f565b94505060206100e387828801610099565b93505060406100f487828801610099565b925050606061010587828801610084565b91505092959194509250565b6000819050919050565b600062ffffff82169050919050565b6000819050919050565b61013d81610111565b811461014857600080fd5b50565b6101548161011b565b811461015f57600080fd5b50565b61016b8161012a565b811461017657600080fd5b50565b61014b806101886000396000f3fe608060405234801561001057600080fd5b506004361061002b5760003560e01c80637b05fe6214610030575b600080fd5b610038610051565b60405161004894939291906100ad565b60405180910390f35b600080600080600054600154600254600360009054906101000a900462ffffff16935093509350935090919293565b610089816100f2565b82525050565b610098816100fc565b82525050565b6100a78161010b565b82525050565b60006080820190506100c26000830187610080565b6100cf602083018661009e565b6100dc604083018561009e565b6100e9606083018461008f565b95945050505050565b6000819050919050565b600062ffffff82169050919050565b600081905091905056fea26469706673582212203ea054a9809e4ca735138ecc2afd58b2cd4672c789e9f4e78a416501ec8b6d8864736f6c63430008040033a26469706673582212203db5e857b463e85e21386c0ac4d5f9044169388641ba246a75447abc296fd0ef64736f6c63430008040033",
  "linkReferences": {},
  "deployedLinkReferences": {}
}