{
  "_format": "hh-sol-artifact-1",
  "contractName": "PositionNFT",
  "sourceName": "contracts/PositionNFT.sol",
  "abi": [
    {
      "inputs": [],
      "stateMutability": "nonpayable",
      "type": "constructor"
    },
    {
      "anonymous": false,
      "inputs": [
        {
          "indexed": true,
          "internalType": "address",
          "name": "owner",
          "type": "address"
        },
        {
          "indexed": true,
          "internalType": "address",
          "name": "approved",
          "type": "address"
        },
        {
          "indexed": true,
          "internalType": "uint256",
          "name": "tokenId",
          "type": "uint256"
        }
      ],
      "name": "Approval",
      "type": "event"
    },
    {
      "anonymous": false,
      "inputs": [
        {
          "indexed": true,
          "internalType": "address",
          "name": "owner",
          "type": "address"
        },
        {
          "indexed": true,
          "internalType": "address",
          "name": "operator",
          "type": "address"
        },
        {
          "indexed": false,
          "internalType": "bool",
          "name": "approved",
          "type": "bool"
        }
      ],
      "name": "ApprovalForAll",
      "type": "event"
    },
    {
      "anonymous": false,
      "inputs": [
        {
          "indexed": true,
          "internalType": "address",
          "name": "from",
          "type": "address"
        },
        {
          "indexed": true,
          "internalType": "address",
          "name": "to",
          "type": "address"
        },
        {
          "indexed": true,
          "internalType": "uint256",
          "name": "tokenId",
          "type": "uint256"
        }
      ],
      "name": "Transfer",
      "type": "event"
    },
    {
      "inputs": [
        {
          "internalType": "string",
          "name": "_token0",
          "type": "string"
        },
        {
          "internalType": "string",
          "name": "_token1",
          "type": "string"
        },
        {
          "internalType": "uint24",
          "name": "_fee",
          "type": "uint24"
        }
      ],
      "name": "addPool",
      "outputs": [],
      "stateMutability": "nonpayable",
      "type": "function"
    },
    {
      "inputs": [
        {
          "internalType": "address",
          "name": "to",
          "type": "address"
        },
        {
          "internalType": "uint256",
          "name": "tokenId",
          "type": "uint256"
        }
      ],
      "name": "approve",
      "outputs": [],
      "stateMutability": "nonpayable",
      "type": "function"
    },
    {
      "inputs": [],
      "name": "availablePools",
      "outputs": [
        {
          "internalType": "bytes32[]",
          "name": "",
          "type": "bytes32[]"
        }
      ],
      "stateMutability": "view",
      "type": "function"
    },
    {
      "inputs": [
        {
          "internalType": "address",
          "name": "owner",
          "type": "address"
        }
      ],
      "name": "balanceOf",
      "outputs": [
        {
          "internalType": "uint256",
          "name": "",
          "type": "uint256"
        }
      ],
      "stateMutability": "view",
      "type": "function"
    },
    {
      "inputs": [
        {
          "internalType": "uint256",
          "name": "tokenId",
          "type": "uint256"
        }
      ],
      "name": "getApproved",
      "outputs": [
        {
          "internalType": "address",
          "name": "",
          "type": "address"
        }
      ],
      "stateMutability": "view",
      "type": "function"
    },
    {
      "inputs": [
        {
          "internalType": "address",
          "name": "owner",
          "type": "address"
        },
        {
          "internalType": "address",
          "name": "operator",
          "type": "address"
        }
      ],
      "name": "isApprovedForAll",
      "outputs": [
        {
          "internalType": "bool",
          "name": "",
          "type": "bool"
        }
      ],
      "stateMutability": "view",
      "type": "function"
    },
    {
      "inputs": [
        {
          "internalType": "address",
          "name": "_owner",
          "type": "address"
        },
        {
          "internalType": "bytes32",
          "name": "_poolID",
          "type": "bytes32"
        },
        {
          "internalType": "uint256",
          "name": "_tickLower",
          "type": "uint256"
        },
        {
          "internalType": "uint256",
          "name": "_tickUpper",
          "type": "uint256"
        },
        {
          "internalType": "uint24",
          "name": "_amount",
          "type": "uint24"
        }
      ],
      "name": "mint",
      "outputs": [],
      "stateMutability": "nonpayable",
      "type": "function"
    },
    {
      "inputs": [],
      "name": "name",
      "outputs": [
        {
          "internalType": "string",
          "name": "",
          "type": "string"
        }
      ],
      "stateMutability": "view",
      "type": "function"
    },
    {
      "inputs": [],
      "name": "nextPoolID",
      "outputs": [
        {
          "internalType": "uint256",
          "name": "",
          "type": "uint256"
        }
      ],
      "stateMutability": "view",
      "type": "function"
    },
    {
      "inputs": [],
      "name": "nextTokenID",
      "outputs": [
        {
          "internalType": "uint256",
          "name": "",
          "type": "uint256"
        }
      ],
      "stateMutability": "view",
      "type": "function"
    },
    {
      "inputs": [
        {
          "internalType": "uint256",
          "name": "_tokenID",
          "type": "uint256"
        }
      ],
      "name": "nftInfo",
      "outputs": [
        {
          "internalType": "address",
          "name": "",
          "type": "address"
        },
        {
          "internalType": "uint256",
          "name": "",
          "type": "uint256"
        },
        {
          "internalType": "uint256",
          "name": "",
          "type": "uint256"
        },
        {
          "internalType": "uint24",
          "name": "",
          "type": "uint24"
        },
        {
          "internalType": "bytes32",
          "name": "",
          "type": "bytes32"
        }
      ],
      "stateMutability": "view",
      "type": "function"
    },
    {
      "inputs": [
        {
          "internalType": "uint256",
          "name": "tokenId",
          "type": "uint256"
        }
      ],
      "name": "ownerOf",
      "outputs": [
        {
          "internalType": "address",
          "name": "",
          "type": "address"
        }
      ],
      "stateMutability": "view",
      "type": "function"
    },
    {
      "inputs": [
        {
          "internalType": "bytes32",
          "name": "_poolID",
          "type": "bytes32"
        }
      ],
      "name": "poolInfo",
      "outputs": [
        {
          "internalType": "string",
          "name": "",
          "type": "string"
        },
        {
          "internalType": "string",
          "name": "",
          "type": "string"
        },
        {
          "internalType": "uint24",
          "name": "",
          "type": "uint24"
        }
      ],
      "stateMutability": "view",
      "type": "function"
    },
    {
      "inputs": [
        {
          "internalType": "address",
          "name": "from",
          "type": "address"
        },
        {
          "internalType": "address",
          "name": "to",
          "type": "address"
        },
        {
          "internalType": "uint256",
          "name": "tokenId",
          "type": "uint256"
        }
      ],
      "name": "safeTransferFrom",
      "outputs": [],
      "stateMutability": "nonpayable",
      "type": "function"
    },
    {
      "inputs": [
        {
          "internalType": "address",
          "name": "from",
          "type": "address"
        },
        {
          "internalType": "address",
          "name": "to",
          "type": "address"
        },
        {
          "internalType": "uint256",
          "name": "tokenId",
          "type": "uint256"
        },
        {
          "internalType": "bytes",
          "name": "data",
          "type": "bytes"
        }
      ],
      "name": "safeTransferFrom",
      "outputs": [],
      "stateMutability": "nonpayable",
      "type": "function"
    },
    {
      "inputs": [
        {
          "internalType": "address",
          "name": "operator",
          "type": "address"
        },
        {
          "internalType": "bool",
          "name": "approved",
          "type": "bool"
        }
      ],
      "name": "setApprovalForAll",
      "outputs": [],
      "stateMutability": "nonpayable",
      "type": "function"
    },
    {
      "inputs": [
        {
          "internalType": "bytes4",
          "name": "interfaceId",
          "type": "bytes4"
        }
      ],
      "name": "supportsInterface",
      "outputs": [
        {
          "internalType": "bool",
          "name": "",
          "type": "bool"
        }
      ],
      "stateMutability": "view",
      "type": "function"
    },
    {
      "inputs": [],
      "name": "symbol",
      "outputs": [
        {
          "internalType": "string",
          "name": "",
          "type": "string"
        }
      ],
      "stateMutability": "view",
      "type": "function"
    },
    {
      "inputs": [
        {
          "internalType": "uint256",
          "name": "tokenId",
          "type": "uint256"
        }
      ],
      "name": "tokenURI",
      "outputs": [
        {
          "internalType": "string",
          "name": "",
          "type": "string"
        }
      ],
      "stateMutability": "view",
      "type": "function"
    },
    {
      "inputs": [
        {
          "internalType": "address",
          "name": "from",
          "type": "address"
        },
        {
          "internalType": "address",
          "name": "to",
          "type": "address"
        },
        {
          "internalType": "uint256",
          "name": "tokenId",
          "type": "uint256"
        }
      ],
      "name": "transferFrom",
      "outputs": [],
      "stateMutability": "nonpayable",
      "type": "function"
    }
  ],
  "bytecode": "0x6080604052600060075560006008553480156200001b57600080fd5b506040518060400160405280600b81526020017f506f736974696f6e4e46540000000000000000000000000000000000000000008152506040518060400160405280600481526020017f504e4654000000000000000000000000000000000000000000000000000000008152508160009080519060200190620000a0929190620000c2565b508060019080519060200190620000b9929190620000c2565b505050620001d6565b828054620000d090620001a1565b90600052602060002090601f016020900481019282620000f4576000855562000140565b82601f106200010f57805160ff191683800117855562000140565b8280016001018555821562000140579182015b828111156200013f57825182559160200191906001019062000122565b5b5090506200014f919062000153565b5090565b5b808211156200016e57600081600090555060010162000154565b5090565b7f4e487b7100000000000000000000000000000000000000000000000000000000600052602260045260246000fd5b60006002820490506001821680620001ba57607f821691505b602082108103620001d057620001cf62000172565b5b50919050565b615ad480620001e66000396000f3fe60806040523480156200001157600080fd5b5060043610620001485760003560e01c806370a0823111620000bd578063b88d4fde116200007b578063b88d4fde14620003bd578063c87b56dd14620003dd578063e985e9c51462000413578063f101e4811462000449578063f718bb2e146200046b5762000148565b806370a0823114620002ed5780638cebd942146200032357806395d89b41146200035b5780639d3372f6146200037d578063a22cb465146200039d5762000148565b806323b872dd116200010b57806323b872dd14620002355780632f6e3b6e1462000255578063390724ac146200027557806342842e0e14620002975780636352211e14620002b75762000148565b806301ffc9a7146200014d57806306fdde031462000183578063081812fc14620001a5578063095ea7b314620001db5780631f8bc79014620001fb575b600080fd5b6200016b600480360381019062000165919062002355565b6200048d565b6040516200017a9190620023a4565b60405180910390f35b6200018d62000573565b6040516200019c919062002465565b60405180910390f35b620001c36004803603810190620001bd9190620024c4565b6200060d565b604051620001d291906200253b565b60405180910390f35b620001f96004803603810190620001f3919062002589565b62000655565b005b620002196004803603810190620002139190620024c4565b6200077d565b6040516200022c9594939291906200261c565b60405180910390f35b6200025360048036038101906200024d919062002679565b6200085e565b005b6200027360048036038101906200026d919062002857565b620008c7565b005b6200027f620009da565b6040516200028e9190620028f1565b60405180910390f35b620002b56004803603810190620002af919062002679565b620009e0565b005b620002d56004803603810190620002cf9190620024c4565b62000a02565b604051620002e491906200253b565b60405180910390f35b6200030b60048036038101906200030591906200290e565b62000a8d565b6040516200031a9190620028f1565b60405180910390f35b6200034160048036038101906200033b919062002971565b62000b47565b6040516200035293929190620029a3565b60405180910390f35b6200036562000cd3565b60405162000374919062002465565b60405180910390f35b6200039b6004803603810190620003959190620029ee565b62000d6d565b005b620003bb6004803603810190620003b5919062002aa7565b62000f4d565b005b620003db6004803603810190620003d5919062002ba2565b62000f67565b005b620003fb6004803603810190620003f59190620024c4565b62000fd2565b6040516200040a919062002465565b60405180910390f35b6200043160048036038101906200042b919062002c33565b620010f8565b604051620004409190620023a4565b60405180910390f35b620004536200118c565b604051620004629190620028f1565b60405180910390f35b6200047562001192565b60405162000484919062002d48565b60405180910390f35b60007f80ac58cd000000000000000000000000000000000000000000000000000000007bffffffffffffffffffffffffffffffffffffffffffffffffffffffff1916827bffffffffffffffffffffffffffffffffffffffffffffffffffffffff191614806200055957507f5b5e139f000000000000000000000000000000000000000000000000000000007bffffffffffffffffffffffffffffffffffffffffffffffffffffffff1916827bffffffffffffffffffffffffffffffffffffffffffffffffffffffff1916145b806200056c57506200056b8262001249565b5b9050919050565b606060008054620005849062002d9b565b80601f0160208091040260200160405190810160405280929190818152602001828054620005b29062002d9b565b8015620006035780601f10620005d75761010080835404028352916020019162000603565b820191906000526020600020905b815481529060010190602001808311620005e557829003601f168201915b5050505050905090565b60006200061a82620012b3565b6004600083815260200190815260200160002060009054906101000a900473ffffffffffffffffffffffffffffffffffffffff169050919050565b6000620006628262000a02565b90508073ffffffffffffffffffffffffffffffffffffffff168373ffffffffffffffffffffffffffffffffffffffff1603620006d5576040517f08c379a0000000000000000000000000000000000000000000000000000000008152600401620006cc9062002e46565b60405180910390fd5b8073ffffffffffffffffffffffffffffffffffffffff16620006f662001303565b73ffffffffffffffffffffffffffffffffffffffff1614806200072a575062000729816200072362001303565b620010f8565b5b6200076c576040517f08c379a0000000000000000000000000000000000000000000000000000000008152600401620007639062002ede565b60405180910390fd5b6200077883836200130b565b505050565b6000806000806000806000806000600a60008b815260200190815260200160002060009054906101000a900473ffffffffffffffffffffffffffffffffffffffff1673ffffffffffffffffffffffffffffffffffffffff16637b05fe626040518163ffffffff1660e01b8152600401608060405180830381865afa1580156200080a573d6000803e3d6000fd5b505050506040513d601f19601f8201168201806040525081019062000830919062002f45565b9350935093509350620008438a62000a02565b83838387985098509850985098505050505091939590929450565b620008736200086c62001303565b82620013c6565b620008b5576040517f08c379a0000000000000000000000000000000000000000000000000000000008152600401620008ac906200302d565b60405180910390fd5b620008c283838362001463565b505050565b828282604051602001620008de93929190620030cd565b604051602081830303815290604052805190602001206009600060085481526020019081526020016000208190555060405180606001604052808481526020018381526020018262ffffff16815250600b600060096000600854815260200190815260200160002054815260200190815260200160002060008201518160000190805190602001906200097392919062002226565b5060208201518160010190805190602001906200099292919062002226565b5060408201518160020160006101000a81548162ffffff021916908362ffffff16021790555090505060086000815480929190620009d09062003137565b9190505550505050565b60085481565b620009fd8383836040518060200160405280600081525062000f67565b505050565b60008062000a10836200176d565b9050600073ffffffffffffffffffffffffffffffffffffffff168173ffffffffffffffffffffffffffffffffffffffff160362000a84576040517f08c379a000000000000000000000000000000000000000000000000000000000815260040162000a7b90620031d4565b60405180910390fd5b80915050919050565b60008073ffffffffffffffffffffffffffffffffffffffff168273ffffffffffffffffffffffffffffffffffffffff160362000b00576040517f08c379a000000000000000000000000000000000000000000000000000000000815260040162000af7906200326c565b60405180910390fd5b600360008373ffffffffffffffffffffffffffffffffffffffff1673ffffffffffffffffffffffffffffffffffffffff168152602001908152602001600020549050919050565b6060806000600b6000858152602001908152602001600020600001600b6000868152602001908152602001600020600101600b600087815260200190815260200160002060020160009054906101000a900462ffffff1682805462000bac9062002d9b565b80601f016020809104026020016040519081016040528092919081815260200182805462000bda9062002d9b565b801562000c2b5780601f1062000bff5761010080835404028352916020019162000c2b565b820191906000526020600020905b81548152906001019060200180831162000c0d57829003601f168201915b5050505050925081805462000c409062002d9b565b80601f016020809104026020016040519081016040528092919081815260200182805462000c6e9062002d9b565b801562000cbf5780601f1062000c935761010080835404028352916020019162000cbf565b820191906000526020600020905b81548152906001019060200180831162000ca157829003601f168201915b505050505091509250925092509193909250565b60606001805462000ce49062002d9b565b80601f016020809104026020016040519081016040528092919081815260200182805462000d129062002d9b565b801562000d635780601f1062000d375761010080835404028352916020019162000d63565b820191906000526020600020905b81548152906001019060200180831162000d4557829003601f168201915b5050505050905090565b62000d7b85600754620017aa565b8383838360405162000d8d90620022b7565b62000d9c94939291906200328e565b604051809103906000f08015801562000db9573d6000803e3d6000fd5b50600a6000600754815260200190815260200160002060006101000a81548173ffffffffffffffffffffffffffffffffffffffff021916908373ffffffffffffffffffffffffffffffffffffffff16021790555062000f2c600754600a6000600754815260200190815260200160002060009054906101000a900473ffffffffffffffffffffffffffffffffffffffff1673ffffffffffffffffffffffffffffffffffffffff166345d7e2bb60075489600b60008b8152602001908152602001600020600001600b60008c8152602001908152602001600020600101600b60008d815260200190815260200160002060020160009054906101000a900462ffffff166040518663ffffffff1660e01b815260040162000edd9594939291906200337c565b600060405180830381865afa15801562000efb573d6000803e3d6000fd5b505050506040513d6000823e3d601f19601f8201168201806040525081019062000f26919062003465565b620019d8565b6007600081548092919062000f419062003137565b91905055505050505050565b62000f6362000f5b62001303565b838362001a53565b5050565b62000f7c62000f7562001303565b83620013c6565b62000fbe576040517f08c379a000000000000000000000000000000000000000000000000000000000815260040162000fb5906200302d565b60405180910390fd5b62000fcc8484848462001bc4565b50505050565b606062000fdf82620012b3565b6000600660008481526020019081526020016000208054620010019062002d9b565b80601f01602080910402602001604051908101604052809291908181526020018280546200102f9062002d9b565b8015620010805780601f10620010545761010080835404028352916020019162001080565b820191906000526020600020905b8154815290600101906020018083116200106257829003601f168201915b5050505050905060006200109362001c27565b90506000815103620010aa578192505050620010f3565b600082511115620010e3578082604051602001620010ca929190620034b6565b60405160208183030381529060405292505050620010f3565b620010ee8462001c3e565b925050505b919050565b6000600560008473ffffffffffffffffffffffffffffffffffffffff1673ffffffffffffffffffffffffffffffffffffffff16815260200190815260200160002060008373ffffffffffffffffffffffffffffffffffffffff1673ffffffffffffffffffffffffffffffffffffffff16815260200190815260200160002060009054906101000a900460ff16905092915050565b60075481565b6060600060085467ffffffffffffffff811115620011b557620011b4620026df565b5b604051908082528060200260200182016040528015620011e45781602001602082028036833780820191505090505b50905060005b600854811015620012415760096000828152602001908152602001600020548282815181106200121f576200121e620034de565b5b6020026020010181815250508080620012389062003137565b915050620011ea565b508091505090565b60007f01ffc9a7000000000000000000000000000000000000000000000000000000007bffffffffffffffffffffffffffffffffffffffffffffffffffffffff1916827bffffffffffffffffffffffffffffffffffffffffffffffffffffffff1916149050919050565b620012be8162001cb0565b62001300576040517f08c379a0000000000000000000000000000000000000000000000000000000008152600401620012f790620031d4565b60405180910390fd5b50565b600033905090565b816004600083815260200190815260200160002060006101000a81548173ffffffffffffffffffffffffffffffffffffffff021916908373ffffffffffffffffffffffffffffffffffffffff160217905550808273ffffffffffffffffffffffffffffffffffffffff16620013808362000a02565b73ffffffffffffffffffffffffffffffffffffffff167f8c5be1e5ebec7d5bd14f71427d1e84f3dd0314c0f7b2291e5b200ac8c7c3b92560405160405180910390a45050565b600080620013d48362000a02565b90508073ffffffffffffffffffffffffffffffffffffffff168473ffffffffffffffffffffffffffffffffffffffff161480620014195750620014188185620010f8565b5b806200145a57508373ffffffffffffffffffffffffffffffffffffffff1662001442846200060d565b73ffffffffffffffffffffffffffffffffffffffff16145b91505092915050565b8273ffffffffffffffffffffffffffffffffffffffff16620014858262000a02565b73ffffffffffffffffffffffffffffffffffffffff1614620014de576040517f08c379a0000000000000000000000000000000000000000000000000000000008152600401620014d59062003583565b60405180910390fd5b600073ffffffffffffffffffffffffffffffffffffffff168273ffffffffffffffffffffffffffffffffffffffff160362001550576040517f08c379a000000000000000000000000000000000000000000000000000000000815260040162001547906200361b565b60405180910390fd5b6200155f838383600162001cf3565b8273ffffffffffffffffffffffffffffffffffffffff16620015818262000a02565b73ffffffffffffffffffffffffffffffffffffffff1614620015da576040517f08c379a0000000000000000000000000000000000000000000000000000000008152600401620015d19062003583565b60405180910390fd5b6004600082815260200190815260200160002060006101000a81549073ffffffffffffffffffffffffffffffffffffffff02191690556001600360008573ffffffffffffffffffffffffffffffffffffffff1673ffffffffffffffffffffffffffffffffffffffff168152602001908152602001600020600082825403925050819055506001600360008473ffffffffffffffffffffffffffffffffffffffff1673ffffffffffffffffffffffffffffffffffffffff16815260200190815260200160002060008282540192505081905550816002600083815260200190815260200160002060006101000a81548173ffffffffffffffffffffffffffffffffffffffff021916908373ffffffffffffffffffffffffffffffffffffffff160217905550808273ffffffffffffffffffffffffffffffffffffffff168473ffffffffffffffffffffffffffffffffffffffff167fddf252ad1be2c89b69c2b068fc378daa952ba7f163c4a11628f55a4df523b3ef60405160405180910390a462001768838383600162001e20565b505050565b60006002600083815260200190815260200160002060009054906101000a900473ffffffffffffffffffffffffffffffffffffffff169050919050565b600073ffffffffffffffffffffffffffffffffffffffff168273ffffffffffffffffffffffffffffffffffffffff16036200181c576040517f08c379a000000000000000000000000000000000000000000000000000000000815260040162001813906200368d565b60405180910390fd5b620018278162001cb0565b156200186a576040517f08c379a00000000000000000000000000000000000000000000000000000000081526004016200186190620036ff565b60405180910390fd5b6200187a60008383600162001cf3565b620018858162001cb0565b15620018c8576040517f08c379a0000000000000000000000000000000000000000000000000000000008152600401620018bf90620036ff565b60405180910390fd5b6001600360008473ffffffffffffffffffffffffffffffffffffffff1673ffffffffffffffffffffffffffffffffffffffff16815260200190815260200160002060008282540192505081905550816002600083815260200190815260200160002060006101000a81548173ffffffffffffffffffffffffffffffffffffffff021916908373ffffffffffffffffffffffffffffffffffffffff160217905550808273ffffffffffffffffffffffffffffffffffffffff16600073ffffffffffffffffffffffffffffffffffffffff167fddf252ad1be2c89b69c2b068fc378daa952ba7f163c4a11628f55a4df523b3ef60405160405180910390a4620019d460008383600162001e20565b5050565b620019e38262001cb0565b62001a25576040517f08c379a000000000000000000000000000000000000000000000000000000000815260040162001a1c9062003797565b60405180910390fd5b8060066000848152602001908152602001600020908051906020019062001a4e92919062002226565b505050565b8173ffffffffffffffffffffffffffffffffffffffff168373ffffffffffffffffffffffffffffffffffffffff160362001ac4576040517f08c379a000000000000000000000000000000000000000000000000000000000815260040162001abb9062003809565b60405180910390fd5b80600560008573ffffffffffffffffffffffffffffffffffffffff1673ffffffffffffffffffffffffffffffffffffffff16815260200190815260200160002060008473ffffffffffffffffffffffffffffffffffffffff1673ffffffffffffffffffffffffffffffffffffffff16815260200190815260200160002060006101000a81548160ff0219169083151502179055508173ffffffffffffffffffffffffffffffffffffffff168373ffffffffffffffffffffffffffffffffffffffff167f17307eab39ab6107e8899845ad3d59bd9653f200f220920489ca2b5937696c318360405162001bb79190620023a4565b60405180910390a3505050565b62001bd184848462001463565b62001bdf8484848462001e26565b62001c21576040517f08c379a000000000000000000000000000000000000000000000000000000000815260040162001c1890620038a1565b60405180910390fd5b50505050565b606060405180602001604052806000815250905090565b606062001c4b82620012b3565b600062001c5762001c27565b9050600081511162001c79576040518060200160405280600081525062001ca8565b8062001c858462001fbe565b60405160200162001c98929190620034b6565b6040516020818303038152906040525b915050919050565b60008073ffffffffffffffffffffffffffffffffffffffff1662001cd4836200176d565b73ffffffffffffffffffffffffffffffffffffffff1614159050919050565b600181111562001e1a57600073ffffffffffffffffffffffffffffffffffffffff168473ffffffffffffffffffffffffffffffffffffffff161462001d8b5780600360008673ffffffffffffffffffffffffffffffffffffffff1673ffffffffffffffffffffffffffffffffffffffff168152602001908152602001600020600082825462001d839190620038c3565b925050819055505b600073ffffffffffffffffffffffffffffffffffffffff168373ffffffffffffffffffffffffffffffffffffffff161462001e195780600360008573ffffffffffffffffffffffffffffffffffffffff1673ffffffffffffffffffffffffffffffffffffffff168152602001908152602001600020600082825462001e119190620038fe565b925050819055505b5b50505050565b50505050565b600062001e498473ffffffffffffffffffffffffffffffffffffffff1662002097565b1562001fb1578373ffffffffffffffffffffffffffffffffffffffff1663150b7a0262001e7562001303565b8786866040518563ffffffff1660e01b815260040162001e999493929190620039b8565b6020604051808303816000875af192505050801562001ed857506040513d601f19601f8201168201806040525081019062001ed5919062003a23565b60015b62001f60573d806000811462001f0b576040519150601f19603f3d011682016040523d82523d6000602084013e62001f10565b606091505b50600081510362001f58576040517f08c379a000000000000000000000000000000000000000000000000000000000815260040162001f4f90620038a1565b60405180910390fd5b805181602001fd5b63150b7a0260e01b7bffffffffffffffffffffffffffffffffffffffffffffffffffffffff1916817bffffffffffffffffffffffffffffffffffffffffffffffffffffffff19161491505062001fb6565b600190505b949350505050565b60606000600162001fcf84620020ba565b01905060008167ffffffffffffffff81111562001ff15762001ff0620026df565b5b6040519080825280601f01601f191660200182016040528015620020245781602001600182028036833780820191505090505b509050600082602001820190505b6001156200208c578080600190039150507f3031323334353637383961626364656600000000000000000000000000000000600a86061a8153600a85816200207f576200207e62003a55565b5b0494506000850362002032575b819350505050919050565b6000808273ffffffffffffffffffffffffffffffffffffffff163b119050919050565b600080600090507a184f03e93ff9f4daa797ed6e38ed64bf6a1f01000000000000000083106200211c577a184f03e93ff9f4daa797ed6e38ed64bf6a1f010000000000000000838162002112576200211162003a55565b5b0492506040810190505b6d04ee2d6d415b85acef810000000083106200215d576d04ee2d6d415b85acef8100000000838162002153576200215262003a55565b5b0492506020810190505b662386f26fc1000083106200219057662386f26fc10000838162002186576200218562003a55565b5b0492506010810190505b6305f5e1008310620021bd576305f5e1008381620021b357620021b262003a55565b5b0492506008810190505b6127108310620021e6576127108381620021dc57620021db62003a55565b5b0492506004810190505b606483106200220d576064838162002203576200220262003a55565b5b0492506002810190505b600a83106200221d576001810190505b80915050919050565b828054620022349062002d9b565b90600052602060002090601f016020900481019282620022585760008555620022a4565b82601f106200227357805160ff1916838001178555620022a4565b82800160010185558215620022a4579182015b82811115620022a357825182559160200191906001019062002286565b5b509050620022b39190620022c5565b5090565b61201a8062003a8583390190565b5b80821115620022e0576000816000905550600101620022c6565b5090565b6000604051905090565b600080fd5b600080fd5b60007fffffffff0000000000000000000000000000000000000000000000000000000082169050919050565b6200232f81620022f8565b81146200233b57600080fd5b50565b6000813590506200234f8162002324565b92915050565b6000602082840312156200236e576200236d620022ee565b5b60006200237e848285016200233e565b91505092915050565b60008115159050919050565b6200239e8162002387565b82525050565b6000602082019050620023bb600083018462002393565b92915050565b600081519050919050565b600082825260208201905092915050565b60005b83811015620023fd578082015181840152602081019050620023e0565b838111156200240d576000848401525b50505050565b6000601f19601f8301169050919050565b60006200243182620023c1565b6200243d8185620023cc565b93506200244f818560208601620023dd565b6200245a8162002413565b840191505092915050565b6000602082019050818103600083015262002481818462002424565b905092915050565b6000819050919050565b6200249e8162002489565b8114620024aa57600080fd5b50565b600081359050620024be8162002493565b92915050565b600060208284031215620024dd57620024dc620022ee565b5b6000620024ed84828501620024ad565b91505092915050565b600073ffffffffffffffffffffffffffffffffffffffff82169050919050565b60006200252382620024f6565b9050919050565b620025358162002516565b82525050565b60006020820190506200255260008301846200252a565b92915050565b620025638162002516565b81146200256f57600080fd5b50565b600081359050620025838162002558565b92915050565b60008060408385031215620025a357620025a2620022ee565b5b6000620025b38582860162002572565b9250506020620025c685828601620024ad565b9150509250929050565b620025db8162002489565b82525050565b600062ffffff82169050919050565b620025fb81620025e1565b82525050565b6000819050919050565b620026168162002601565b82525050565b600060a0820190506200263360008301886200252a565b620026426020830187620025d0565b620026516040830186620025d0565b620026606060830185620025f0565b6200266f60808301846200260b565b9695505050505050565b600080600060608486031215620026955762002694620022ee565b5b6000620026a58682870162002572565b9350506020620026b88682870162002572565b9250506040620026cb86828701620024ad565b9150509250925092565b600080fd5b600080fd5b7f4e487b7100000000000000000000000000000000000000000000000000000000600052604160045260246000fd5b620027198262002413565b810181811067ffffffffffffffff821117156200273b576200273a620026df565b5b80604052505050565b600062002750620022e4565b90506200275e82826200270e565b919050565b600067ffffffffffffffff821115620027815762002780620026df565b5b6200278c8262002413565b9050602081019050919050565b82818337600083830152505050565b6000620027bf620027b98462002763565b62002744565b905082815260208101848484011115620027de57620027dd620026da565b5b620027eb84828562002799565b509392505050565b600082601f8301126200280b576200280a620026d5565b5b81356200281d848260208601620027a8565b91505092915050565b6200283181620025e1565b81146200283d57600080fd5b50565b600081359050620028518162002826565b92915050565b600080600060608486031215620028735762002872620022ee565b5b600084013567ffffffffffffffff811115620028945762002893620022f3565b5b620028a286828701620027f3565b935050602084013567ffffffffffffffff811115620028c657620028c5620022f3565b5b620028d486828701620027f3565b9250506040620028e78682870162002840565b9150509250925092565b6000602082019050620029086000830184620025d0565b92915050565b600060208284031215620029275762002926620022ee565b5b6000620029378482850162002572565b91505092915050565b6200294b8162002601565b81146200295757600080fd5b50565b6000813590506200296b8162002940565b92915050565b6000602082840312156200298a5762002989620022ee565b5b60006200299a848285016200295a565b91505092915050565b60006060820190508181036000830152620029bf818662002424565b90508181036020830152620029d5818562002424565b9050620029e66040830184620025f0565b949350505050565b600080600080600060a0868803121562002a0d5762002a0c620022ee565b5b600062002a1d8882890162002572565b955050602062002a30888289016200295a565b945050604062002a4388828901620024ad565b935050606062002a5688828901620024ad565b925050608062002a698882890162002840565b9150509295509295909350565b62002a818162002387565b811462002a8d57600080fd5b50565b60008135905062002aa18162002a76565b92915050565b6000806040838503121562002ac15762002ac0620022ee565b5b600062002ad18582860162002572565b925050602062002ae48582860162002a90565b9150509250929050565b600067ffffffffffffffff82111562002b0c5762002b0b620026df565b5b62002b178262002413565b9050602081019050919050565b600062002b3b62002b358462002aee565b62002744565b90508281526020810184848401111562002b5a5762002b59620026da565b5b62002b6784828562002799565b509392505050565b600082601f83011262002b875762002b86620026d5565b5b813562002b9984826020860162002b24565b91505092915050565b6000806000806080858703121562002bbf5762002bbe620022ee565b5b600062002bcf8782880162002572565b945050602062002be28782880162002572565b935050604062002bf587828801620024ad565b925050606085013567ffffffffffffffff81111562002c195762002c18620022f3565b5b62002c278782880162002b6f565b91505092959194509250565b6000806040838503121562002c4d5762002c4c620022ee565b5b600062002c5d8582860162002572565b925050602062002c708582860162002572565b9150509250929050565b600081519050919050565b600082825260208201905092915050565b6000819050602082019050919050565b62002cb18162002601565b82525050565b600062002cc5838362002ca6565b60208301905092915050565b6000602082019050919050565b600062002ceb8262002c7a565b62002cf7818562002c85565b935062002d048362002c96565b8060005b8381101562002d3b57815162002d1f888262002cb7565b975062002d2c8362002cd1565b92505060018101905062002d08565b5085935050505092915050565b6000602082019050818103600083015262002d64818462002cde565b905092915050565b7f4e487b7100000000000000000000000000000000000000000000000000000000600052602260045260246000fd5b6000600282049050600182168062002db457607f821691505b60208210810362002dca5762002dc962002d6c565b5b50919050565b7f4552433732313a20617070726f76616c20746f2063757272656e74206f776e6560008201527f7200000000000000000000000000000000000000000000000000000000000000602082015250565b600062002e2e602183620023cc565b915062002e3b8262002dd0565b604082019050919050565b6000602082019050818103600083015262002e618162002e1f565b9050919050565b7f4552433732313a20617070726f76652063616c6c6572206973206e6f7420746f60008201527f6b656e206f776e6572206f7220617070726f76656420666f7220616c6c000000602082015250565b600062002ec6603d83620023cc565b915062002ed38262002e68565b604082019050919050565b6000602082019050818103600083015262002ef98162002eb7565b9050919050565b60008151905062002f118162002940565b92915050565b60008151905062002f288162002493565b92915050565b60008151905062002f3f8162002826565b92915050565b6000806000806080858703121562002f625762002f61620022ee565b5b600062002f728782880162002f00565b945050602062002f858782880162002f17565b935050604062002f988782880162002f17565b925050606062002fab8782880162002f2e565b91505092959194509250565b7f4552433732313a2063616c6c6572206973206e6f7420746f6b656e206f776e6560008201527f72206f7220617070726f76656400000000000000000000000000000000000000602082015250565b600062003015602d83620023cc565b9150620030228262002fb7565b604082019050919050565b60006020820190508181036000830152620030488162003006565b9050919050565b600081905092915050565b60006200306782620023c1565b6200307381856200304f565b935062003085818560208601620023dd565b80840191505092915050565b60008160e81b9050919050565b6000620030ab8262003091565b9050919050565b620030c7620030c182620025e1565b6200309e565b82525050565b6000620030db82866200305a565b9150620030e982856200305a565b9150620030f78284620030b2565b600382019150819050949350505050565b7f4e487b7100000000000000000000000000000000000000000000000000000000600052601160045260246000fd5b6000620031448262002489565b91507fffffffffffffffffffffffffffffffffffffffffffffffffffffffffffffffff820362003179576200317862003108565b5b600182019050919050565b7f4552433732313a20696e76616c696420746f6b656e2049440000000000000000600082015250565b6000620031bc601883620023cc565b9150620031c98262003184565b602082019050919050565b60006020820190508181036000830152620031ef81620031ad565b9050919050565b7f4552433732313a2061646472657373207a65726f206973206e6f74206120766160008201527f6c6964206f776e65720000000000000000000000000000000000000000000000602082015250565b600062003254602983620023cc565b91506200326182620031f6565b604082019050919050565b60006020820190508181036000830152620032878162003245565b9050919050565b6000608082019050620032a560008301876200260b565b620032b46020830186620025d0565b620032c36040830185620025d0565b620032d26060830184620025f0565b95945050505050565b60008190508160005260206000209050919050565b60008154620032ff8162002d9b565b6200330b8186620023cc565b945060018216600081146200332957600181146200333c5762003373565b60ff198316865260208601935062003373565b6200334785620032db565b60005b838110156200336b578154818901526001820191506020810190506200334a565b808801955050505b50505092915050565b600060a082019050620033936000830188620025d0565b620033a260208301876200252a565b8181036040830152620033b68186620032f0565b90508181036060830152620033cc8185620032f0565b9050620033dd6080830184620025f0565b9695505050505050565b6000620033fe620033f88462002763565b62002744565b9050828152602081018484840111156200341d576200341c620026da565b5b6200342a848285620023dd565b509392505050565b600082601f8301126200344a5762003449620026d5565b5b81516200345c848260208601620033e7565b91505092915050565b6000602082840312156200347e576200347d620022ee565b5b600082015167ffffffffffffffff8111156200349f576200349e620022f3565b5b620034ad8482850162003432565b91505092915050565b6000620034c482856200305a565b9150620034d282846200305a565b91508190509392505050565b7f4e487b7100000000000000000000000000000000000000000000000000000000600052603260045260246000fd5b7f4552433732313a207472616e736665722066726f6d20696e636f72726563742060008201527f6f776e6572000000000000000000000000000000000000000000000000000000602082015250565b60006200356b602583620023cc565b915062003578826200350d565b604082019050919050565b600060208201905081810360008301526200359e816200355c565b9050919050565b7f4552433732313a207472616e7366657220746f20746865207a65726f2061646460008201527f7265737300000000000000000000000000000000000000000000000000000000602082015250565b600062003603602483620023cc565b91506200361082620035a5565b604082019050919050565b600060208201905081810360008301526200363681620035f4565b9050919050565b7f4552433732313a206d696e7420746f20746865207a65726f2061646472657373600082015250565b600062003675602083620023cc565b915062003682826200363d565b602082019050919050565b60006020820190508181036000830152620036a88162003666565b9050919050565b7f4552433732313a20746f6b656e20616c7265616479206d696e74656400000000600082015250565b6000620036e7601c83620023cc565b9150620036f482620036af565b602082019050919050565b600060208201905081810360008301526200371a81620036d8565b9050919050565b7f45524337323155524953746f726167653a2055524920736574206f66206e6f6e60008201527f6578697374656e7420746f6b656e000000000000000000000000000000000000602082015250565b60006200377f602e83620023cc565b91506200378c8262003721565b604082019050919050565b60006020820190508181036000830152620037b28162003770565b9050919050565b7f4552433732313a20617070726f766520746f2063616c6c657200000000000000600082015250565b6000620037f1601983620023cc565b9150620037fe82620037b9565b602082019050919050565b600060208201905081810360008301526200382481620037e2565b9050919050565b7f4552433732313a207472616e7366657220746f206e6f6e20455243373231526560008201527f63656976657220696d706c656d656e7465720000000000000000000000000000602082015250565b600062003889603283620023cc565b915062003896826200382b565b604082019050919050565b60006020820190508181036000830152620038bc816200387a565b9050919050565b6000620038d08262002489565b9150620038dd8362002489565b925082821015620038f357620038f262003108565b5b828203905092915050565b60006200390b8262002489565b9150620039188362002489565b9250827fffffffffffffffffffffffffffffffffffffffffffffffffffffffffffffffff0382111562003950576200394f62003108565b5b828201905092915050565b600081519050919050565b600082825260208201905092915050565b600062003984826200395b565b62003990818562003966565b9350620039a2818560208601620023dd565b620039ad8162002413565b840191505092915050565b6000608082019050620039cf60008301876200252a565b620039de60208301866200252a565b620039ed6040830185620025d0565b818103606083015262003a01818462003977565b905095945050505050565b60008151905062003a1d8162002324565b92915050565b60006020828403121562003a3c5762003a3b620022ee565b5b600062003a4c8482850162003a0c565b91505092915050565b7f4e487b7100000000000000000000000000000000000000000000000000000000600052601260045260246000fdfe60806040523480156200001157600080fd5b506040516200201a3803806200201a833981810160405281019062000037919062000130565b83600081905550826001819055508160028190555080600360006101000a81548162ffffff021916908362ffffff16021790555050505050620001a2565b600080fd5b6000819050919050565b6200008f816200007a565b81146200009b57600080fd5b50565b600081519050620000af8162000084565b92915050565b6000819050919050565b620000ca81620000b5565b8114620000d657600080fd5b50565b600081519050620000ea81620000bf565b92915050565b600062ffffff82169050919050565b6200010a81620000f0565b81146200011657600080fd5b50565b6000815190506200012a81620000ff565b92915050565b600080600080608085870312156200014d576200014c62000075565b5b60006200015d878288016200009e565b94505060206200017087828801620000d9565b93505060406200018387828801620000d9565b9250506060620001968782880162000119565b91505092959194509250565b611e6880620001b26000396000f3fe608060405234801561001057600080fd5b50600436106100365760003560e01c806345d7e2bb1461003b5780637b05fe621461006b575b600080fd5b61005560048036038101906100509190610c81565b61008c565b6040516100629190610dbc565b60405180910390f35b61007361011d565b6040516100839493929190610e15565b60405180910390f35b60606100f384846100a18562ffffff1661014c565b6100c26100ad8a61021a565b89896100bd8a62ffffff1661014c565b610247565b6100cb8b61014c565b6040516020016100df9594939291906110f6565b6040516020818303038152906040526102a6565b60405160200161010391906111e5565b604051602081830303815290604052905095945050505050565b600080600080600054600154600254600360009054906101000a900462ffffff16935093509350935090919293565b60606000600161015b8461042a565b01905060008167ffffffffffffffff81111561017a57610179610b1b565b5b6040519080825280601f01601f1916602001820160405280156101ac5781602001600182028036833780820191505090505b509050600082602001820190505b60011561020f578080600190039150507f3031323334353637383961626364656600000000000000000000000000000000600a86061a8153600a858161020357610202611207565b5b049450600085036101ba575b819350505050919050565b60606102408273ffffffffffffffffffffffffffffffffffffffff16601460ff1661057d565b9050919050565b606083836102566000546107b9565b87600154600254600360009054906101000a900462ffffff168a8b8b8b60405160200161028d9b9a999897969594939291906119f9565b6040516020818303038152906040529050949350505050565b606060008251036102c857604051806020016040528060008152509050610425565b6000604051806060016040528060408152602001611df360409139905060006003600285516102f79190611ba9565b6103019190611bff565b600461030d9190611c30565b9050600060208261031e9190611ba9565b67ffffffffffffffff81111561033757610336610b1b565b5b6040519080825280601f01601f1916602001820160405280156103695781602001600182028036833780820191505090505b509050818152600183018586518101602084015b818310156103e4576003830192508251603f8160121c1685015160f81b8252600182019150603f81600c1c1685015160f81b8252600182019150603f8160061c1685015160f81b8252600182019150603f811685015160f81b82526001820191505061037d565b6003895106600181146103fe576002811461040e57610419565b613d3d60f01b6002830352610419565b603d60f81b60018303525b50505050508093505050505b919050565b600080600090507a184f03e93ff9f4daa797ed6e38ed64bf6a1f0100000000000000008310610488577a184f03e93ff9f4daa797ed6e38ed64bf6a1f010000000000000000838161047e5761047d611207565b5b0492506040810190505b6d04ee2d6d415b85acef810000000083106104c5576d04ee2d6d415b85acef810000000083816104bb576104ba611207565b5b0492506020810190505b662386f26fc1000083106104f457662386f26fc1000083816104ea576104e9611207565b5b0492506010810190505b6305f5e100831061051d576305f5e100838161051357610512611207565b5b0492506008810190505b612710831061054257612710838161053857610537611207565b5b0492506004810190505b60648310610565576064838161055b5761055a611207565b5b0492506002810190505b600a8310610574576001810190505b80915050919050565b6060600060028360026105909190611c30565b61059a9190611ba9565b67ffffffffffffffff8111156105b3576105b2610b1b565b5b6040519080825280601f01601f1916602001820160405280156105e55781602001600182028036833780820191505090505b5090507f30000000000000000000000000000000000000000000000000000000000000008160008151811061061d5761061c611c8a565b5b60200101907effffffffffffffffffffffffffffffffffffffffffffffffffffffffffffff1916908160001a9053507f78000000000000000000000000000000000000000000000000000000000000008160018151811061068157610680611c8a565b5b60200101907effffffffffffffffffffffffffffffffffffffffffffffffffffffffffffff1916908160001a905350600060018460026106c19190611c30565b6106cb9190611ba9565b90505b600181111561076b577f3031323334353637383961626364656600000000000000000000000000000000600f86166010811061070d5761070c611c8a565b5b1a60f81b82828151811061072457610723611c8a565b5b60200101907effffffffffffffffffffffffffffffffffffffffffffffffffffffffffffff1916908160001a905350600485901c94508061076490611cb9565b90506106ce565b50600084146107af576040517f08c379a00000000000000000000000000000000000000000000000000000000081526004016107a690611d2e565b60405180910390fd5b8091505092915050565b60606107c4826107f8565b6107d1608084901b6107f8565b6040516020016107e2929190611dbb565b6040516020818303038152906040529050919050565b6000604077ffffffffffffffff0000000000000000000000000000000060001b836fffffffffffffffffffffffffffffffff191616901c7fffffffffffffffff00000000000000000000000000000000000000000000000060001b836fffffffffffffffffffffffffffffffff19161617905060207bffffffff000000000000000000000000ffffffff000000000000000060001b8216901c7fffffffff000000000000000000000000ffffffff00000000000000000000000060001b821617905060107dffff000000000000ffff000000000000ffff000000000000ffff0000000060001b8216901c7fffff000000000000ffff000000000000ffff000000000000ffff00000000000060001b821617905060087eff000000ff000000ff000000ff000000ff000000ff000000ff000000ff000060001b8216901c7fff000000ff000000ff000000ff000000ff000000ff000000ff000000ff00000060001b821617905060087f0f000f000f000f000f000f000f000f000f000f000f000f000f000f000f000f0060001b8216901c60047ff000f000f000f000f000f000f000f000f000f000f000f000f000f000f000f00060001b8316901c17905060077f0f0f0f0f0f0f0f0f0f0f0f0f0f0f0f0f0f0f0f0f0f0f0f0f0f0f0f0f0f0f0f0f60047f06060606060606060606060606060606060606060606060606060606060606068460001c610a089190611ba9565b901c16610a159190611c30565b8160001c7f3030303030303030303030303030303030303030303030303030303030303030610a449190611ba9565b610a4e9190611ba9565b60001b9050919050565b6000604051905090565b600080fd5b600080fd5b6000819050919050565b610a7f81610a6c565b8114610a8a57600080fd5b50565b600081359050610a9c81610a76565b92915050565b600073ffffffffffffffffffffffffffffffffffffffff82169050919050565b6000610acd82610aa2565b9050919050565b610add81610ac2565b8114610ae857600080fd5b50565b600081359050610afa81610ad4565b92915050565b600080fd5b600080fd5b6000601f19601f8301169050919050565b7f4e487b7100000000000000000000000000000000000000000000000000000000600052604160045260246000fd5b610b5382610b0a565b810181811067ffffffffffffffff82111715610b7257610b71610b1b565b5b80604052505050565b6000610b85610a58565b9050610b918282610b4a565b919050565b600067ffffffffffffffff821115610bb157610bb0610b1b565b5b610bba82610b0a565b9050602081019050919050565b82818337600083830152505050565b6000610be9610be484610b96565b610b7b565b905082815260208101848484011115610c0557610c04610b05565b5b610c10848285610bc7565b509392505050565b600082601f830112610c2d57610c2c610b00565b5b8135610c3d848260208601610bd6565b91505092915050565b600062ffffff82169050919050565b610c5e81610c46565b8114610c6957600080fd5b50565b600081359050610c7b81610c55565b92915050565b600080600080600060a08688031215610c9d57610c9c610a62565b5b6000610cab88828901610a8d565b9550506020610cbc88828901610aeb565b945050604086013567ffffffffffffffff811115610cdd57610cdc610a67565b5b610ce988828901610c18565b935050606086013567ffffffffffffffff811115610d0a57610d09610a67565b5b610d1688828901610c18565b9250506080610d2788828901610c6c565b9150509295509295909350565b600081519050919050565b600082825260208201905092915050565b60005b83811015610d6e578082015181840152602081019050610d53565b83811115610d7d576000848401525b50505050565b6000610d8e82610d34565b610d988185610d3f565b9350610da8818560208601610d50565b610db181610b0a565b840191505092915050565b60006020820190508181036000830152610dd68184610d83565b905092915050565b6000819050919050565b610df181610dde565b82525050565b610e0081610a6c565b82525050565b610e0f81610c46565b82525050565b6000608082019050610e2a6000830187610de8565b610e376020830186610df7565b610e446040830185610df7565b610e516060830184610e06565b95945050505050565b600081905092915050565b7f7b226e616d65223a220000000000000000000000000000000000000000000000600082015250565b6000610e9b600983610e5a565b9150610ea682610e65565b600982019050919050565b6000610ebc82610d34565b610ec68185610e5a565b9350610ed6818560208601610d50565b80840191505092915050565b7f2f00000000000000000000000000000000000000000000000000000000000000600082015250565b6000610f18600183610e5a565b9150610f2382610ee2565b600182019050919050565b7f202d200000000000000000000000000000000000000000000000000000000000600082015250565b6000610f64600383610e5a565b9150610f6f82610f2e565b600382019050919050565b7f2070706d222c0000000000000000000000000000000000000000000000000000600082015250565b6000610fb0600683610e5a565b9150610fbb82610f7a565b600682019050919050565b7f22696d616765223a220000000000000000000000000000000000000000000000600082015250565b6000610ffc600983610e5a565b915061100782610fc6565b600982019050919050565b7f222c000000000000000000000000000000000000000000000000000000000000600082015250565b6000611048600283610e5a565b915061105382611012565b600282019050919050565b7f226465736372697074696f6e223a22506f736974696f6e204e46542023000000600082015250565b6000611094601d83610e5a565b915061109f8261105e565b601d82019050919050565b7f227d000000000000000000000000000000000000000000000000000000000000600082015250565b60006110e0600283610e5a565b91506110eb826110aa565b600282019050919050565b600061110182610e8e565b915061110d8288610eb1565b915061111882610f0b565b91506111248287610eb1565b915061112f82610f57565b915061113b8286610eb1565b915061114682610fa3565b915061115182610fef565b915061115d8285610eb1565b91506111688261103b565b915061117382611087565b915061117f8284610eb1565b915061118a826110d3565b91508190509695505050505050565b7f646174613a6170706c69636174696f6e2f6a736f6e3b6261736536342c000000600082015250565b60006111cf601d83610e5a565b91506111da82611199565b601d82019050919050565b60006111f0826111c2565b91506111fc8284610eb1565b915081905092915050565b7f4e487b7100000000000000000000000000000000000000000000000000000000600052601260045260246000fd5b7f3c7376672076696577426f783d2230203020333030203530302220786d6c6e7360008201527f3d22687474703a2f2f7777772e77332e6f72672f323030302f737667223e0000602082015250565b6000611292603e83610e5a565b915061129d82611236565b603e82019050919050565b7f3c726563742077696474683d2233303022206865696768743d2235303022207260008201527f783d223430222072793d223430222066696c6c3d2223313232333437222f3e00602082015250565b6000611304603f83610e5a565b915061130f826112a8565b603f82019050919050565b7f3c74657874207472616e73666f726d3d227472616e736c61746528353620343760008201527f3029222066696c6c3d22236666662220666f6e742d66616d696c793d22526f6260208201527f6f746f2220666f6e742d73697a653d223435223e3c747370616e3e0000000000604082015250565b600061139c605b83610e5a565b91506113a78261131a565b605b82019050919050565b7f3c2f747370616e3e3c2f746578743e0000000000000000000000000000000000600082015250565b60006113e8600f83610e5a565b91506113f3826113b2565b600f82019050919050565b7f3c74657874207472616e73666f726d3d22726f74617465283930202d3120313860008201527f29222066696c6c3d22236666662220666f6e742d66616d696c793d22526f626f60208201527f746f2220666f6e742d73697a653d223132223e3c747370616e3e000000000000604082015250565b6000611480605a83610e5a565b915061148b826113fe565b605a82019050919050565b7f3c74657874207472616e73666f726d3d22726f74617465282d3930203334352060008201527f363029222066696c6c3d22236666662220666f6e742d66616d696c793d22526f60208201527f626f746f2220666f6e742d73697a653d223138223e3c747370616e3e00000000604082015250565b6000611518605c83610e5a565b915061152382611496565b605c82019050919050565b7f3c74657874207472616e73666f726d3d227472616e736c61746528353020313160008201527f3629222066696c6c3d22236666662220666f6e742d66616d696c793d22526f6260208201527f6f746f2220666f6e742d73697a653d223230223e3c747370616e3e4d696e207460408201527f69636b3c2f747370616e3e3c747370616e20783d22302220793d223230223e4d60608201527f6178207469636b3c2f747370616e3e3c747370616e20783d22302220793d223460808201527f30223e416d6f756e743c2f747370616e3e3c2f746578743e000000000000000060a082015250565b600061162260b883610e5a565b915061162d8261152e565b60b882019050919050565b7f3c74657874207472616e73666f726d3d227472616e736c61746528313835203160008201527f313629222066696c6c3d22236666662220666f6e742d66616d696c793d22526f60208201527f626f746f2220666f6e742d73697a653d223230223e3c747370616e3e00000000604082015250565b60006116ba605c83610e5a565b91506116c582611638565b605c82019050919050565b6000819050919050565b6116eb6116e682610a6c565b6116d0565b82525050565b7f3c2f747370616e3e3c747370616e20783d22302220793d223230223e00000000600082015250565b6000611727601c83610e5a565b9150611732826116f1565b601c82019050919050565b7f3c2f747370616e3e3c747370616e20783d22302220793d223430223e00000000600082015250565b6000611773601c83610e5a565b915061177e8261173d565b601c82019050919050565b60008160e81b9050919050565b60006117a182611789565b9050919050565b6117b96117b482610c46565b611796565b82525050565b7f2000000000000000000000000000000000000000000000000000000000000000600082015250565b60006117f5600183610e5a565b9150611800826117bf565b600182019050919050565b7f3c74657874207472616e73666f726d3d227472616e736c61746528353020323460008201527f3629222066696c6c3d22236666662220666f6e742d66616d696c793d22526f6260208201527f6f746f2220666f6e742d73697a653d223230223e3c747370616e3e422e20746f60408201527f6b656e3c2f747370616e3e3c747370616e20783d22302220793d223230223e5160608201527f2e20746f6b656e3c2f747370616e3e3c747370616e20783d22302220793d223460808201527f30223e46656520746965723c2f747370616e3e3c2f746578743e00000000000060a082015250565b60006118ff60ba83610e5a565b915061190a8261180b565b60ba82019050919050565b7f3c74657874207472616e73666f726d3d227472616e736c61746528313835203260008201527f343629222066696c6c3d22236666662220666f6e742d66616d696c793d22526f60208201527f626f746f2220666f6e742d73697a653d223230223e3c747370616e3e00000000604082015250565b6000611997605c83610e5a565b91506119a282611915565b605c82019050919050565b7f2070706d3c2f747370616e3e3c2f746578743e00000000000000000000000000600082015250565b60006119e3601383610e5a565b91506119ee826119ad565b601382019050919050565b6000611a0482611285565b9150611a0f826112f7565b9150611a1a8261138f565b9150611a26828e610eb1565b9150611a3182610f0b565b9150611a3d828d610eb1565b9150611a48826113db565b9150611a5382611473565b9150611a5f828c610eb1565b9150611a6a826113db565b9150611a758261150b565b9150611a81828b610eb1565b9150611a8c826113db565b9150611a9782611615565b9150611aa2826116ad565b9150611aae828a6116da565b602082019150611abd8261171a565b9150611ac982896116da565b602082019150611ad882611766565b9150611ae482886117a8565b600382019150611af3826117e8565b9150611aff8287610eb1565b9150611b0a826113db565b9150611b15826118f2565b9150611b208261198a565b9150611b2c8286610eb1565b9150611b378261171a565b9150611b438285610eb1565b9150611b4e82611766565b9150611b5a8284610eb1565b9150611b65826119d6565b91508190509c9b505050505050505050505050565b7f4e487b7100000000000000000000000000000000000000000000000000000000600052601160045260246000fd5b6000611bb482610a6c565b9150611bbf83610a6c565b9250827fffffffffffffffffffffffffffffffffffffffffffffffffffffffffffffffff03821115611bf457611bf3611b7a565b5b828201905092915050565b6000611c0a82610a6c565b9150611c1583610a6c565b925082611c2557611c24611207565b5b828204905092915050565b6000611c3b82610a6c565b9150611c4683610a6c565b9250817fffffffffffffffffffffffffffffffffffffffffffffffffffffffffffffffff0483118215151615611c7f57611c7e611b7a565b5b828202905092915050565b7f4e487b7100000000000000000000000000000000000000000000000000000000600052603260045260246000fd5b6000611cc482610a6c565b915060008203611cd757611cd6611b7a565b5b600182039050919050565b7f537472696e67733a20686578206c656e67746820696e73756666696369656e74600082015250565b6000611d18602083610d3f565b9150611d2382611ce2565b602082019050919050565b60006020820190508181036000830152611d4781611d0b565b9050919050565b7f3078000000000000000000000000000000000000000000000000000000000000600082015250565b6000611d84600283610e5a565b9150611d8f82611d4e565b600282019050919050565b6000819050919050565b611db5611db082610dde565b611d9a565b82525050565b6000611dc682611d77565b9150611dd28285611da4565b602082019150611de28284611da4565b602082019150819050939250505056fe4142434445464748494a4b4c4d4e4f505152535455565758595a6162636465666768696a6b6c6d6e6f707172737475767778797a303132333435363738392b2fa2646970667358221220a481efd3555ff0313fd445d161d6b5892130043f77d253c0f619c8868d0aaff164736f6c634300080d0033a2646970667358221220cb8550963045f34bdefd93560e35f48518527ed3c7ed1b99a8a63cce82e972cb64736f6c634300080d0033",
  "linkReferences": {},
  "deployedLinkReferences": {}
}