{
  "_format": "hh-sol-artifact-1",
  "contractName": "TestContract",
  "sourceName": "contracts/TestContract.sol",
  "abi": [
    {
      "inputs": [],
      "stateMutability": "nonpayable",
      "type": "constructor"
    },
    {
      "inputs": [
        {
          "internalType": "uint256",
          "name": "_date",
          "type": "uint256"
        },
        {
          "internalType": "uint8",
          "name": "_moodId",
          "type": "uint8"
        },
        {
          "internalType": "address",
          "name": "_userAddress",
          "type": "address"
        }
      ],
      "name": "addMood",
      "outputs": [],
      "stateMutability": "nonpayable",
      "type": "function"
    },
    {
      "inputs": [
        {
          "internalType": "uint256",
          "name": "_year",
          "type": "uint256"
        }
      ],
      "name": "isLeap",
      "outputs": [
        {
          "internalType": "uint8",
          "name": "",
          "type": "uint8"
        }
      ],
      "stateMutability": "pure",
      "type": "function"
    },
    {
      "inputs": [
        {
          "internalType": "address",
          "name": "",
          "type": "address"
        }
      ],
      "name": "users",
      "outputs": [
        {
          "internalType": "address",
          "name": "userAddress",
          "type": "address"
        }
      ],
      "stateMutability": "view",
      "type": "function"
    },
    {
      "inputs": [
        {
          "internalType": "uint256",
          "name": "_begin",
          "type": "uint256"
        },
        {
          "internalType": "uint256",
          "name": "_end",
          "type": "uint256"
        },
        {
          "internalType": "address",
          "name": "_userAddress",
          "type": "address"
        }
      ],
      "name": "viewMood",
      "outputs": [
        {
          "internalType": "uint8[]",
          "name": "",
          "type": "uint8[]"
        }
      ],
      "stateMutability": "view",
      "type": "function"
    }
  ],
  "bytecode": "0x608060405234801561001057600080fd5b50336000806101000a81548173ffffffffffffffffffffffffffffffffffffffff021916908373ffffffffffffffffffffffffffffffffffffffff16021790555061082f806100606000396000f3fe608060405234801561001057600080fd5b506004361061004c5760003560e01c8063635a504c14610051578063a87430ba14610081578063f5a38513146100b1578063f701a11a146100cd575b600080fd5b61006b6004803603810190610066919061040e565b6100fd565b60405161007891906105b5565b60405180910390f35b61009b600480360381019061009691906103e5565b610154565b6040516100a89190610578565b60405180910390f35b6100cb60048036038101906100c69190610486565b610192565b005b6100e760048036038101906100e29190610437565b610229565b6040516100f49190610593565b60405180910390f35b60008060048361010d9190610725565b14801561013f575060006064836101249190610725565b14158061013e575060006101908361013c9190610725565b145b5b61014a57600061014d565b60015b9050919050565b60016020528060005260406000206000915090508060000160009054906101000a900473ffffffffffffffffffffffffffffffffffffffff16905081565b6000600160008373ffffffffffffffffffffffffffffffffffffffff1673ffffffffffffffffffffffffffffffffffffffff168152602001908152602001600020905083816001016000868152602001908152602001600020600001819055508281600101600086815260200190815260200160002060010160006101000a81548160ff021916908360ff16021790555050505050565b60606000600160008473ffffffffffffffffffffffffffffffffffffffff1673ffffffffffffffffffffffffffffffffffffffff16815260200190815260200160002090506000806001878761027f919061065f565b6102899190610609565b67ffffffffffffffff8111156102c8577f4e487b7100000000000000000000000000000000000000000000000000000000600052604160045260246000fd5b6040519080825280602002602001820160405280156102f65781602001602082028036833780820191505090505b50905060008790505b8681116103985783600101600082815260200190815260200160002060010160009054906101000a900460ff16828480610338906106dc565b955081518110610371577f4e487b7100000000000000000000000000000000000000000000000000000000600052603260045260246000fd5b602002602001019060ff16908160ff16815250508080610390906106dc565b9150506102ff565b508093505050509392505050565b6000813590506103b5816107b4565b92915050565b6000813590506103ca816107cb565b92915050565b6000813590506103df816107e2565b92915050565b6000602082840312156103f757600080fd5b6000610405848285016103a6565b91505092915050565b60006020828403121561042057600080fd5b600061042e848285016103bb565b91505092915050565b60008060006060848603121561044c57600080fd5b600061045a868287016103bb565b935050602061046b868287016103bb565b925050604061047c868287016103a6565b9150509250925092565b60008060006060848603121561049b57600080fd5b60006104a9868287016103bb565b93505060206104ba868287016103d0565b92505060406104cb868287016103a6565b9150509250925092565b60006104e1838361055a565b60208301905092915050565b6104f681610693565b82525050565b6000610507826105e0565b61051181856105f8565b935061051c836105d0565b8060005b8381101561054d57815161053488826104d5565b975061053f836105eb565b925050600181019050610520565b5085935050505092915050565b610563816106cf565b82525050565b610572816106cf565b82525050565b600060208201905061058d60008301846104ed565b92915050565b600060208201905081810360008301526105ad81846104fc565b905092915050565b60006020820190506105ca6000830184610569565b92915050565b6000819050602082019050919050565b600081519050919050565b6000602082019050919050565b600082825260208201905092915050565b6000610614826106c5565b915061061f836106c5565b9250827fffffffffffffffffffffffffffffffffffffffffffffffffffffffffffffffff0382111561065457610653610756565b5b828201905092915050565b600061066a826106c5565b9150610675836106c5565b92508282101561068857610687610756565b5b828203905092915050565b600061069e826106a5565b9050919050565b600073ffffffffffffffffffffffffffffffffffffffff82169050919050565b6000819050919050565b600060ff82169050919050565b60006106e7826106c5565b91507fffffffffffffffffffffffffffffffffffffffffffffffffffffffffffffffff82141561071a57610719610756565b5b600182019050919050565b6000610730826106c5565b915061073b836106c5565b92508261074b5761074a610785565b5b828206905092915050565b7f4e487b7100000000000000000000000000000000000000000000000000000000600052601160045260246000fd5b7f4e487b7100000000000000000000000000000000000000000000000000000000600052601260045260246000fd5b6107bd81610693565b81146107c857600080fd5b50565b6107d4816106c5565b81146107df57600080fd5b50565b6107eb816106cf565b81146107f657600080fd5b5056fea2646970667358221220bf2d46f6964250e01768d36391405d09bde737c9d7011be708e160549393a70664736f6c63430008040033",
  "linkReferences": {},
  "deployedLinkReferences": {}
}