{
  "_format": "hh-sol-artifact-1",
  "contractName": "Pool",
  "sourceName": "contracts/Pool.sol",
  "abi": [
    {
      "inputs": [
        {
          "internalType": "string",
          "name": "_token0",
          "type": "string"
        },
        {
          "internalType": "string",
          "name": "_token1",
          "type": "string"
        },
        {
          "internalType": "uint24",
          "name": "_fee",
          "type": "uint24"
        }
      ],
      "stateMutability": "nonpayable",
      "type": "constructor"
    },
    {
      "inputs": [],
      "name": "poolInfo",
      "outputs": [
        {
          "internalType": "string",
          "name": "",
          "type": "string"
        },
        {
          "internalType": "string",
          "name": "",
          "type": "string"
        },
        {
          "internalType": "uint24",
          "name": "",
          "type": "uint24"
        }
      ],
      "stateMutability": "view",
      "type": "function"
    }
  ],
  "bytecode": "0x608060405234801561001057600080fd5b506040516106d63803806106d6833981810160405281019061003291906101a7565b8260009080519060200190610048929190610087565b50816001908051906020019061005f929190610087565b5080600260006101000a81548162ffffff021916908362ffffff1602179055505050506103a7565b828054610093906102be565b90600052602060002090601f0160209004810192826100b557600085556100fc565b82601f106100ce57805160ff19168380011785556100fc565b828001600101855582156100fc579182015b828111156100fb5782518255916020019190600101906100e0565b5b509050610109919061010d565b5090565b5b8082111561012657600081600090555060010161010e565b5090565b600061013d6101388461024b565b610226565b90508281526020810184848401111561015557600080fd5b61016084828561028b565b509392505050565b600082601f83011261017957600080fd5b815161018984826020860161012a565b91505092915050565b6000815190506101a181610390565b92915050565b6000806000606084860312156101bc57600080fd5b600084015167ffffffffffffffff8111156101d657600080fd5b6101e286828701610168565b935050602084015167ffffffffffffffff8111156101ff57600080fd5b61020b86828701610168565b925050604061021c86828701610192565b9150509250925092565b6000610230610241565b905061023c82826102f0565b919050565b6000604051905090565b600067ffffffffffffffff82111561026657610265610350565b5b61026f8261037f565b9050602081019050919050565b600062ffffff82169050919050565b60005b838110156102a957808201518184015260208101905061028e565b838111156102b8576000848401525b50505050565b600060028204905060018216806102d657607f821691505b602082108114156102ea576102e9610321565b5b50919050565b6102f98261037f565b810181811067ffffffffffffffff8211171561031857610317610350565b5b80604052505050565b7f4e487b7100000000000000000000000000000000000000000000000000000000600052602260045260246000fd5b7f4e487b7100000000000000000000000000000000000000000000000000000000600052604160045260246000fd5b6000601f19601f8301169050919050565b6103998161027c565b81146103a457600080fd5b50565b610320806103b66000396000f3fe608060405234801561001057600080fd5b506004361061002b5760003560e01c80635a2f3d0914610030575b600080fd5b610038610050565b604051610047939291906101d5565b60405180910390f35b6060806000806001600260009054906101000a900462ffffff1682805461007690610278565b80601f01602080910402602001604051908101604052809291908181526020018280546100a290610278565b80156100ef5780601f106100c4576101008083540402835291602001916100ef565b820191906000526020600020905b8154815290600101906020018083116100d257829003601f168201915b5050505050925081805461010290610278565b80601f016020809104026020016040519081016040528092919081815260200182805461012e90610278565b801561017b5780601f106101505761010080835404028352916020019161017b565b820191906000526020600020905b81548152906001019060200180831161015e57829003601f168201915b50505050509150925092509250909192565b60006101988261021a565b6101a28185610225565b93506101b2818560208601610245565b6101bb816102d9565b840191505092915050565b6101cf81610236565b82525050565b600060608201905081810360008301526101ef818661018d565b90508181036020830152610203818561018d565b905061021260408301846101c6565b949350505050565b600081519050919050565b600082825260208201905092915050565b600062ffffff82169050919050565b60005b83811015610263578082015181840152602081019050610248565b83811115610272576000848401525b50505050565b6000600282049050600182168061029057607f821691505b602082108114156102a4576102a36102aa565b5b50919050565b7f4e487b7100000000000000000000000000000000000000000000000000000000600052602260045260246000fd5b6000601f19601f830116905091905056fea26469706673582212205e134b6ffd81427878cd4273ba1129f13ab02a30ffe1fc0771dc5ce3a7f3d6a764736f6c63430008040033",
  "linkReferences": {},
  "deployedLinkReferences": {}
}